{
  "_format": "hh-sol-artifact-1",
  "contractName": "WowTPoints",
  "sourceName": "contracts/wowTPoints.sol",
  "abi": [
    {
      "anonymous": false,
      "inputs": [
        {
          "indexed": false,
          "internalType": "uint8",
          "name": "version",
          "type": "uint8"
        }
      ],
      "name": "Initialized",
      "type": "event"
    },
    {
      "anonymous": false,
      "inputs": [
        {
          "indexed": true,
          "internalType": "address",
          "name": "previousOwner",
          "type": "address"
        },
        {
          "indexed": true,
          "internalType": "address",
          "name": "newOwner",
          "type": "address"
        }
      ],
      "name": "OwnershipTransferred",
      "type": "event"
    },
    {
      "anonymous": false,
      "inputs": [
        {
          "indexed": true,
          "internalType": "bytes32",
          "name": "role",
          "type": "bytes32"
        },
        {
          "indexed": true,
          "internalType": "bytes32",
          "name": "previousAdminRole",
          "type": "bytes32"
        },
        {
          "indexed": true,
          "internalType": "bytes32",
          "name": "newAdminRole",
          "type": "bytes32"
        }
      ],
      "name": "RoleAdminChanged",
      "type": "event"
    },
    {
      "anonymous": false,
      "inputs": [
        {
          "indexed": true,
          "internalType": "bytes32",
          "name": "role",
          "type": "bytes32"
        },
        {
          "indexed": true,
          "internalType": "address",
          "name": "account",
          "type": "address"
        },
        {
          "indexed": true,
          "internalType": "address",
          "name": "sender",
          "type": "address"
        }
      ],
      "name": "RoleGranted",
      "type": "event"
    },
    {
      "anonymous": false,
      "inputs": [
        {
          "indexed": true,
          "internalType": "bytes32",
          "name": "role",
          "type": "bytes32"
        },
        {
          "indexed": true,
          "internalType": "address",
          "name": "account",
          "type": "address"
        },
        {
          "indexed": true,
          "internalType": "address",
          "name": "sender",
          "type": "address"
        }
      ],
      "name": "RoleRevoked",
      "type": "event"
    },
    {
      "inputs": [],
      "name": "ADMIN_ROLE",
      "outputs": [
        {
          "internalType": "bytes32",
          "name": "",
          "type": "bytes32"
        }
      ],
      "stateMutability": "view",
      "type": "function"
    },
    {
      "inputs": [],
      "name": "DEFAULT_ADMIN_ROLE",
      "outputs": [
        {
          "internalType": "bytes32",
          "name": "",
          "type": "bytes32"
        }
      ],
      "stateMutability": "view",
      "type": "function"
    },
    {
      "inputs": [],
      "name": "activeUserPoints",
      "outputs": [
        {
          "internalType": "uint16",
          "name": "",
          "type": "uint16"
        }
      ],
      "stateMutability": "view",
      "type": "function"
    },
    {
      "inputs": [
        {
          "internalType": "address",
          "name": "account",
          "type": "address"
        }
      ],
      "name": "addActiveUserPoints",
      "outputs": [],
      "stateMutability": "nonpayable",
      "type": "function"
    },
    {
      "inputs": [
        {
          "internalType": "address",
          "name": "account",
          "type": "address"
        },
        {
          "internalType": "uint256",
          "name": "_points",
          "type": "uint256"
        }
      ],
      "name": "addPoints",
      "outputs": [],
      "stateMutability": "nonpayable",
      "type": "function"
    },
    {
      "inputs": [],
      "name": "getLeaderBoard",
      "outputs": [
        {
          "internalType": "address",
          "name": "",
          "type": "address"
        }
      ],
      "stateMutability": "view",
      "type": "function"
    },
    {
      "inputs": [
        {
          "internalType": "address",
          "name": "account",
          "type": "address"
        }
      ],
      "name": "getPoints",
      "outputs": [
        {
          "internalType": "uint256",
          "name": "",
          "type": "uint256"
        }
      ],
      "stateMutability": "view",
      "type": "function"
    },
    {
      "inputs": [
        {
          "internalType": "bytes32",
          "name": "role",
          "type": "bytes32"
        }
      ],
      "name": "getRoleAdmin",
      "outputs": [
        {
          "internalType": "bytes32",
          "name": "",
          "type": "bytes32"
        }
      ],
      "stateMutability": "view",
      "type": "function"
    },
    {
      "inputs": [],
      "name": "getTopLeaderBoards",
      "outputs": [
        {
          "internalType": "address[10]",
          "name": "",
          "type": "address[10]"
        }
      ],
      "stateMutability": "view",
      "type": "function"
    },
    {
      "inputs": [
        {
          "internalType": "bytes32",
          "name": "role",
          "type": "bytes32"
        },
        {
          "internalType": "address",
          "name": "account",
          "type": "address"
        }
      ],
      "name": "grantRole",
      "outputs": [],
      "stateMutability": "nonpayable",
      "type": "function"
    },
    {
      "inputs": [
        {
          "internalType": "bytes32",
          "name": "role",
          "type": "bytes32"
        },
        {
          "internalType": "address",
          "name": "account",
          "type": "address"
        }
      ],
      "name": "hasRole",
      "outputs": [
        {
          "internalType": "bool",
          "name": "",
          "type": "bool"
        }
      ],
      "stateMutability": "view",
      "type": "function"
    },
    {
      "inputs": [
        {
          "internalType": "uint16",
          "name": "_levelOnePoints",
          "type": "uint16"
        },
        {
          "internalType": "uint16",
          "name": "_levelTwoPoints",
          "type": "uint16"
        },
        {
          "internalType": "uint16",
          "name": "_activeUserPoints",
          "type": "uint16"
        },
        {
          "internalType": "uint16",
          "name": "_minimumPointsForConvertion",
          "type": "uint16"
        }
      ],
      "name": "initialize",
      "outputs": [],
      "stateMutability": "nonpayable",
      "type": "function"
    },
    {
      "inputs": [],
      "name": "levelOnePoints",
      "outputs": [
        {
          "internalType": "uint16",
          "name": "",
          "type": "uint16"
        }
      ],
      "stateMutability": "view",
      "type": "function"
    },
    {
      "inputs": [],
      "name": "levelTwoPoints",
      "outputs": [
        {
          "internalType": "uint16",
          "name": "",
          "type": "uint16"
        }
      ],
      "stateMutability": "view",
      "type": "function"
    },
    {
      "inputs": [],
      "name": "minimumPointsForConvertion",
      "outputs": [
        {
          "internalType": "uint256",
          "name": "",
          "type": "uint256"
        }
      ],
      "stateMutability": "view",
      "type": "function"
    },
    {
      "inputs": [],
      "name": "owner",
      "outputs": [
        {
          "internalType": "address",
          "name": "",
          "type": "address"
        }
      ],
      "stateMutability": "view",
      "type": "function"
    },
    {
      "inputs": [
        {
          "internalType": "address",
          "name": "account",
          "type": "address"
        },
        {
          "internalType": "uint256",
          "name": "_points",
          "type": "uint256"
        }
      ],
      "name": "reducePoints",
      "outputs": [],
      "stateMutability": "nonpayable",
      "type": "function"
    },
    {
      "inputs": [],
      "name": "renounceOwnership",
      "outputs": [],
      "stateMutability": "nonpayable",
      "type": "function"
    },
    {
      "inputs": [
        {
          "internalType": "bytes32",
          "name": "role",
          "type": "bytes32"
        },
        {
          "internalType": "address",
          "name": "account",
          "type": "address"
        }
      ],
      "name": "renounceRole",
      "outputs": [],
      "stateMutability": "nonpayable",
      "type": "function"
    },
    {
      "inputs": [
        {
          "internalType": "bytes32",
          "name": "role",
          "type": "bytes32"
        },
        {
          "internalType": "address",
          "name": "account",
          "type": "address"
        }
      ],
      "name": "revokeRole",
      "outputs": [],
      "stateMutability": "nonpayable",
      "type": "function"
    },
    {
      "inputs": [
        {
          "internalType": "uint16",
          "name": "newActiveUserPoints",
          "type": "uint16"
        }
      ],
      "name": "setActiveUserPoints",
      "outputs": [],
      "stateMutability": "nonpayable",
      "type": "function"
    },
    {
      "inputs": [
        {
          "internalType": "uint16",
          "name": "newLevelOnePoints",
          "type": "uint16"
        }
      ],
      "name": "setLevelOnePoints",
      "outputs": [],
      "stateMutability": "nonpayable",
      "type": "function"
    },
    {
      "inputs": [
        {
          "internalType": "uint16",
          "name": "newLevelTwoPoints",
          "type": "uint16"
        }
      ],
      "name": "setLevelTwoPoints",
      "outputs": [],
      "stateMutability": "nonpayable",
      "type": "function"
    },
    {
      "inputs": [
        {
          "internalType": "uint16",
          "name": "newMinimumPointsForConvertion",
          "type": "uint16"
        }
      ],
      "name": "setMinimumPointsForConvertion",
      "outputs": [],
      "stateMutability": "nonpayable",
      "type": "function"
    },
    {
      "inputs": [
        {
          "internalType": "bytes4",
          "name": "interfaceId",
          "type": "bytes4"
        }
      ],
      "name": "supportsInterface",
      "outputs": [
        {
          "internalType": "bool",
          "name": "",
          "type": "bool"
        }
      ],
      "stateMutability": "view",
      "type": "function"
    },
    {
      "inputs": [
        {
          "internalType": "address",
          "name": "newOwner",
          "type": "address"
        }
      ],
      "name": "transferOwnership",
      "outputs": [],
      "stateMutability": "nonpayable",
      "type": "function"
    }
  ],
  "bytecode": "0x608060405234801561001057600080fd5b50611277806100206000396000f3fe608060405234801561001057600080fd5b506004361061018e5760003560e01c8063a217fddf116100de578063d547741f11610097578063e3df7d2d11610071578063e3df7d2d1461036f578063e545b70e14610382578063ee204abb14610396578063f2fde38b146103bf57600080fd5b8063d547741f14610336578063d681028014610349578063e0758b051461035c57600080fd5b8063a217fddf146102d4578063a6d0f7c0146102dc578063c0f3ccee146102ef578063c29d72bc14610302578063c7fbe2aa14610313578063ce681ac31461032857600080fd5b80633ff4c2de1161014b57806375b238fc1161012557806375b238fc1461027e578063827d56f5146102935780638da5cb5b1461029c57806391d14854146102c157600080fd5b80633ff4c2de1461023a578063507cd30f14610263578063715018a61461027657600080fd5b8063016420a01461019357806301ffc9a7146101a8578063248a9ca3146101d05780632f2ff15d14610201578063330d6f8f1461021457806336568abe14610227575b600080fd5b6101a66101a1366004610eeb565b6103d2565b005b6101bb6101b6366004610f06565b6103f7565b60405190151581526020015b60405180910390f35b6101f36101de366004610f30565b60009081526097602052604090206001015490565b6040519081526020016101c7565b6101a661020f366004610f49565b61042e565b6101a6610222366004610f87565b610458565b6101a6610235366004610f49565b610469565b60c95461025090640100000000900461ffff1681565b60405161ffff90911681526020016101c7565b6101a6610271366004610fa2565b6104ec565b6101a6610592565b6101f360008051602061122283398151915281565b6101f360ca5481565b6033546001600160a01b03165b6040516001600160a01b0390911681526020016101c7565b6101bb6102cf366004610f49565b6105a6565b6101f3600081565b6101a66102ea366004610f87565b6105d1565b6101a66102fd366004610fcc565b6105f1565b60cb546001600160a01b03166102a9565b61031b610765565b6040516101c79190611020565b60c9546102509061ffff1681565b6101a6610344366004610f49565b6107ab565b6101a6610357366004610f87565b6107d0565b6101a661036a366004610fa2565b6107f8565b6101a661037d366004610f87565b6108e9565b60c9546102509062010000900461ffff1681565b6101f36103a4366004610eeb565b6001600160a01b0316600090815260d5602052604090205490565b6101a66103cd366004610eeb565b610915565b6103da61098b565b60c9546103f4908290640100000000900461ffff166104ec565b50565b60006001600160e01b03198216637965db0b60e01b148061042857506301ffc9a760e01b6001600160e01b03198316145b92915050565b600082815260976020526040902060010154610449816109e5565b61045383836109ef565b505050565b61046061098b565b61ffff1660ca55565b6001600160a01b03811633146104de5760405162461bcd60e51b815260206004820152602f60248201527f416363657373436f6e74726f6c3a2063616e206f6e6c792072656e6f756e636560448201526e103937b632b9903337b91039b2b63360891b60648201526084015b60405180910390fd5b6104e88282610a75565b5050565b610504600080516020611222833981519152336105a6565b6105475760405162461bcd60e51b81526020600482015260146024820152734d75737420686176652061646d696e20726f6c6560601b60448201526064016104d5565b6001600160a01b038216600090815260d5602052604081205461056b908390611071565b6001600160a01b038416600090815260d56020526040902081905590506104538383610adc565b61059a61098b565b6105a46000610bf1565b565b60009182526097602090815260408084206001600160a01b0393909316845291905290205460ff1690565b6105d961098b565b60c9805461ffff191661ffff92909216919091179055565b600054610100900460ff16158080156106115750600054600160ff909116105b8061062b5750303b15801561062b575060005460ff166001145b61068e5760405162461bcd60e51b815260206004820152602e60248201527f496e697469616c697a61626c653a20636f6e747261637420697320616c72656160448201526d191e481a5b9a5d1a585b1a5e995960921b60648201526084016104d5565b6000805460ff1916600117905580156106b1576000805461ff0019166101001790555b6106b9610c43565b6106d1600080516020611222833981519152336109ef565b6106dc6000336109ef565b60c9805461ffff87811663ffffffff199092169190911762010000878316021765ffff0000000019166401000000008683160217909155821660ca55801561075e576000805461ff0019169055604051600181527f7f26b83ff96e1f2b6a682f133852f6798a09c465da95921460cefb38474024989060200160405180910390a15b5050505050565b61076d610eb0565b604080516101408101918290529060cb90600a9082845b81546001600160a01b03168152600190910190602001808311610784575050505050905090565b6000828152609760205260409020600101546107c6816109e5565b6104538383610a75565b6107d861098b565b60c9805461ffff909216620100000263ffff000019909216919091179055565b610810600080516020611222833981519152336105a6565b6108535760405162461bcd60e51b81526020600482015260146024820152734d75737420686176652061646d696e20726f6c6560601b60448201526064016104d5565b600081116108a35760405162461bcd60e51b815260206004820181905260248201527f706f696e7473206d7573742062652067726561746572207468616e207a65726f60448201526064016104d5565b6001600160a01b038216600090815260d560205260408120546108c790839061109a565b90506001600160a01b03909216600090815260d5602052604090209190915550565b6108f161098b565b60c9805461ffff9092166401000000000265ffff0000000019909216919091179055565b61091d61098b565b6001600160a01b0381166109825760405162461bcd60e51b815260206004820152602660248201527f4f776e61626c653a206e6577206f776e657220697320746865207a65726f206160448201526564647265737360d01b60648201526084016104d5565b6103f481610bf1565b6033546001600160a01b031633146105a45760405162461bcd60e51b815260206004820181905260248201527f4f776e61626c653a2063616c6c6572206973206e6f7420746865206f776e657260448201526064016104d5565b6103f48133610c72565b6109f982826105a6565b6104e85760008281526097602090815260408083206001600160a01b03851684529091529020805460ff19166001179055610a313390565b6001600160a01b0316816001600160a01b0316837f2f8788117e7eff1d82e926ec794901d17c78024a50270940304540a733656f0d60405160405180910390a45050565b610a7f82826105a6565b156104e85760008281526097602090815260408083206001600160a01b0385168085529252808320805460ff1916905551339285917ff6391f5c32d9c69d2a47ea670b442974b53935d1edc7fd64eb21e047a839171b9190a45050565b60005b600a811015610b335781610b1c60cb83600a8110610aff57610aff611084565b01546001600160a01b0316600090815260d5602052604090205490565b10610b335780610b2b816110ad565b915050610adf565b6000610b416001600a61109a565b90505b81811115610bb85760cb610b5960018361109a565b600a8110610b6957610b69611084565b01546001600160a01b031660cb82600a8110610b8757610b87611084565b0180546001600160a01b0319166001600160a01b039290921691909117905580610bb0816110c6565b915050610b44565b508260cb82600a8110610bcd57610bcd611084565b0180546001600160a01b0319166001600160a01b0392909216919091179055505050565b603380546001600160a01b038381166001600160a01b0319831681179093556040519116919082907f8be0079c531659141344cd1fd0a4f28419497f9722a3daafe3b4186f6b6457e090600090a35050565b600054610100900460ff16610c6a5760405162461bcd60e51b81526004016104d5906110dd565b6105a4610ccb565b610c7c82826105a6565b6104e857610c8981610cfb565b610c94836020610d0d565b604051602001610ca592919061114c565b60408051601f198184030181529082905262461bcd60e51b82526104d5916004016111c1565b600054610100900460ff16610cf25760405162461bcd60e51b81526004016104d5906110dd565b6105a433610bf1565b60606104286001600160a01b03831660145b60606000610d1c8360026111f4565b610d27906002611071565b67ffffffffffffffff811115610d3f57610d3f61120b565b6040519080825280601f01601f191660200182016040528015610d69576020820181803683370190505b509050600360fc1b81600081518110610d8457610d84611084565b60200101906001600160f81b031916908160001a905350600f60fb1b81600181518110610db357610db3611084565b60200101906001600160f81b031916908160001a9053506000610dd78460026111f4565b610de2906001611071565b90505b6001811115610e5a576f181899199a1a9b1b9c1cb0b131b232b360811b85600f1660108110610e1657610e16611084565b1a60f81b828281518110610e2c57610e2c611084565b60200101906001600160f81b031916908160001a90535060049490941c93610e53816110c6565b9050610de5565b508315610ea95760405162461bcd60e51b815260206004820181905260248201527f537472696e67733a20686578206c656e67746820696e73756666696369656e7460448201526064016104d5565b9392505050565b604051806101400160405280600a906020820280368337509192915050565b80356001600160a01b0381168114610ee657600080fd5b919050565b600060208284031215610efd57600080fd5b610ea982610ecf565b600060208284031215610f1857600080fd5b81356001600160e01b031981168114610ea957600080fd5b600060208284031215610f4257600080fd5b5035919050565b60008060408385031215610f5c57600080fd5b82359150610f6c60208401610ecf565b90509250929050565b803561ffff81168114610ee657600080fd5b600060208284031215610f9957600080fd5b610ea982610f75565b60008060408385031215610fb557600080fd5b610fbe83610ecf565b946020939093013593505050565b60008060008060808587031215610fe257600080fd5b610feb85610f75565b9350610ff960208601610f75565b925061100760408601610f75565b915061101560608601610f75565b905092959194509250565b6101408101818360005b600a8110156110525781516001600160a01b031683526020928301929091019060010161102a565b50505092915050565b634e487b7160e01b600052601160045260246000fd5b808201808211156104285761042861105b565b634e487b7160e01b600052603260045260246000fd5b818103818111156104285761042861105b565b6000600182016110bf576110bf61105b565b5060010190565b6000816110d5576110d561105b565b506000190190565b6020808252602b908201527f496e697469616c697a61626c653a20636f6e7472616374206973206e6f74206960408201526a6e697469616c697a696e6760a81b606082015260800190565b60005b8381101561114357818101518382015260200161112b565b50506000910152565b7f416363657373436f6e74726f6c3a206163636f756e7420000000000000000000815260008351611184816017850160208801611128565b7001034b99036b4b9b9b4b733903937b6329607d1b60179184019182015283516111b5816028840160208801611128565b01602801949350505050565b60208152600082518060208401526111e0816040850160208701611128565b601f01601f19169190910160400192915050565b80820281158282048414176104285761042861105b565b634e487b7160e01b600052604160045260246000fdfea49807205ce4d355092ef5a8a18f56e8913cf4a201fbe287825b095693c21775a264697066735822122081498cbeab02047853bb96a9dfa5fe077c513bf7b5202393db56bac9a5d94f7c64736f6c63430008110033",
  "linkReferences": {},
  "deployedLinkReferences": {}
}