{
  "_format": "hh-sol-artifact-1",
  "contractName": "WowTCommunity",
  "sourceName": "contracts/wowTCommunity.sol",
  "abi": [
    {
      "anonymous": false,
      "inputs": [
        {
          "indexed": false,
          "internalType": "uint8",
          "name": "version",
          "type": "uint8"
        }
      ],
      "name": "Initialized",
      "type": "event"
    },
    {
      "anonymous": false,
      "inputs": [
        {
          "indexed": true,
          "internalType": "address",
          "name": "previousOwner",
          "type": "address"
        },
        {
          "indexed": true,
          "internalType": "address",
          "name": "newOwner",
          "type": "address"
        }
      ],
      "name": "OwnershipTransferred",
      "type": "event"
    },
    {
      "anonymous": false,
      "inputs": [
        {
          "indexed": true,
          "internalType": "bytes32",
          "name": "role",
          "type": "bytes32"
        },
        {
          "indexed": true,
          "internalType": "bytes32",
          "name": "previousAdminRole",
          "type": "bytes32"
        },
        {
          "indexed": true,
          "internalType": "bytes32",
          "name": "newAdminRole",
          "type": "bytes32"
        }
      ],
      "name": "RoleAdminChanged",
      "type": "event"
    },
    {
      "anonymous": false,
      "inputs": [
        {
          "indexed": true,
          "internalType": "bytes32",
          "name": "role",
          "type": "bytes32"
        },
        {
          "indexed": true,
          "internalType": "address",
          "name": "account",
          "type": "address"
        },
        {
          "indexed": true,
          "internalType": "address",
          "name": "sender",
          "type": "address"
        }
      ],
      "name": "RoleGranted",
      "type": "event"
    },
    {
      "anonymous": false,
      "inputs": [
        {
          "indexed": true,
          "internalType": "bytes32",
          "name": "role",
          "type": "bytes32"
        },
        {
          "indexed": true,
          "internalType": "address",
          "name": "account",
          "type": "address"
        },
        {
          "indexed": true,
          "internalType": "address",
          "name": "sender",
          "type": "address"
        }
      ],
      "name": "RoleRevoked",
      "type": "event"
    },
    {
      "inputs": [],
      "name": "ADMIN_ROLE",
      "outputs": [
        {
          "internalType": "bytes32",
          "name": "",
          "type": "bytes32"
        }
      ],
      "stateMutability": "view",
      "type": "function"
    },
    {
      "inputs": [],
      "name": "DEFAULT_ADMIN_ROLE",
      "outputs": [
        {
          "internalType": "bytes32",
          "name": "",
          "type": "bytes32"
        }
      ],
      "stateMutability": "view",
      "type": "function"
    },
    {
      "inputs": [
        {
          "internalType": "string",
          "name": "_communityName",
          "type": "string"
        },
        {
          "internalType": "address",
          "name": "_communityParticipant",
          "type": "address"
        }
      ],
      "name": "addMembers",
      "outputs": [],
      "stateMutability": "nonpayable",
      "type": "function"
    },
    {
      "inputs": [
        {
          "internalType": "string",
          "name": "_communityName",
          "type": "string"
        }
      ],
      "name": "checkCommunityExists",
      "outputs": [
        {
          "internalType": "bool",
          "name": "",
          "type": "bool"
        }
      ],
      "stateMutability": "view",
      "type": "function"
    },
    {
      "inputs": [
        {
          "internalType": "string",
          "name": "_communityName",
          "type": "string"
        },
        {
          "internalType": "address",
          "name": "_communityParticipant",
          "type": "address"
        }
      ],
      "name": "checkMembership",
      "outputs": [
        {
          "internalType": "bool",
          "name": "",
          "type": "bool"
        }
      ],
      "stateMutability": "view",
      "type": "function"
    },
    {
      "inputs": [
        {
          "internalType": "string",
          "name": "_communityName",
          "type": "string"
        }
      ],
      "name": "checkQuizesforCommunity",
      "outputs": [
        {
          "internalType": "string[]",
          "name": "quizesforCommunity",
          "type": "string[]"
        }
      ],
      "stateMutability": "view",
      "type": "function"
    },
    {
      "inputs": [],
      "name": "communityEntryPoints",
      "outputs": [
        {
          "internalType": "uint16",
          "name": "",
          "type": "uint16"
        }
      ],
      "stateMutability": "view",
      "type": "function"
    },
    {
      "inputs": [
        {
          "internalType": "string",
          "name": "",
          "type": "string"
        }
      ],
      "name": "communityMap",
      "outputs": [
        {
          "internalType": "string",
          "name": "description",
          "type": "string"
        },
        {
          "internalType": "string",
          "name": "imageUrl",
          "type": "string"
        },
        {
          "internalType": "uint256",
          "name": "totalMembers",
          "type": "uint256"
        },
        {
          "internalType": "bool",
          "name": "exists",
          "type": "bool"
        }
      ],
      "stateMutability": "view",
      "type": "function"
    },
    {
      "inputs": [
        {
          "internalType": "string",
          "name": "_communityName",
          "type": "string"
        },
        {
          "internalType": "string",
          "name": "_description",
          "type": "string"
        },
        {
          "internalType": "string",
          "name": "_imageUrl",
          "type": "string"
        }
      ],
      "name": "createCommunity",
      "outputs": [],
      "stateMutability": "nonpayable",
      "type": "function"
    },
    {
      "inputs": [
        {
          "internalType": "string",
          "name": "_communityName",
          "type": "string"
        },
        {
          "internalType": "string",
          "name": "_message",
          "type": "string"
        },
        {
          "internalType": "string",
          "name": "_imageUrl",
          "type": "string"
        },
        {
          "internalType": "address",
          "name": "_createrAddress",
          "type": "address"
        }
      ],
      "name": "createPost",
      "outputs": [],
      "stateMutability": "nonpayable",
      "type": "function"
    },
    {
      "inputs": [],
      "name": "getCommunities",
      "outputs": [
        {
          "internalType": "string[]",
          "name": "",
          "type": "string[]"
        }
      ],
      "stateMutability": "view",
      "type": "function"
    },
    {
      "inputs": [
        {
          "internalType": "string",
          "name": "_communityName",
          "type": "string"
        }
      ],
      "name": "getCommunityDetails",
      "outputs": [
        {
          "internalType": "string",
          "name": "",
          "type": "string"
        },
        {
          "internalType": "string",
          "name": "",
          "type": "string"
        },
        {
          "internalType": "string[]",
          "name": "",
          "type": "string[]"
        },
        {
          "internalType": "uint256",
          "name": "",
          "type": "uint256"
        }
      ],
      "stateMutability": "view",
      "type": "function"
    },
    {
      "inputs": [
        {
          "internalType": "string",
          "name": "_communityName",
          "type": "string"
        }
      ],
      "name": "getPosts",
      "outputs": [
        {
          "components": [
            {
              "internalType": "string",
              "name": "message",
              "type": "string"
            },
            {
              "internalType": "string",
              "name": "imageUrl",
              "type": "string"
            },
            {
              "internalType": "address",
              "name": "createrAddress",
              "type": "address"
            }
          ],
          "internalType": "struct WowTCommunity.CommunityPosts[]",
          "name": "",
          "type": "tuple[]"
        }
      ],
      "stateMutability": "view",
      "type": "function"
    },
    {
      "inputs": [
        {
          "internalType": "bytes32",
          "name": "role",
          "type": "bytes32"
        }
      ],
      "name": "getRoleAdmin",
      "outputs": [
        {
          "internalType": "bytes32",
          "name": "",
          "type": "bytes32"
        }
      ],
      "stateMutability": "view",
      "type": "function"
    },
    {
      "inputs": [
        {
          "internalType": "bytes32",
          "name": "role",
          "type": "bytes32"
        },
        {
          "internalType": "address",
          "name": "account",
          "type": "address"
        }
      ],
      "name": "grantRole",
      "outputs": [],
      "stateMutability": "nonpayable",
      "type": "function"
    },
    {
      "inputs": [
        {
          "internalType": "bytes32",
          "name": "role",
          "type": "bytes32"
        },
        {
          "internalType": "address",
          "name": "account",
          "type": "address"
        }
      ],
      "name": "hasRole",
      "outputs": [
        {
          "internalType": "bool",
          "name": "",
          "type": "bool"
        }
      ],
      "stateMutability": "view",
      "type": "function"
    },
    {
      "inputs": [
        {
          "internalType": "address",
          "name": "_pointsContract",
          "type": "address"
        },
        {
          "internalType": "uint16",
          "name": "_communityEntryPoints",
          "type": "uint16"
        }
      ],
      "name": "initialize",
      "outputs": [],
      "stateMutability": "nonpayable",
      "type": "function"
    },
    {
      "inputs": [],
      "name": "owner",
      "outputs": [
        {
          "internalType": "address",
          "name": "",
          "type": "address"
        }
      ],
      "stateMutability": "view",
      "type": "function"
    },
    {
      "inputs": [],
      "name": "pointsContract",
      "outputs": [
        {
          "internalType": "address",
          "name": "",
          "type": "address"
        }
      ],
      "stateMutability": "view",
      "type": "function"
    },
    {
      "inputs": [],
      "name": "renounceOwnership",
      "outputs": [],
      "stateMutability": "nonpayable",
      "type": "function"
    },
    {
      "inputs": [
        {
          "internalType": "bytes32",
          "name": "role",
          "type": "bytes32"
        },
        {
          "internalType": "address",
          "name": "account",
          "type": "address"
        }
      ],
      "name": "renounceRole",
      "outputs": [],
      "stateMutability": "nonpayable",
      "type": "function"
    },
    {
      "inputs": [
        {
          "internalType": "bytes32",
          "name": "role",
          "type": "bytes32"
        },
        {
          "internalType": "address",
          "name": "account",
          "type": "address"
        }
      ],
      "name": "revokeRole",
      "outputs": [],
      "stateMutability": "nonpayable",
      "type": "function"
    },
    {
      "inputs": [
        {
          "internalType": "uint16",
          "name": "_newCommunityEntryPoints",
          "type": "uint16"
        }
      ],
      "name": "setCommunityEntryPoints",
      "outputs": [],
      "stateMutability": "nonpayable",
      "type": "function"
    },
    {
      "inputs": [
        {
          "internalType": "bytes4",
          "name": "interfaceId",
          "type": "bytes4"
        }
      ],
      "name": "supportsInterface",
      "outputs": [
        {
          "internalType": "bool",
          "name": "",
          "type": "bool"
        }
      ],
      "stateMutability": "view",
      "type": "function"
    },
    {
      "inputs": [
        {
          "internalType": "address",
          "name": "newOwner",
          "type": "address"
        }
      ],
      "name": "transferOwnership",
      "outputs": [],
      "stateMutability": "nonpayable",
      "type": "function"
    },
    {
      "inputs": [
        {
          "internalType": "string",
          "name": "_communityName",
          "type": "string"
        },
        {
          "internalType": "string",
          "name": "_quizName",
          "type": "string"
        }
      ],
      "name": "updateCommunityQuizes",
      "outputs": [],
      "stateMutability": "nonpayable",
      "type": "function"
    }
  ],
  "bytecode": "0x608060405234801561001057600080fd5b50612166806100206000396000f3fe608060405234801561001057600080fd5b506004361061018e5760003560e01c80638da5cb5b116100de578063d547741f11610097578063ecf611f811610071578063ecf611f8146103b4578063edc245a7146103d4578063f2fde38b146103e7578063f39e69a4146103fa57600080fd5b8063d547741f1461036b578063d62277011461037e578063e43220fa146103a157600080fd5b80638da5cb5b146102f657806391d1485414610307578063a217fddf1461031a578063c251b56514610322578063c5d72adf14610337578063c9de26011461034a57600080fd5b80632bf070e21161014b578063715018a611610125578063715018a6146102a157806375586d4a146102a957806375b238fc146102bc5780638ad2e40e146102e357600080fd5b80632bf070e2146102685780632f2ff15d1461027b57806336568abe1461028e57600080fd5b806301ffc9a71461019357806307321389146101bb5780631cf5a07b146101d0578063248a9ca3146101f35780632b4f8a1f146102245780632bad951314610255575b600080fd5b6101a66101a13660046118ee565b61040d565b60405190151581526020015b60405180910390f35b6101ce6101c936600461192f565b610444565b005b6101e36101de3660046119ed565b610464565b6040516101b29493929190611ad2565b610216610201366004611b1d565b60009081526097602052604090206001015490565b6040519081526020016101b2565b60c95461023d906201000090046001600160a01b031681565b6040516001600160a01b0390911681526020016101b2565b6101a66102633660046119ed565b6106e7565b6101ce610276366004611b4d565b610715565b6101ce610289366004611be6565b61089f565b6101ce61029c366004611be6565b6108c9565b6101ce610947565b6101ce6102b7366004611c12565b61095b565b6102167fa49807205ce4d355092ef5a8a18f56e8913cf4a201fbe287825b095693c2177581565b6101ce6102f1366004611c9a565b610aa8565b6033546001600160a01b031661023d565b6101a6610315366004611be6565b610b53565b610216600081565b61032a610b7e565b6040516101b29190611cfe565b6101a6610345366004611d11565b610c57565b60c9546103589061ffff1681565b60405161ffff90911681526020016101b2565b6101ce610379366004611be6565b610ca0565b61039161038c3660046119ed565b610cc5565b6040516101b29493929190611d56565b6101ce6103af366004611d11565b610e0c565b6103c76103c23660046119ed565b61104c565b6040516101b29190611d94565b61032a6103e23660046119ed565b611203565b6101ce6103f5366004611e2e565b6112f2565b6101ce610408366004611e49565b61136b565b60006001600160e01b03198216637965db0b60e01b148061043e57506301ffc9a760e01b6001600160e01b03198316145b92915050565b61044c6114de565b60c9805461ffff191661ffff92909216919091179055565b6060806060600060cc8560405161047b9190611e73565b9081526040519081900360200181209060cc90610499908890611e73565b908152602001604051809103902060010160cc876040516104ba9190611e73565b908152602001604051809103902060030160cc886040516104db9190611e73565b9081526020016040518091039020600401548380546104f990611e8f565b80601f016020809104026020016040519081016040528092919081815260200182805461052590611e8f565b80156105725780601f1061054757610100808354040283529160200191610572565b820191906000526020600020905b81548152906001019060200180831161055557829003601f168201915b5050505050935082805461058590611e8f565b80601f01602080910402602001604051908101604052809291908181526020018280546105b190611e8f565b80156105fe5780601f106105d3576101008083540402835291602001916105fe565b820191906000526020600020905b8154815290600101906020018083116105e157829003601f168201915b5050505050925081805480602002602001604051908101604052809291908181526020016000905b828210156106d257838290600052602060002001805461064590611e8f565b80601f016020809104026020016040519081016040528092919081815260200182805461067190611e8f565b80156106be5780601f10610693576101008083540402835291602001916106be565b820191906000526020600020905b8154815290600101906020018083116106a157829003601f168201915b505050505081526020019060010190610626565b50505050915093509350935093509193509193565b600060cc826040516106f99190611e73565b9081526040519081900360200190206005015460ff1692915050565b61071d6114de565b60cc8460405161072d9190611e73565b9081526040519081900360200190206005015460ff1661078e5760405162461bcd60e51b815260206004820152601760248201527610dbdb5b5d5b9a5d1e48191bd95cdb89dd08195e1a5cdd604a1b60448201526064015b60405180910390fd5b6107988482610c57565b6107f05760405162461bcd60e51b8152602060048201526024808201527f596f7520617265206e6f74206d656d62657220696e207468697320636f6d6d756044820152636e69747960e01b6064820152608401610785565b60408051606081018252848152602081018490526001600160a01b03831681830152905160cd90610822908790611e73565b9081526040516020918190038201902080546001810182556000918252919020825183926003029091019081906108599082611f17565b506020820151600182019061086e9082611f17565b5060409190910151600290910180546001600160a01b0319166001600160a01b039092169190911790555050505050565b6000828152609760205260409020600101546108ba81611538565b6108c48383611542565b505050565b6001600160a01b03811633146109395760405162461bcd60e51b815260206004820152602f60248201527f416363657373436f6e74726f6c3a2063616e206f6e6c792072656e6f756e636560448201526e103937b632b9903337b91039b2b63360891b6064820152608401610785565b61094382826115c8565b5050565b61094f6114de565b610959600061162f565b565b6109636114de565b60cc836040516109739190611e73565b9081526040519081900360200190206005015460ff16156109d65760405162461bcd60e51b815260206004820152601c60248201527f436f6d6d756e69747920697320616c72656164792063726561746564000000006044820152606401610785565b60ca80546001810182556000919091527f42d72674974f694b5f5159593243114d38a5c39c89d6b62fee061ff523240ee101610a128482611f17565b508160cc84604051610a249190611e73565b90815260405190819003602001902090610a3e9082611f17565b50600160cc84604051610a519190611e73565b908152604051908190036020018120600501805492151560ff1990931692909217909155819060cc90610a85908690611e73565b90815260200160405180910390206001019081610aa29190611f17565b50505050565b610ad27fa49807205ce4d355092ef5a8a18f56e8913cf4a201fbe287825b095693c2177533610b53565b610b155760405162461bcd60e51b81526020600482015260146024820152734d75737420686176652061646d696e20726f6c6560601b6044820152606401610785565b60cc82604051610b259190611e73565b9081526040516020918190038201902060030180546001810182556000918252919020016108c48282611f17565b60009182526097602090815260408084206001600160a01b0393909316845291905290205460ff1690565b606060ca805480602002602001604051908101604052809291908181526020016000905b82821015610c4e578382906000526020600020018054610bc190611e8f565b80601f0160208091040260200160405190810160405280929190818152602001828054610bed90611e8f565b8015610c3a5780601f10610c0f57610100808354040283529160200191610c3a565b820191906000526020600020905b815481529060010190602001808311610c1d57829003601f168201915b505050505081526020019060010190610ba2565b50505050905090565b600060cc83604051610c699190611e73565b90815260408051602092819003830190206001600160a01b0394909416600090815260029094019091529091205460ff1692915050565b600082815260976020526040902060010154610cbb81611538565b6108c483836115c8565b805160208183018101805160cc82529282019190930120915280548190610ceb90611e8f565b80601f0160208091040260200160405190810160405280929190818152602001828054610d1790611e8f565b8015610d645780601f10610d3957610100808354040283529160200191610d64565b820191906000526020600020905b815481529060010190602001808311610d4757829003601f168201915b505050505090806001018054610d7990611e8f565b80601f0160208091040260200160405190810160405280929190818152602001828054610da590611e8f565b8015610df25780601f10610dc757610100808354040283529160200191610df2565b820191906000526020600020905b815481529060010190602001808311610dd557829003601f168201915b50505050600483015460059093015491929160ff16905084565b610e146114de565b60cc82604051610e249190611e73565b9081526040519081900360200190206005015460ff16610e805760405162461bcd60e51b815260206004820152601760248201527610dbdb5b5d5b9a5d1e48191bd95cdb89dd08195e1a5cdd604a1b6044820152606401610785565b60cc82604051610e909190611e73565b90815260408051602092819003830190206001600160a01b0384166000908152600290910190925290205460ff1615610f0b5760405162461bcd60e51b815260206004820152601d60248201527f416c72656164792061206d656d626572206f6620636f6d6d756e6974790000006044820152606401610785565b60c95460cb5460405163ee204abb60e01b81526001600160a01b03848116600483015261ffff909316929091169063ee204abb90602401602060405180830381865afa158015610f5f573d6000803e3d6000fd5b505050506040513d601f19601f82011682018060405250810190610f839190611fd7565b11610fc65760405162461bcd60e51b8152602060048201526013602482015272496e73756666696369656e7420706f696e747360681b6044820152606401610785565b600160cc83604051610fd89190611e73565b90815260408051602092819003830181206001600160a01b038616600090815260029091019093529120805460ff19169215159290921790915560019060cc90611023908590611e73565b908152602001604051809103902060040160008282546110439190612006565b90915550505050565b606060cd8260405161105e9190611e73565b9081526020016040518091039020805480602002602001604051908101604052809291908181526020016000905b828210156111f857838290600052602060002090600302016040518060600160405290816000820180546110bf90611e8f565b80601f01602080910402602001604051908101604052809291908181526020018280546110eb90611e8f565b80156111385780601f1061110d57610100808354040283529160200191611138565b820191906000526020600020905b81548152906001019060200180831161111b57829003601f168201915b5050505050815260200160018201805461115190611e8f565b80601f016020809104026020016040519081016040528092919081815260200182805461117d90611e8f565b80156111ca5780601f1061119f576101008083540402835291602001916111ca565b820191906000526020600020905b8154815290600101906020018083116111ad57829003601f168201915b5050509183525050600291909101546001600160a01b0316602091820152908252600192909201910161108c565b505050509050919050565b606060cc826040516112159190611e73565b9081526020016040518091039020600301805480602002602001604051908101604052809291908181526020016000905b828210156111f857838290600052602060002001805461126590611e8f565b80601f016020809104026020016040519081016040528092919081815260200182805461129190611e8f565b80156112de5780601f106112b3576101008083540402835291602001916112de565b820191906000526020600020905b8154815290600101906020018083116112c157829003601f168201915b505050505081526020019060010190611246565b6112fa6114de565b6001600160a01b03811661135f5760405162461bcd60e51b815260206004820152602660248201527f4f776e61626c653a206e6577206f776e657220697320746865207a65726f206160448201526564647265737360d01b6064820152608401610785565b6113688161162f565b50565b600054610100900460ff161580801561138b5750600054600160ff909116105b806113a55750303b1580156113a5575060005460ff166001145b6114085760405162461bcd60e51b815260206004820152602e60248201527f496e697469616c697a61626c653a20636f6e747261637420697320616c72656160448201526d191e481a5b9a5d1a585b1a5e995960921b6064820152608401610785565b6000805460ff19166001179055801561142b576000805461ff0019166101001790555b611433611681565b61145d7fa49807205ce4d355092ef5a8a18f56e8913cf4a201fbe287825b095693c2177533611542565b611468600033611542565b60c9805461ffff191661ffff841617905560cb80546001600160a01b0319166001600160a01b03851617905580156108c4576000805461ff0019169055604051600181527f7f26b83ff96e1f2b6a682f133852f6798a09c465da95921460cefb38474024989060200160405180910390a1505050565b6033546001600160a01b031633146109595760405162461bcd60e51b815260206004820181905260248201527f4f776e61626c653a2063616c6c6572206973206e6f7420746865206f776e65726044820152606401610785565b61136881336116b0565b61154c8282610b53565b6109435760008281526097602090815260408083206001600160a01b03851684529091529020805460ff191660011790556115843390565b6001600160a01b0316816001600160a01b0316837f2f8788117e7eff1d82e926ec794901d17c78024a50270940304540a733656f0d60405160405180910390a45050565b6115d28282610b53565b156109435760008281526097602090815260408083206001600160a01b0385168085529252808320805460ff1916905551339285917ff6391f5c32d9c69d2a47ea670b442974b53935d1edc7fd64eb21e047a839171b9190a45050565b603380546001600160a01b038381166001600160a01b0319831681179093556040519116919082907f8be0079c531659141344cd1fd0a4f28419497f9722a3daafe3b4186f6b6457e090600090a35050565b600054610100900460ff166116a85760405162461bcd60e51b815260040161078590612019565b610959611709565b6116ba8282610b53565b610943576116c781611739565b6116d283602061174b565b6040516020016116e3929190612064565b60408051601f198184030181529082905262461bcd60e51b8252610785916004016120d9565b600054610100900460ff166117305760405162461bcd60e51b815260040161078590612019565b6109593361162f565b606061043e6001600160a01b03831660145b6060600061175a8360026120ec565b611765906002612006565b67ffffffffffffffff81111561177d5761177d61194a565b6040519080825280601f01601f1916602001820160405280156117a7576020820181803683370190505b509050600360fc1b816000815181106117c2576117c2612103565b60200101906001600160f81b031916908160001a905350600f60fb1b816001815181106117f1576117f1612103565b60200101906001600160f81b031916908160001a90535060006118158460026120ec565b611820906001612006565b90505b6001811115611898576f181899199a1a9b1b9c1cb0b131b232b360811b85600f166010811061185457611854612103565b1a60f81b82828151811061186a5761186a612103565b60200101906001600160f81b031916908160001a90535060049490941c9361189181612119565b9050611823565b5083156118e75760405162461bcd60e51b815260206004820181905260248201527f537472696e67733a20686578206c656e67746820696e73756666696369656e746044820152606401610785565b9392505050565b60006020828403121561190057600080fd5b81356001600160e01b0319811681146118e757600080fd5b803561ffff8116811461192a57600080fd5b919050565b60006020828403121561194157600080fd5b6118e782611918565b634e487b7160e01b600052604160045260246000fd5b600082601f83011261197157600080fd5b813567ffffffffffffffff8082111561198c5761198c61194a565b604051601f8301601f19908116603f011681019082821181831017156119b4576119b461194a565b816040528381528660208588010111156119cd57600080fd5b836020870160208301376000602085830101528094505050505092915050565b6000602082840312156119ff57600080fd5b813567ffffffffffffffff811115611a1657600080fd5b611a2284828501611960565b949350505050565b60005b83811015611a45578181015183820152602001611a2d565b50506000910152565b60008151808452611a66816020860160208601611a2a565b601f01601f19169290920160200192915050565b600082825180855260208086019550808260051b84010181860160005b84811015611ac557601f19868403018952611ab3838351611a4e565b98840198925090830190600101611a97565b5090979650505050505050565b608081526000611ae56080830187611a4e565b8281036020840152611af78187611a4e565b90508281036040840152611b0b8186611a7a565b91505082606083015295945050505050565b600060208284031215611b2f57600080fd5b5035919050565b80356001600160a01b038116811461192a57600080fd5b60008060008060808587031215611b6357600080fd5b843567ffffffffffffffff80821115611b7b57600080fd5b611b8788838901611960565b95506020870135915080821115611b9d57600080fd5b611ba988838901611960565b94506040870135915080821115611bbf57600080fd5b50611bcc87828801611960565b925050611bdb60608601611b36565b905092959194509250565b60008060408385031215611bf957600080fd5b82359150611c0960208401611b36565b90509250929050565b600080600060608486031215611c2757600080fd5b833567ffffffffffffffff80821115611c3f57600080fd5b611c4b87838801611960565b94506020860135915080821115611c6157600080fd5b611c6d87838801611960565b93506040860135915080821115611c8357600080fd5b50611c9086828701611960565b9150509250925092565b60008060408385031215611cad57600080fd5b823567ffffffffffffffff80821115611cc557600080fd5b611cd186838701611960565b93506020850135915080821115611ce757600080fd5b50611cf485828601611960565b9150509250929050565b6020815260006118e76020830184611a7a565b60008060408385031215611d2457600080fd5b823567ffffffffffffffff811115611d3b57600080fd5b611d4785828601611960565b925050611c0960208401611b36565b608081526000611d696080830187611a4e565b8281036020840152611d7b8187611a4e565b6040840195909552505090151560609091015292915050565b60006020808301818452808551808352604092508286019150828160051b87010184880160005b83811015611e2057603f19898403018552815160608151818652611de182870182611a4e565b915050888201518582038a870152611df98282611a4e565b928901516001600160a01b0316958901959095525094870194925090860190600101611dbb565b509098975050505050505050565b600060208284031215611e4057600080fd5b6118e782611b36565b60008060408385031215611e5c57600080fd5b611e6583611b36565b9150611c0960208401611918565b60008251611e85818460208701611a2a565b9190910192915050565b600181811c90821680611ea357607f821691505b602082108103611ec357634e487b7160e01b600052602260045260246000fd5b50919050565b601f8211156108c457600081815260208120601f850160051c81016020861015611ef05750805b601f850160051c820191505b81811015611f0f57828155600101611efc565b505050505050565b815167ffffffffffffffff811115611f3157611f3161194a565b611f4581611f3f8454611e8f565b84611ec9565b602080601f831160018114611f7a5760008415611f625750858301515b600019600386901b1c1916600185901b178555611f0f565b600085815260208120601f198616915b82811015611fa957888601518255948401946001909101908401611f8a565b5085821015611fc75787850151600019600388901b60f8161c191681555b5050505050600190811b01905550565b600060208284031215611fe957600080fd5b5051919050565b634e487b7160e01b600052601160045260246000fd5b8082018082111561043e5761043e611ff0565b6020808252602b908201527f496e697469616c697a61626c653a20636f6e7472616374206973206e6f74206960408201526a6e697469616c697a696e6760a81b606082015260800190565b7f416363657373436f6e74726f6c3a206163636f756e742000000000000000000081526000835161209c816017850160208801611a2a565b7001034b99036b4b9b9b4b733903937b6329607d1b60179184019182015283516120cd816028840160208801611a2a565b01602801949350505050565b6020815260006118e76020830184611a4e565b808202811582820484141761043e5761043e611ff0565b634e487b7160e01b600052603260045260246000fd5b60008161212857612128611ff0565b50600019019056fea264697066735822122005b774619621bce2d2c610e3e6d759a4d07abf867260781a66838cc799571f7964736f6c63430008110033",
  "linkReferences": {},
  "deployedLinkReferences": {}
}