{
  "_format": "hh-sol-artifact-1",
  "contractName": "WowTPoints",
  "sourceName": "contracts/wowTPoints.sol",
  "abi": [
    {
      "anonymous": false,
      "inputs": [
        {
          "indexed": false,
          "internalType": "uint8",
          "name": "version",
          "type": "uint8"
        }
      ],
      "name": "Initialized",
      "type": "event"
    },
    {
      "anonymous": false,
      "inputs": [
        {
          "indexed": true,
          "internalType": "address",
          "name": "previousOwner",
          "type": "address"
        },
        {
          "indexed": true,
          "internalType": "address",
          "name": "newOwner",
          "type": "address"
        }
      ],
      "name": "OwnershipTransferred",
      "type": "event"
    },
    {
      "anonymous": false,
      "inputs": [
        {
          "indexed": true,
          "internalType": "bytes32",
          "name": "role",
          "type": "bytes32"
        },
        {
          "indexed": true,
          "internalType": "bytes32",
          "name": "previousAdminRole",
          "type": "bytes32"
        },
        {
          "indexed": true,
          "internalType": "bytes32",
          "name": "newAdminRole",
          "type": "bytes32"
        }
      ],
      "name": "RoleAdminChanged",
      "type": "event"
    },
    {
      "anonymous": false,
      "inputs": [
        {
          "indexed": true,
          "internalType": "bytes32",
          "name": "role",
          "type": "bytes32"
        },
        {
          "indexed": true,
          "internalType": "address",
          "name": "account",
          "type": "address"
        },
        {
          "indexed": true,
          "internalType": "address",
          "name": "sender",
          "type": "address"
        }
      ],
      "name": "RoleGranted",
      "type": "event"
    },
    {
      "anonymous": false,
      "inputs": [
        {
          "indexed": true,
          "internalType": "bytes32",
          "name": "role",
          "type": "bytes32"
        },
        {
          "indexed": true,
          "internalType": "address",
          "name": "account",
          "type": "address"
        },
        {
          "indexed": true,
          "internalType": "address",
          "name": "sender",
          "type": "address"
        }
      ],
      "name": "RoleRevoked",
      "type": "event"
    },
    {
      "inputs": [],
      "name": "ADMIN_ROLE",
      "outputs": [
        {
          "internalType": "bytes32",
          "name": "",
          "type": "bytes32"
        }
      ],
      "stateMutability": "view",
      "type": "function"
    },
    {
      "inputs": [],
      "name": "DEFAULT_ADMIN_ROLE",
      "outputs": [
        {
          "internalType": "bytes32",
          "name": "",
          "type": "bytes32"
        }
      ],
      "stateMutability": "view",
      "type": "function"
    },
    {
      "inputs": [],
      "name": "activeUserPoints",
      "outputs": [
        {
          "internalType": "uint16",
          "name": "",
          "type": "uint16"
        }
      ],
      "stateMutability": "view",
      "type": "function"
    },
    {
      "inputs": [
        {
          "internalType": "address",
          "name": "account",
          "type": "address"
        }
      ],
      "name": "addActiveUserPoints",
      "outputs": [],
      "stateMutability": "nonpayable",
      "type": "function"
    },
    {
      "inputs": [
        {
          "internalType": "address",
          "name": "account",
          "type": "address"
        },
        {
          "internalType": "uint256",
          "name": "_points",
          "type": "uint256"
        }
      ],
      "name": "addPoints",
      "outputs": [],
      "stateMutability": "nonpayable",
      "type": "function"
    },
    {
      "inputs": [],
      "name": "getLeaderBoard",
      "outputs": [
        {
          "internalType": "address",
          "name": "",
          "type": "address"
        }
      ],
      "stateMutability": "view",
      "type": "function"
    },
    {
      "inputs": [
        {
          "internalType": "address",
          "name": "account",
          "type": "address"
        }
      ],
      "name": "getPoints",
      "outputs": [
        {
          "internalType": "uint256",
          "name": "",
          "type": "uint256"
        }
      ],
      "stateMutability": "view",
      "type": "function"
    },
    {
      "inputs": [
        {
          "internalType": "address",
          "name": "account",
          "type": "address"
        }
      ],
      "name": "getReferralPoints",
      "outputs": [
        {
          "internalType": "uint256",
          "name": "",
          "type": "uint256"
        }
      ],
      "stateMutability": "view",
      "type": "function"
    },
    {
      "inputs": [
        {
          "internalType": "bytes32",
          "name": "role",
          "type": "bytes32"
        }
      ],
      "name": "getRoleAdmin",
      "outputs": [
        {
          "internalType": "bytes32",
          "name": "",
          "type": "bytes32"
        }
      ],
      "stateMutability": "view",
      "type": "function"
    },
    {
      "inputs": [],
      "name": "getTopLeaderBoards",
      "outputs": [
        {
          "internalType": "address[10]",
          "name": "",
          "type": "address[10]"
        }
      ],
      "stateMutability": "view",
      "type": "function"
    },
    {
      "inputs": [
        {
          "internalType": "bytes32",
          "name": "role",
          "type": "bytes32"
        },
        {
          "internalType": "address",
          "name": "account",
          "type": "address"
        }
      ],
      "name": "grantRole",
      "outputs": [],
      "stateMutability": "nonpayable",
      "type": "function"
    },
    {
      "inputs": [
        {
          "internalType": "bytes32",
          "name": "role",
          "type": "bytes32"
        },
        {
          "internalType": "address",
          "name": "account",
          "type": "address"
        }
      ],
      "name": "hasRole",
      "outputs": [
        {
          "internalType": "bool",
          "name": "",
          "type": "bool"
        }
      ],
      "stateMutability": "view",
      "type": "function"
    },
    {
      "inputs": [
        {
          "internalType": "uint16",
          "name": "_levelOnePoints",
          "type": "uint16"
        },
        {
          "internalType": "uint16",
          "name": "_levelTwoPoints",
          "type": "uint16"
        },
        {
          "internalType": "uint16",
          "name": "_activeUserPoints",
          "type": "uint16"
        },
        {
          "internalType": "uint16",
          "name": "_minimumPointsForConvertion",
          "type": "uint16"
        }
      ],
      "name": "initialize",
      "outputs": [],
      "stateMutability": "nonpayable",
      "type": "function"
    },
    {
      "inputs": [],
      "name": "levelOnePoints",
      "outputs": [
        {
          "internalType": "uint16",
          "name": "",
          "type": "uint16"
        }
      ],
      "stateMutability": "view",
      "type": "function"
    },
    {
      "inputs": [],
      "name": "levelTwoPoints",
      "outputs": [
        {
          "internalType": "uint16",
          "name": "",
          "type": "uint16"
        }
      ],
      "stateMutability": "view",
      "type": "function"
    },
    {
      "inputs": [],
      "name": "minimumPointsForConvertion",
      "outputs": [
        {
          "internalType": "uint256",
          "name": "",
          "type": "uint256"
        }
      ],
      "stateMutability": "view",
      "type": "function"
    },
    {
      "inputs": [],
      "name": "owner",
      "outputs": [
        {
          "internalType": "address",
          "name": "",
          "type": "address"
        }
      ],
      "stateMutability": "view",
      "type": "function"
    },
    {
      "inputs": [
        {
          "internalType": "address",
          "name": "account",
          "type": "address"
        },
        {
          "internalType": "uint256",
          "name": "_points",
          "type": "uint256"
        }
      ],
      "name": "reducePoints",
      "outputs": [],
      "stateMutability": "nonpayable",
      "type": "function"
    },
    {
      "inputs": [],
      "name": "renounceOwnership",
      "outputs": [],
      "stateMutability": "nonpayable",
      "type": "function"
    },
    {
      "inputs": [
        {
          "internalType": "bytes32",
          "name": "role",
          "type": "bytes32"
        },
        {
          "internalType": "address",
          "name": "account",
          "type": "address"
        }
      ],
      "name": "renounceRole",
      "outputs": [],
      "stateMutability": "nonpayable",
      "type": "function"
    },
    {
      "inputs": [
        {
          "internalType": "bytes32",
          "name": "role",
          "type": "bytes32"
        },
        {
          "internalType": "address",
          "name": "account",
          "type": "address"
        }
      ],
      "name": "revokeRole",
      "outputs": [],
      "stateMutability": "nonpayable",
      "type": "function"
    },
    {
      "inputs": [
        {
          "internalType": "uint16",
          "name": "newActiveUserPoints",
          "type": "uint16"
        }
      ],
      "name": "setActiveUserPoints",
      "outputs": [],
      "stateMutability": "nonpayable",
      "type": "function"
    },
    {
      "inputs": [
        {
          "internalType": "uint16",
          "name": "newLevelOnePoints",
          "type": "uint16"
        }
      ],
      "name": "setLevelOnePoints",
      "outputs": [],
      "stateMutability": "nonpayable",
      "type": "function"
    },
    {
      "inputs": [
        {
          "internalType": "uint16",
          "name": "newLevelTwoPoints",
          "type": "uint16"
        }
      ],
      "name": "setLevelTwoPoints",
      "outputs": [],
      "stateMutability": "nonpayable",
      "type": "function"
    },
    {
      "inputs": [
        {
          "internalType": "uint16",
          "name": "newMinimumPointsForConvertion",
          "type": "uint16"
        }
      ],
      "name": "setMinimumPointsForConvertion",
      "outputs": [],
      "stateMutability": "nonpayable",
      "type": "function"
    },
    {
      "inputs": [
        {
          "internalType": "bytes4",
          "name": "interfaceId",
          "type": "bytes4"
        }
      ],
      "name": "supportsInterface",
      "outputs": [
        {
          "internalType": "bool",
          "name": "",
          "type": "bool"
        }
      ],
      "stateMutability": "view",
      "type": "function"
    },
    {
      "inputs": [
        {
          "internalType": "uint256",
          "name": "",
          "type": "uint256"
        }
      ],
      "name": "topLeaderBoardAddress",
      "outputs": [
        {
          "internalType": "address",
          "name": "",
          "type": "address"
        }
      ],
      "stateMutability": "view",
      "type": "function"
    },
    {
      "inputs": [
        {
          "internalType": "address",
          "name": "newOwner",
          "type": "address"
        }
      ],
      "name": "transferOwnership",
      "outputs": [],
      "stateMutability": "nonpayable",
      "type": "function"
    },
    {
      "inputs": [
        {
          "internalType": "address",
          "name": "_account",
          "type": "address"
        },
        {
          "internalType": "uint256",
          "name": "_points",
          "type": "uint256"
        }
      ],
      "name": "updateReferralPoints",
      "outputs": [],
      "stateMutability": "nonpayable",
      "type": "function"
    }
  ],
  "bytecode": "0x608060405234801561001057600080fd5b506113e3806100206000396000f3fe608060405234801561001057600080fd5b50600436106101cf5760003560e01c80638da5cb5b11610104578063ce681ac3116100a2578063e3df7d2d11610071578063e3df7d2d14610403578063e545b70e14610416578063ee204abb1461042a578063f2fde38b1461045357600080fd5b8063ce681ac3146103bc578063d547741f146103ca578063d6810280146103dd578063e0758b05146103f057600080fd5b8063a6d0f7c0116100de578063a6d0f7c014610370578063c0f3ccee14610383578063c29d72bc14610396578063c7fbe2aa146103a757600080fd5b80638da5cb5b1461034457806391d1485414610355578063a217fddf1461036857600080fd5b806336568abe11610171578063519247ac1161014b578063519247ac146102f5578063715018a61461031e57806375b238fc14610326578063827d56f51461033b57600080fd5b806336568abe146102a65780633ff4c2de146102b9578063507cd30f146102e257600080fd5b8063248a9ca3116101ad578063248a9ca31461023c5780632f2ff15d1461026d578063330d6f8f14610280578063359efdf21461029357600080fd5b8063016420a0146101d457806301ffc9a7146101e95780630eb527fa14610211575b600080fd5b6101e76101e2366004611029565b610466565b005b6101fc6101f7366004611044565b61048b565b60405190151581526020015b60405180910390f35b61022461021f36600461106e565b6104c2565b6040516001600160a01b039091168152602001610208565b61025f61024a36600461106e565b60009081526097602052604090206001015490565b604051908152602001610208565b6101e761027b366004611087565b6104e2565b6101e761028e3660046110c5565b61050c565b6101e76102a13660046110e0565b61051d565b6101e76102b4366004611087565b61058b565b60c9546102cf90640100000000900461ffff1681565b60405161ffff9091168152602001610208565b6101e76102f03660046110e0565b610609565b61025f610303366004611029565b6001600160a01b0316600090815260d6602052604090205490565b6101e7610688565b61025f60008051602061138e83398151915281565b61025f60ca5481565b6033546001600160a01b0316610224565b6101fc610363366004611087565b61069c565b61025f600081565b6101e761037e3660046110c5565b6106c7565b6101e761039136600461110a565b6106e7565b60cb546001600160a01b0316610224565b6103af61085b565b604051610208919061115e565b60c9546102cf9061ffff1681565b6101e76103d8366004611087565b6108a1565b6101e76103eb3660046110c5565b6108c6565b6101e76103fe3660046110e0565b6108ee565b6101e76104113660046110c5565b6109b8565b60c9546102cf9062010000900461ffff1681565b61025f610438366004611029565b6001600160a01b0316600090815260d5602052604090205490565b6101e7610461366004611029565b6109e4565b61046e610a5a565b60c954610488908290640100000000900461ffff16610609565b50565b60006001600160e01b03198216637965db0b60e01b14806104bc57506301ffc9a760e01b6001600160e01b03198316145b92915050565b60cb81600a81106104d257600080fd5b01546001600160a01b0316905081565b6000828152609760205260409020600101546104fd81610ab4565b6105078383610abe565b505050565b610514610a5a565b61ffff1660ca55565b61053560008051602061138e8339815191523361069c565b61055a5760405162461bcd60e51b815260040161055190611199565b60405180910390fd5b6001600160a01b038216600090815260d66020526040812080548392906105829084906111dd565b90915550505050565b6001600160a01b03811633146105fb5760405162461bcd60e51b815260206004820152602f60248201527f416363657373436f6e74726f6c3a2063616e206f6e6c792072656e6f756e636560448201526e103937b632b9903337b91039b2b63360891b6064820152608401610551565b6106058282610b44565b5050565b61062160008051602061138e8339815191523361069c565b61063d5760405162461bcd60e51b815260040161055190611199565b6001600160a01b038216600090815260d560205260408120546106619083906111dd565b6001600160a01b038416600090815260d56020526040902081905590506105078382610bab565b610690610a5a565b61069a6000610d2f565b565b60009182526097602090815260408084206001600160a01b0393909316845291905290205460ff1690565b6106cf610a5a565b60c9805461ffff191661ffff92909216919091179055565b600054610100900460ff16158080156107075750600054600160ff909116105b806107215750303b158015610721575060005460ff166001145b6107845760405162461bcd60e51b815260206004820152602e60248201527f496e697469616c697a61626c653a20636f6e747261637420697320616c72656160448201526d191e481a5b9a5d1a585b1a5e995960921b6064820152608401610551565b6000805460ff1916600117905580156107a7576000805461ff0019166101001790555b6107af610d81565b6107c760008051602061138e83398151915233610abe565b6107d2600033610abe565b60c9805461ffff87811663ffffffff199092169190911762010000878316021765ffff0000000019166401000000008683160217909155821660ca558015610854576000805461ff0019169055604051600181527f7f26b83ff96e1f2b6a682f133852f6798a09c465da95921460cefb38474024989060200160405180910390a15b5050505050565b610863610fee565b604080516101408101918290529060cb90600a9082845b81546001600160a01b0316815260019091019060200180831161087a575050505050905090565b6000828152609760205260409020600101546108bc81610ab4565b6105078383610b44565b6108ce610a5a565b60c9805461ffff909216620100000263ffff000019909216919091179055565b61090660008051602061138e8339815191523361069c565b6109225760405162461bcd60e51b815260040161055190611199565b600081116109725760405162461bcd60e51b815260206004820181905260248201527f706f696e7473206d7573742062652067726561746572207468616e207a65726f6044820152606401610551565b6001600160a01b038216600090815260d56020526040812054610996908390611206565b90506001600160a01b03909216600090815260d5602052604090209190915550565b6109c0610a5a565b60c9805461ffff9092166401000000000265ffff0000000019909216919091179055565b6109ec610a5a565b6001600160a01b038116610a515760405162461bcd60e51b815260206004820152602660248201527f4f776e61626c653a206e6577206f776e657220697320746865207a65726f206160448201526564647265737360d01b6064820152608401610551565b61048881610d2f565b6033546001600160a01b0316331461069a5760405162461bcd60e51b815260206004820181905260248201527f4f776e61626c653a2063616c6c6572206973206e6f7420746865206f776e65726044820152606401610551565b6104888133610db0565b610ac8828261069c565b6106055760008281526097602090815260408083206001600160a01b03851684529091529020805460ff19166001179055610b003390565b6001600160a01b0316816001600160a01b0316837f2f8788117e7eff1d82e926ec794901d17c78024a50270940304540a733656f0d60405160405180910390a45050565b610b4e828261069c565b156106055760008281526097602090815260408083206001600160a01b0385168085529252808320805460ff1916905551339285917ff6391f5c32d9c69d2a47ea670b442974b53935d1edc7fd64eb21e047a839171b9190a45050565b60005b600a811015610c1957826001600160a01b031660cb82600a8110610bd457610bd46111f0565b01546001600160a01b031603610c075760cb81600a8110610bf757610bf76111f0565b0180546001600160a01b03191690555b80610c1181611219565b915050610bae565b5060005b600a811015610c715781610c5a60cb83600a8110610c3d57610c3d6111f0565b01546001600160a01b0316600090815260d5602052604090205490565b10610c715780610c6981611219565b915050610c1d565b6000610c7f6001600a611206565b90505b81811115610cf65760cb610c97600183611206565b600a8110610ca757610ca76111f0565b01546001600160a01b031660cb82600a8110610cc557610cc56111f0565b0180546001600160a01b0319166001600160a01b039290921691909117905580610cee81611232565b915050610c82565b508260cb82600a8110610d0b57610d0b6111f0565b0180546001600160a01b0319166001600160a01b0392909216919091179055505050565b603380546001600160a01b038381166001600160a01b0319831681179093556040519116919082907f8be0079c531659141344cd1fd0a4f28419497f9722a3daafe3b4186f6b6457e090600090a35050565b600054610100900460ff16610da85760405162461bcd60e51b815260040161055190611249565b61069a610e09565b610dba828261069c565b61060557610dc781610e39565b610dd2836020610e4b565b604051602001610de39291906112b8565b60408051601f198184030181529082905262461bcd60e51b82526105519160040161132d565b600054610100900460ff16610e305760405162461bcd60e51b815260040161055190611249565b61069a33610d2f565b60606104bc6001600160a01b03831660145b60606000610e5a836002611360565b610e659060026111dd565b67ffffffffffffffff811115610e7d57610e7d611377565b6040519080825280601f01601f191660200182016040528015610ea7576020820181803683370190505b509050600360fc1b81600081518110610ec257610ec26111f0565b60200101906001600160f81b031916908160001a905350600f60fb1b81600181518110610ef157610ef16111f0565b60200101906001600160f81b031916908160001a9053506000610f15846002611360565b610f209060016111dd565b90505b6001811115610f98576f181899199a1a9b1b9c1cb0b131b232b360811b85600f1660108110610f5457610f546111f0565b1a60f81b828281518110610f6a57610f6a6111f0565b60200101906001600160f81b031916908160001a90535060049490941c93610f9181611232565b9050610f23565b508315610fe75760405162461bcd60e51b815260206004820181905260248201527f537472696e67733a20686578206c656e67746820696e73756666696369656e746044820152606401610551565b9392505050565b604051806101400160405280600a906020820280368337509192915050565b80356001600160a01b038116811461102457600080fd5b919050565b60006020828403121561103b57600080fd5b610fe78261100d565b60006020828403121561105657600080fd5b81356001600160e01b031981168114610fe757600080fd5b60006020828403121561108057600080fd5b5035919050565b6000806040838503121561109a57600080fd5b823591506110aa6020840161100d565b90509250929050565b803561ffff8116811461102457600080fd5b6000602082840312156110d757600080fd5b610fe7826110b3565b600080604083850312156110f357600080fd5b6110fc8361100d565b946020939093013593505050565b6000806000806080858703121561112057600080fd5b611129856110b3565b9350611137602086016110b3565b9250611145604086016110b3565b9150611153606086016110b3565b905092959194509250565b6101408101818360005b600a8110156111905781516001600160a01b0316835260209283019290910190600101611168565b50505092915050565b6020808252601490820152734d75737420686176652061646d696e20726f6c6560601b604082015260600190565b634e487b7160e01b600052601160045260246000fd5b808201808211156104bc576104bc6111c7565b634e487b7160e01b600052603260045260246000fd5b818103818111156104bc576104bc6111c7565b60006001820161122b5761122b6111c7565b5060010190565b600081611241576112416111c7565b506000190190565b6020808252602b908201527f496e697469616c697a61626c653a20636f6e7472616374206973206e6f74206960408201526a6e697469616c697a696e6760a81b606082015260800190565b60005b838110156112af578181015183820152602001611297565b50506000910152565b7f416363657373436f6e74726f6c3a206163636f756e74200000000000000000008152600083516112f0816017850160208801611294565b7001034b99036b4b9b9b4b733903937b6329607d1b6017918401918201528351611321816028840160208801611294565b01602801949350505050565b602081526000825180602084015261134c816040850160208701611294565b601f01601f19169190910160400192915050565b80820281158282048414176104bc576104bc6111c7565b634e487b7160e01b600052604160045260246000fdfea49807205ce4d355092ef5a8a18f56e8913cf4a201fbe287825b095693c21775a26469706673582212209d0e2d78140231c979090dd4e9b4a38dda19845146fb650aff9b37893352b09c64736f6c63430008110033",
  "linkReferences": {},
  "deployedLinkReferences": {}
}