{
  "_format": "hh-sol-artifact-1",
  "contractName": "WowTCommunity",
  "sourceName": "contracts/wowTCommunity.sol",
  "abi": [
    {
      "anonymous": false,
      "inputs": [
        {
          "indexed": false,
          "internalType": "uint8",
          "name": "version",
          "type": "uint8"
        }
      ],
      "name": "Initialized",
      "type": "event"
    },
    {
      "anonymous": false,
      "inputs": [
        {
          "indexed": true,
          "internalType": "address",
          "name": "previousOwner",
          "type": "address"
        },
        {
          "indexed": true,
          "internalType": "address",
          "name": "newOwner",
          "type": "address"
        }
      ],
      "name": "OwnershipTransferred",
      "type": "event"
    },
    {
      "anonymous": false,
      "inputs": [
        {
          "indexed": true,
          "internalType": "bytes32",
          "name": "role",
          "type": "bytes32"
        },
        {
          "indexed": true,
          "internalType": "bytes32",
          "name": "previousAdminRole",
          "type": "bytes32"
        },
        {
          "indexed": true,
          "internalType": "bytes32",
          "name": "newAdminRole",
          "type": "bytes32"
        }
      ],
      "name": "RoleAdminChanged",
      "type": "event"
    },
    {
      "anonymous": false,
      "inputs": [
        {
          "indexed": true,
          "internalType": "bytes32",
          "name": "role",
          "type": "bytes32"
        },
        {
          "indexed": true,
          "internalType": "address",
          "name": "account",
          "type": "address"
        },
        {
          "indexed": true,
          "internalType": "address",
          "name": "sender",
          "type": "address"
        }
      ],
      "name": "RoleGranted",
      "type": "event"
    },
    {
      "anonymous": false,
      "inputs": [
        {
          "indexed": true,
          "internalType": "bytes32",
          "name": "role",
          "type": "bytes32"
        },
        {
          "indexed": true,
          "internalType": "address",
          "name": "account",
          "type": "address"
        },
        {
          "indexed": true,
          "internalType": "address",
          "name": "sender",
          "type": "address"
        }
      ],
      "name": "RoleRevoked",
      "type": "event"
    },
    {
      "inputs": [],
      "name": "ADMIN_ROLE",
      "outputs": [
        {
          "internalType": "bytes32",
          "name": "",
          "type": "bytes32"
        }
      ],
      "stateMutability": "view",
      "type": "function"
    },
    {
      "inputs": [],
      "name": "DEFAULT_ADMIN_ROLE",
      "outputs": [
        {
          "internalType": "bytes32",
          "name": "",
          "type": "bytes32"
        }
      ],
      "stateMutability": "view",
      "type": "function"
    },
    {
      "inputs": [
        {
          "internalType": "string",
          "name": "_communityName",
          "type": "string"
        },
        {
          "internalType": "address",
          "name": "_communityParticipant",
          "type": "address"
        }
      ],
      "name": "addMembers",
      "outputs": [],
      "stateMutability": "nonpayable",
      "type": "function"
    },
    {
      "inputs": [
        {
          "internalType": "string",
          "name": "_communityName",
          "type": "string"
        }
      ],
      "name": "checkCommunityExists",
      "outputs": [
        {
          "internalType": "bool",
          "name": "",
          "type": "bool"
        }
      ],
      "stateMutability": "view",
      "type": "function"
    },
    {
      "inputs": [
        {
          "internalType": "string",
          "name": "_communityName",
          "type": "string"
        },
        {
          "internalType": "address",
          "name": "_communityParticipant",
          "type": "address"
        }
      ],
      "name": "checkMembership",
      "outputs": [
        {
          "internalType": "bool",
          "name": "",
          "type": "bool"
        }
      ],
      "stateMutability": "view",
      "type": "function"
    },
    {
      "inputs": [
        {
          "internalType": "string",
          "name": "_communityName",
          "type": "string"
        }
      ],
      "name": "checkQuizesforCommunity",
      "outputs": [
        {
          "internalType": "string[]",
          "name": "quizesforCommunity",
          "type": "string[]"
        }
      ],
      "stateMutability": "view",
      "type": "function"
    },
    {
      "inputs": [],
      "name": "communityEntryPoints",
      "outputs": [
        {
          "internalType": "uint16",
          "name": "",
          "type": "uint16"
        }
      ],
      "stateMutability": "view",
      "type": "function"
    },
    {
      "inputs": [
        {
          "internalType": "string",
          "name": "",
          "type": "string"
        }
      ],
      "name": "communityMap",
      "outputs": [
        {
          "internalType": "string",
          "name": "description",
          "type": "string"
        },
        {
          "internalType": "string",
          "name": "imageUrl",
          "type": "string"
        },
        {
          "internalType": "uint256",
          "name": "totalMembers",
          "type": "uint256"
        },
        {
          "internalType": "bool",
          "name": "exists",
          "type": "bool"
        }
      ],
      "stateMutability": "view",
      "type": "function"
    },
    {
      "inputs": [
        {
          "internalType": "string",
          "name": "_communityName",
          "type": "string"
        },
        {
          "internalType": "string",
          "name": "_description",
          "type": "string"
        },
        {
          "internalType": "string",
          "name": "_imageUrl",
          "type": "string"
        }
      ],
      "name": "createCommunity",
      "outputs": [],
      "stateMutability": "nonpayable",
      "type": "function"
    },
    {
      "inputs": [
        {
          "internalType": "string",
          "name": "_communityName",
          "type": "string"
        },
        {
          "internalType": "string",
          "name": "_message",
          "type": "string"
        },
        {
          "internalType": "string",
          "name": "_imageUrl",
          "type": "string"
        },
        {
          "internalType": "address",
          "name": "_createrAddress",
          "type": "address"
        }
      ],
      "name": "createPost",
      "outputs": [],
      "stateMutability": "nonpayable",
      "type": "function"
    },
    {
      "inputs": [],
      "name": "getCommunities",
      "outputs": [
        {
          "internalType": "string[]",
          "name": "",
          "type": "string[]"
        }
      ],
      "stateMutability": "view",
      "type": "function"
    },
    {
      "inputs": [
        {
          "internalType": "string",
          "name": "_communityName",
          "type": "string"
        }
      ],
      "name": "getPosts",
      "outputs": [
        {
          "components": [
            {
              "internalType": "string",
              "name": "message",
              "type": "string"
            },
            {
              "internalType": "string",
              "name": "imageUrl",
              "type": "string"
            },
            {
              "internalType": "address",
              "name": "createrAddress",
              "type": "address"
            }
          ],
          "internalType": "struct WowTCommunity.CommunityPosts[]",
          "name": "",
          "type": "tuple[]"
        }
      ],
      "stateMutability": "view",
      "type": "function"
    },
    {
      "inputs": [
        {
          "internalType": "bytes32",
          "name": "role",
          "type": "bytes32"
        }
      ],
      "name": "getRoleAdmin",
      "outputs": [
        {
          "internalType": "bytes32",
          "name": "",
          "type": "bytes32"
        }
      ],
      "stateMutability": "view",
      "type": "function"
    },
    {
      "inputs": [
        {
          "internalType": "bytes32",
          "name": "role",
          "type": "bytes32"
        },
        {
          "internalType": "address",
          "name": "account",
          "type": "address"
        }
      ],
      "name": "grantRole",
      "outputs": [],
      "stateMutability": "nonpayable",
      "type": "function"
    },
    {
      "inputs": [
        {
          "internalType": "bytes32",
          "name": "role",
          "type": "bytes32"
        },
        {
          "internalType": "address",
          "name": "account",
          "type": "address"
        }
      ],
      "name": "hasRole",
      "outputs": [
        {
          "internalType": "bool",
          "name": "",
          "type": "bool"
        }
      ],
      "stateMutability": "view",
      "type": "function"
    },
    {
      "inputs": [
        {
          "internalType": "address",
          "name": "_pointsContract",
          "type": "address"
        },
        {
          "internalType": "uint16",
          "name": "_communityEntryPoints",
          "type": "uint16"
        }
      ],
      "name": "initialize",
      "outputs": [],
      "stateMutability": "nonpayable",
      "type": "function"
    },
    {
      "inputs": [],
      "name": "owner",
      "outputs": [
        {
          "internalType": "address",
          "name": "",
          "type": "address"
        }
      ],
      "stateMutability": "view",
      "type": "function"
    },
    {
      "inputs": [],
      "name": "pointsContract",
      "outputs": [
        {
          "internalType": "address",
          "name": "",
          "type": "address"
        }
      ],
      "stateMutability": "view",
      "type": "function"
    },
    {
      "inputs": [],
      "name": "renounceOwnership",
      "outputs": [],
      "stateMutability": "nonpayable",
      "type": "function"
    },
    {
      "inputs": [
        {
          "internalType": "bytes32",
          "name": "role",
          "type": "bytes32"
        },
        {
          "internalType": "address",
          "name": "account",
          "type": "address"
        }
      ],
      "name": "renounceRole",
      "outputs": [],
      "stateMutability": "nonpayable",
      "type": "function"
    },
    {
      "inputs": [
        {
          "internalType": "bytes32",
          "name": "role",
          "type": "bytes32"
        },
        {
          "internalType": "address",
          "name": "account",
          "type": "address"
        }
      ],
      "name": "revokeRole",
      "outputs": [],
      "stateMutability": "nonpayable",
      "type": "function"
    },
    {
      "inputs": [
        {
          "internalType": "uint16",
          "name": "_newCommunityEntryPoints",
          "type": "uint16"
        }
      ],
      "name": "setCommunityEntryPoints",
      "outputs": [],
      "stateMutability": "nonpayable",
      "type": "function"
    },
    {
      "inputs": [
        {
          "internalType": "bytes4",
          "name": "interfaceId",
          "type": "bytes4"
        }
      ],
      "name": "supportsInterface",
      "outputs": [
        {
          "internalType": "bool",
          "name": "",
          "type": "bool"
        }
      ],
      "stateMutability": "view",
      "type": "function"
    },
    {
      "inputs": [
        {
          "internalType": "address",
          "name": "newOwner",
          "type": "address"
        }
      ],
      "name": "transferOwnership",
      "outputs": [],
      "stateMutability": "nonpayable",
      "type": "function"
    },
    {
      "inputs": [
        {
          "internalType": "string",
          "name": "_communityName",
          "type": "string"
        },
        {
          "internalType": "string",
          "name": "_quizName",
          "type": "string"
        }
      ],
      "name": "updateCommunityQuizes",
      "outputs": [],
      "stateMutability": "nonpayable",
      "type": "function"
    }
  ],
  "bytecode": "0x608060405234801561001057600080fd5b50611e51806100206000396000f3fe608060405234801561001057600080fd5b50600436106101735760003560e01c80638da5cb5b116100de578063d547741f11610097578063ecf611f811610071578063ecf611f814610376578063edc245a714610396578063f2fde38b146103a9578063f39e69a4146103bc57600080fd5b8063d547741f1461032d578063d622770114610340578063e43220fa1461036357600080fd5b80638da5cb5b146102b857806391d14854146102c9578063a217fddf146102dc578063c251b565146102e4578063c5d72adf146102f9578063c9de26011461030c57600080fd5b80632f2ff15d116101305780632f2ff15d1461023d57806336568abe14610250578063715018a61461026357806375586d4a1461026b57806375b238fc1461027e5780638ad2e40e146102a557600080fd5b806301ffc9a71461017857806307321389146101a0578063248a9ca3146101b55780632b4f8a1f146101e65780632bad9513146102175780632bf070e21461022a575b600080fd5b61018b61018636600461162d565b6103cf565b60405190151581526020015b60405180910390f35b6101b36101ae36600461166e565b610406565b005b6101d86101c3366004611689565b60009081526097602052604090206001015490565b604051908152602001610197565b60c9546101ff906201000090046001600160a01b031681565b6040516001600160a01b039091168152602001610197565b61018b610225366004611745565b610426565b6101b3610238366004611799565b610454565b6101b361024b366004611832565b6105de565b6101b361025e366004611832565b610608565b6101b3610686565b6101b361027936600461185e565b61069a565b6101d87fa49807205ce4d355092ef5a8a18f56e8913cf4a201fbe287825b095693c2177581565b6101b36102b33660046118e6565b6107e7565b6033546001600160a01b03166101ff565b61018b6102d7366004611832565b610892565b6101d8600081565b6102ec6108bd565b604051610197919061199a565b61018b6103073660046119fc565b610996565b60c95461031a9061ffff1681565b60405161ffff9091168152602001610197565b6101b361033b366004611832565b6109df565b61035361034e366004611745565b610a04565b6040516101979493929190611a41565b6101b36103713660046119fc565b610b4b565b610389610384366004611745565b610d8b565b6040516101979190611a7f565b6102ec6103a4366004611745565b610f42565b6101b36103b7366004611b19565b611031565b6101b36103ca366004611b34565b6110aa565b60006001600160e01b03198216637965db0b60e01b148061040057506301ffc9a760e01b6001600160e01b03198316145b92915050565b61040e61121d565b60c9805461ffff191661ffff92909216919091179055565b600060cc826040516104389190611b5e565b9081526040519081900360200190206005015460ff1692915050565b61045c61121d565b60cc8460405161046c9190611b5e565b9081526040519081900360200190206005015460ff166104cd5760405162461bcd60e51b815260206004820152601760248201527610dbdb5b5d5b9a5d1e48191bd95cdb89dd08195e1a5cdd604a1b60448201526064015b60405180910390fd5b6104d78482610996565b61052f5760405162461bcd60e51b8152602060048201526024808201527f596f7520617265206e6f74206d656d62657220696e207468697320636f6d6d756044820152636e69747960e01b60648201526084016104c4565b60408051606081018252848152602081018490526001600160a01b03831681830152905160cd90610561908790611b5e565b9081526040516020918190038201902080546001810182556000918252919020825183926003029091019081906105989082611c02565b50602082015160018201906105ad9082611c02565b5060409190910151600290910180546001600160a01b0319166001600160a01b039092169190911790555050505050565b6000828152609760205260409020600101546105f981611277565b6106038383611281565b505050565b6001600160a01b03811633146106785760405162461bcd60e51b815260206004820152602f60248201527f416363657373436f6e74726f6c3a2063616e206f6e6c792072656e6f756e636560448201526e103937b632b9903337b91039b2b63360891b60648201526084016104c4565b6106828282611307565b5050565b61068e61121d565b610698600061136e565b565b6106a261121d565b60cc836040516106b29190611b5e565b9081526040519081900360200190206005015460ff16156107155760405162461bcd60e51b815260206004820152601c60248201527f436f6d6d756e69747920697320616c726561647920637265617465640000000060448201526064016104c4565b60ca80546001810182556000919091527f42d72674974f694b5f5159593243114d38a5c39c89d6b62fee061ff523240ee1016107518482611c02565b508160cc846040516107639190611b5e565b9081526040519081900360200190209061077d9082611c02565b50600160cc846040516107909190611b5e565b908152604051908190036020018120600501805492151560ff1990931692909217909155819060cc906107c4908690611b5e565b908152602001604051809103902060010190816107e19190611c02565b50505050565b6108117fa49807205ce4d355092ef5a8a18f56e8913cf4a201fbe287825b095693c2177533610892565b6108545760405162461bcd60e51b81526020600482015260146024820152734d75737420686176652061646d696e20726f6c6560601b60448201526064016104c4565b60cc826040516108649190611b5e565b9081526040516020918190038201902060030180546001810182556000918252919020016106038282611c02565b60009182526097602090815260408084206001600160a01b0393909316845291905290205460ff1690565b606060ca805480602002602001604051908101604052809291908181526020016000905b8282101561098d57838290600052602060002001805461090090611b7a565b80601f016020809104026020016040519081016040528092919081815260200182805461092c90611b7a565b80156109795780601f1061094e57610100808354040283529160200191610979565b820191906000526020600020905b81548152906001019060200180831161095c57829003601f168201915b5050505050815260200190600101906108e1565b50505050905090565b600060cc836040516109a89190611b5e565b90815260408051602092819003830190206001600160a01b0394909416600090815260029094019091529091205460ff1692915050565b6000828152609760205260409020600101546109fa81611277565b6106038383611307565b805160208183018101805160cc82529282019190930120915280548190610a2a90611b7a565b80601f0160208091040260200160405190810160405280929190818152602001828054610a5690611b7a565b8015610aa35780601f10610a7857610100808354040283529160200191610aa3565b820191906000526020600020905b815481529060010190602001808311610a8657829003601f168201915b505050505090806001018054610ab890611b7a565b80601f0160208091040260200160405190810160405280929190818152602001828054610ae490611b7a565b8015610b315780601f10610b0657610100808354040283529160200191610b31565b820191906000526020600020905b815481529060010190602001808311610b1457829003601f168201915b50505050600483015460059093015491929160ff16905084565b610b5361121d565b60cc82604051610b639190611b5e565b9081526040519081900360200190206005015460ff16610bbf5760405162461bcd60e51b815260206004820152601760248201527610dbdb5b5d5b9a5d1e48191bd95cdb89dd08195e1a5cdd604a1b60448201526064016104c4565b60cc82604051610bcf9190611b5e565b90815260408051602092819003830190206001600160a01b0384166000908152600290910190925290205460ff1615610c4a5760405162461bcd60e51b815260206004820152601d60248201527f416c72656164792061206d656d626572206f6620636f6d6d756e69747900000060448201526064016104c4565b60c95460cb5460405163ee204abb60e01b81526001600160a01b03848116600483015261ffff909316929091169063ee204abb90602401602060405180830381865afa158015610c9e573d6000803e3d6000fd5b505050506040513d601f19601f82011682018060405250810190610cc29190611cc2565b11610d055760405162461bcd60e51b8152602060048201526013602482015272496e73756666696369656e7420706f696e747360681b60448201526064016104c4565b600160cc83604051610d179190611b5e565b90815260408051602092819003830181206001600160a01b038616600090815260029091019093529120805460ff19169215159290921790915560019060cc90610d62908590611b5e565b90815260200160405180910390206004016000828254610d829190611cf1565b90915550505050565b606060cd82604051610d9d9190611b5e565b9081526020016040518091039020805480602002602001604051908101604052809291908181526020016000905b82821015610f375783829060005260206000209060030201604051806060016040529081600082018054610dfe90611b7a565b80601f0160208091040260200160405190810160405280929190818152602001828054610e2a90611b7a565b8015610e775780601f10610e4c57610100808354040283529160200191610e77565b820191906000526020600020905b815481529060010190602001808311610e5a57829003601f168201915b50505050508152602001600182018054610e9090611b7a565b80601f0160208091040260200160405190810160405280929190818152602001828054610ebc90611b7a565b8015610f095780601f10610ede57610100808354040283529160200191610f09565b820191906000526020600020905b815481529060010190602001808311610eec57829003601f168201915b5050509183525050600291909101546001600160a01b03166020918201529082526001929092019101610dcb565b505050509050919050565b606060cc82604051610f549190611b5e565b9081526020016040518091039020600301805480602002602001604051908101604052809291908181526020016000905b82821015610f37578382906000526020600020018054610fa490611b7a565b80601f0160208091040260200160405190810160405280929190818152602001828054610fd090611b7a565b801561101d5780601f10610ff25761010080835404028352916020019161101d565b820191906000526020600020905b81548152906001019060200180831161100057829003601f168201915b505050505081526020019060010190610f85565b61103961121d565b6001600160a01b03811661109e5760405162461bcd60e51b815260206004820152602660248201527f4f776e61626c653a206e6577206f776e657220697320746865207a65726f206160448201526564647265737360d01b60648201526084016104c4565b6110a78161136e565b50565b600054610100900460ff16158080156110ca5750600054600160ff909116105b806110e45750303b1580156110e4575060005460ff166001145b6111475760405162461bcd60e51b815260206004820152602e60248201527f496e697469616c697a61626c653a20636f6e747261637420697320616c72656160448201526d191e481a5b9a5d1a585b1a5e995960921b60648201526084016104c4565b6000805460ff19166001179055801561116a576000805461ff0019166101001790555b6111726113c0565b61119c7fa49807205ce4d355092ef5a8a18f56e8913cf4a201fbe287825b095693c2177533611281565b6111a7600033611281565b60c9805461ffff191661ffff841617905560cb80546001600160a01b0319166001600160a01b0385161790558015610603576000805461ff0019169055604051600181527f7f26b83ff96e1f2b6a682f133852f6798a09c465da95921460cefb38474024989060200160405180910390a1505050565b6033546001600160a01b031633146106985760405162461bcd60e51b815260206004820181905260248201527f4f776e61626c653a2063616c6c6572206973206e6f7420746865206f776e657260448201526064016104c4565b6110a781336113ef565b61128b8282610892565b6106825760008281526097602090815260408083206001600160a01b03851684529091529020805460ff191660011790556112c33390565b6001600160a01b0316816001600160a01b0316837f2f8788117e7eff1d82e926ec794901d17c78024a50270940304540a733656f0d60405160405180910390a45050565b6113118282610892565b156106825760008281526097602090815260408083206001600160a01b0385168085529252808320805460ff1916905551339285917ff6391f5c32d9c69d2a47ea670b442974b53935d1edc7fd64eb21e047a839171b9190a45050565b603380546001600160a01b038381166001600160a01b0319831681179093556040519116919082907f8be0079c531659141344cd1fd0a4f28419497f9722a3daafe3b4186f6b6457e090600090a35050565b600054610100900460ff166113e75760405162461bcd60e51b81526004016104c490611d04565b610698611448565b6113f98282610892565b6106825761140681611478565b61141183602061148a565b604051602001611422929190611d4f565b60408051601f198184030181529082905262461bcd60e51b82526104c491600401611dc4565b600054610100900460ff1661146f5760405162461bcd60e51b81526004016104c490611d04565b6106983361136e565b60606104006001600160a01b03831660145b60606000611499836002611dd7565b6114a4906002611cf1565b67ffffffffffffffff8111156114bc576114bc6116a2565b6040519080825280601f01601f1916602001820160405280156114e6576020820181803683370190505b509050600360fc1b8160008151811061150157611501611dee565b60200101906001600160f81b031916908160001a905350600f60fb1b8160018151811061153057611530611dee565b60200101906001600160f81b031916908160001a9053506000611554846002611dd7565b61155f906001611cf1565b90505b60018111156115d7576f181899199a1a9b1b9c1cb0b131b232b360811b85600f166010811061159357611593611dee565b1a60f81b8282815181106115a9576115a9611dee565b60200101906001600160f81b031916908160001a90535060049490941c936115d081611e04565b9050611562565b5083156116265760405162461bcd60e51b815260206004820181905260248201527f537472696e67733a20686578206c656e67746820696e73756666696369656e7460448201526064016104c4565b9392505050565b60006020828403121561163f57600080fd5b81356001600160e01b03198116811461162657600080fd5b803561ffff8116811461166957600080fd5b919050565b60006020828403121561168057600080fd5b61162682611657565b60006020828403121561169b57600080fd5b5035919050565b634e487b7160e01b600052604160045260246000fd5b600082601f8301126116c957600080fd5b813567ffffffffffffffff808211156116e4576116e46116a2565b604051601f8301601f19908116603f0116810190828211818310171561170c5761170c6116a2565b8160405283815286602085880101111561172557600080fd5b836020870160208301376000602085830101528094505050505092915050565b60006020828403121561175757600080fd5b813567ffffffffffffffff81111561176e57600080fd5b61177a848285016116b8565b949350505050565b80356001600160a01b038116811461166957600080fd5b600080600080608085870312156117af57600080fd5b843567ffffffffffffffff808211156117c757600080fd5b6117d3888389016116b8565b955060208701359150808211156117e957600080fd5b6117f5888389016116b8565b9450604087013591508082111561180b57600080fd5b50611818878288016116b8565b92505061182760608601611782565b905092959194509250565b6000806040838503121561184557600080fd5b8235915061185560208401611782565b90509250929050565b60008060006060848603121561187357600080fd5b833567ffffffffffffffff8082111561188b57600080fd5b611897878388016116b8565b945060208601359150808211156118ad57600080fd5b6118b9878388016116b8565b935060408601359150808211156118cf57600080fd5b506118dc868287016116b8565b9150509250925092565b600080604083850312156118f957600080fd5b823567ffffffffffffffff8082111561191157600080fd5b61191d868387016116b8565b9350602085013591508082111561193357600080fd5b50611940858286016116b8565b9150509250929050565b60005b8381101561196557818101518382015260200161194d565b50506000910152565b6000815180845261198681602086016020860161194a565b601f01601f19169290920160200192915050565b6000602080830181845280855180835260408601915060408160051b870101925083870160005b828110156119ef57603f198886030184526119dd85835161196e565b945092850192908501906001016119c1565b5092979650505050505050565b60008060408385031215611a0f57600080fd5b823567ffffffffffffffff811115611a2657600080fd5b611a32858286016116b8565b92505061185560208401611782565b608081526000611a54608083018761196e565b8281036020840152611a66818761196e565b6040840195909552505090151560609091015292915050565b60006020808301818452808551808352604092508286019150828160051b87010184880160005b83811015611b0b57603f19898403018552815160608151818652611acc8287018261196e565b915050888201518582038a870152611ae4828261196e565b928901516001600160a01b0316958901959095525094870194925090860190600101611aa6565b509098975050505050505050565b600060208284031215611b2b57600080fd5b61162682611782565b60008060408385031215611b4757600080fd5b611b5083611782565b915061185560208401611657565b60008251611b7081846020870161194a565b9190910192915050565b600181811c90821680611b8e57607f821691505b602082108103611bae57634e487b7160e01b600052602260045260246000fd5b50919050565b601f82111561060357600081815260208120601f850160051c81016020861015611bdb5750805b601f850160051c820191505b81811015611bfa57828155600101611be7565b505050505050565b815167ffffffffffffffff811115611c1c57611c1c6116a2565b611c3081611c2a8454611b7a565b84611bb4565b602080601f831160018114611c655760008415611c4d5750858301515b600019600386901b1c1916600185901b178555611bfa565b600085815260208120601f198616915b82811015611c9457888601518255948401946001909101908401611c75565b5085821015611cb25787850151600019600388901b60f8161c191681555b5050505050600190811b01905550565b600060208284031215611cd457600080fd5b5051919050565b634e487b7160e01b600052601160045260246000fd5b8082018082111561040057610400611cdb565b6020808252602b908201527f496e697469616c697a61626c653a20636f6e7472616374206973206e6f74206960408201526a6e697469616c697a696e6760a81b606082015260800190565b7f416363657373436f6e74726f6c3a206163636f756e7420000000000000000000815260008351611d8781601785016020880161194a565b7001034b99036b4b9b9b4b733903937b6329607d1b6017918401918201528351611db881602884016020880161194a565b01602801949350505050565b602081526000611626602083018461196e565b808202811582820484141761040057610400611cdb565b634e487b7160e01b600052603260045260246000fd5b600081611e1357611e13611cdb565b50600019019056fea264697066735822122023d4f82f7eaffb5f0536a6007329b6302e2efcc83f23900167f92c95aa34a38b64736f6c63430008110033",
  "linkReferences": {},
  "deployedLinkReferences": {}
}