{
  "_format": "hh-sol-artifact-1",
  "contractName": "WowTBadge",
  "sourceName": "contracts/wowTBadge.sol",
  "abi": [
    {
      "anonymous": false,
      "inputs": [
        {
          "indexed": false,
          "internalType": "uint8",
          "name": "version",
          "type": "uint8"
        }
      ],
      "name": "Initialized",
      "type": "event"
    },
    {
      "anonymous": false,
      "inputs": [
        {
          "indexed": true,
          "internalType": "address",
          "name": "previousOwner",
          "type": "address"
        },
        {
          "indexed": true,
          "internalType": "address",
          "name": "newOwner",
          "type": "address"
        }
      ],
      "name": "OwnershipTransferred",
      "type": "event"
    },
    {
      "inputs": [
        {
          "internalType": "address",
          "name": "account",
          "type": "address"
        }
      ],
      "name": "getBadges",
      "outputs": [
        {
          "components": [
            {
              "internalType": "string",
              "name": "yearWeek",
              "type": "string"
            },
            {
              "internalType": "string",
              "name": "image",
              "type": "string"
            }
          ],
          "internalType": "struct WowTBadge.Badge[]",
          "name": "",
          "type": "tuple[]"
        }
      ],
      "stateMutability": "view",
      "type": "function"
    },
    {
      "inputs": [],
      "name": "imageUri",
      "outputs": [
        {
          "internalType": "string",
          "name": "",
          "type": "string"
        }
      ],
      "stateMutability": "view",
      "type": "function"
    },
    {
      "inputs": [
        {
          "internalType": "string",
          "name": "_imageUri",
          "type": "string"
        },
        {
          "internalType": "address",
          "name": "_pointsContract",
          "type": "address"
        }
      ],
      "name": "initialize",
      "outputs": [],
      "stateMutability": "nonpayable",
      "type": "function"
    },
    {
      "inputs": [],
      "name": "owner",
      "outputs": [
        {
          "internalType": "address",
          "name": "",
          "type": "address"
        }
      ],
      "stateMutability": "view",
      "type": "function"
    },
    {
      "inputs": [],
      "name": "renounceOwnership",
      "outputs": [],
      "stateMutability": "nonpayable",
      "type": "function"
    },
    {
      "inputs": [
        {
          "internalType": "string",
          "name": "_imageUrl",
          "type": "string"
        }
      ],
      "name": "setImageUri",
      "outputs": [],
      "stateMutability": "nonpayable",
      "type": "function"
    },
    {
      "inputs": [
        {
          "internalType": "address",
          "name": "newOwner",
          "type": "address"
        }
      ],
      "name": "transferOwnership",
      "outputs": [],
      "stateMutability": "nonpayable",
      "type": "function"
    },
    {
      "inputs": [
        {
          "internalType": "string",
          "name": "yearWeek",
          "type": "string"
        }
      ],
      "name": "updateBadgeForWeek",
      "outputs": [],
      "stateMutability": "nonpayable",
      "type": "function"
    }
  ],
  "bytecode": "0x608060405234801561001057600080fd5b50610bfd806100206000396000f3fe608060405234801561001057600080fd5b50600436106100885760003560e01c8063829d72f91161005b578063829d72f9146100e85780638da5cb5b146100fb578063d9e5ea4d14610116578063f2fde38b1461012957600080fd5b806303828e451461008d5780630bf82da4146100b6578063715018a6146100cb5780637ab4339d146100d5575b600080fd5b6100a061009b3660046107eb565b61013c565b6040516100ad9190610855565b60405180910390f35b6100be6102d5565b6040516100ad91906108da565b6100d3610363565b005b6100d36100e3366004610990565b610377565b6100d36100f63660046109e2565b6104c7565b6033546040516001600160a01b0390911681526020016100ad565b6100d36101243660046109e2565b61063f565b6100d36101373660046107eb565b610657565b6001600160a01b0381166000908152606860209081526040808320805482518185028101850190935280835260609492939192909184015b828210156102ca57838290600052602060002090600202016040518060400160405290816000820180546101a790610a1f565b80601f01602080910402602001604051908101604052809291908181526020018280546101d390610a1f565b80156102205780601f106101f557610100808354040283529160200191610220565b820191906000526020600020905b81548152906001019060200180831161020357829003601f168201915b5050505050815260200160018201805461023990610a1f565b80601f016020809104026020016040519081016040528092919081815260200182805461026590610a1f565b80156102b25780601f10610287576101008083540402835291602001916102b2565b820191906000526020600020905b81548152906001019060200180831161029557829003601f168201915b50505050508152505081526020019060010190610174565b505050509050919050565b606580546102e290610a1f565b80601f016020809104026020016040519081016040528092919081815260200182805461030e90610a1f565b801561035b5780601f106103305761010080835404028352916020019161035b565b820191906000526020600020905b81548152906001019060200180831161033e57829003601f168201915b505050505081565b61036b6106d0565b610375600061072a565b565b600054610100900460ff16158080156103975750600054600160ff909116105b806103b15750303b1580156103b1575060005460ff166001145b6104195760405162461bcd60e51b815260206004820152602e60248201527f496e697469616c697a61626c653a20636f6e747261637420697320616c72656160448201526d191e481a5b9a5d1a585b1a5e995960921b60648201526084015b60405180910390fd5b6000805460ff19166001179055801561043c576000805461ff0019166101001790555b61044461077c565b60656104508482610a9f565b50606680546001600160a01b0384166001600160a01b0319918216811790925560678054909116909117905580156104c2576000805461ff0019169055604051600181527f7f26b83ff96e1f2b6a682f133852f6798a09c465da95921460cefb38474024989060200160405180910390a15b505050565b6104cf6106d0565b606754604080516330a75caf60e21b815290516000926001600160a01b03169163c29d72bc9160048083019260209291908290030181865afa158015610519573d6000803e3d6000fd5b505050506040513d601f19601f8201168201806040525081019061053d9190610b5f565b9050600060405180604001604052808481526020016065805461055f90610a1f565b80601f016020809104026020016040519081016040528092919081815260200182805461058b90610a1f565b80156105d85780601f106105ad576101008083540402835291602001916105d8565b820191906000526020600020905b8154815290600101906020018083116105bb57829003601f168201915b5050509190925250506001600160a01b0383166000908152606860209081526040822080546001810182559083529120825192935083926002909202019081906106229082610a9f565b50602082015160018201906106379082610a9f565b505050505050565b6106476106d0565b60656106538282610a9f565b5050565b61065f6106d0565b6001600160a01b0381166106c45760405162461bcd60e51b815260206004820152602660248201527f4f776e61626c653a206e6577206f776e657220697320746865207a65726f206160448201526564647265737360d01b6064820152608401610410565b6106cd8161072a565b50565b6033546001600160a01b031633146103755760405162461bcd60e51b815260206004820181905260248201527f4f776e61626c653a2063616c6c6572206973206e6f7420746865206f776e65726044820152606401610410565b603380546001600160a01b038381166001600160a01b0319831681179093556040519116919082907f8be0079c531659141344cd1fd0a4f28419497f9722a3daafe3b4186f6b6457e090600090a35050565b600054610100900460ff166107a35760405162461bcd60e51b815260040161041090610b7c565b610375600054610100900460ff166107cd5760405162461bcd60e51b815260040161041090610b7c565b6103753361072a565b6001600160a01b03811681146106cd57600080fd5b6000602082840312156107fd57600080fd5b8135610808816107d6565b9392505050565b6000815180845260005b8181101561083557602081850181015186830182015201610819565b506000602082860101526020601f19601f83011685010191505092915050565b60006020808301818452808551808352604092508286019150828160051b87010184880160005b838110156108cc57888303603f19018552815180518785526108a08886018261080f565b91890151858303868b01529190506108b8818361080f565b96890196945050509086019060010161087c565b509098975050505050505050565b602081526000610808602083018461080f565b634e487b7160e01b600052604160045260246000fd5b600082601f83011261091457600080fd5b813567ffffffffffffffff8082111561092f5761092f6108ed565b604051601f8301601f19908116603f01168101908282118183101715610957576109576108ed565b8160405283815286602085880101111561097057600080fd5b836020870160208301376000602085830101528094505050505092915050565b600080604083850312156109a357600080fd5b823567ffffffffffffffff8111156109ba57600080fd5b6109c685828601610903565b92505060208301356109d7816107d6565b809150509250929050565b6000602082840312156109f457600080fd5b813567ffffffffffffffff811115610a0b57600080fd5b610a1784828501610903565b949350505050565b600181811c90821680610a3357607f821691505b602082108103610a5357634e487b7160e01b600052602260045260246000fd5b50919050565b601f8211156104c257600081815260208120601f850160051c81016020861015610a805750805b601f850160051c820191505b8181101561063757828155600101610a8c565b815167ffffffffffffffff811115610ab957610ab96108ed565b610acd81610ac78454610a1f565b84610a59565b602080601f831160018114610b025760008415610aea5750858301515b600019600386901b1c1916600185901b178555610637565b600085815260208120601f198616915b82811015610b3157888601518255948401946001909101908401610b12565b5085821015610b4f5787850151600019600388901b60f8161c191681555b5050505050600190811b01905550565b600060208284031215610b7157600080fd5b8151610808816107d6565b6020808252602b908201527f496e697469616c697a61626c653a20636f6e7472616374206973206e6f74206960408201526a6e697469616c697a696e6760a81b60608201526080019056fea26469706673582212206ac25e40db6d86d67fae32894428a21dd43d2194a93fc3f81a2d73a7df3112d864736f6c63430008110033",
  "linkReferences": {},
  "deployedLinkReferences": {}
}