{
  "_format": "hh-sol-artifact-1",
  "contractName": "WowTBadge",
  "sourceName": "contracts/wowTBadge.sol",
  "abi": [
    {
      "anonymous": false,
      "inputs": [
        {
          "indexed": false,
          "internalType": "uint8",
          "name": "version",
          "type": "uint8"
        }
      ],
      "name": "Initialized",
      "type": "event"
    },
    {
      "anonymous": false,
      "inputs": [
        {
          "indexed": true,
          "internalType": "address",
          "name": "previousOwner",
          "type": "address"
        },
        {
          "indexed": true,
          "internalType": "address",
          "name": "newOwner",
          "type": "address"
        }
      ],
      "name": "OwnershipTransferred",
      "type": "event"
    },
    {
      "inputs": [
        {
          "internalType": "string",
          "name": "",
          "type": "string"
        }
      ],
      "name": "badge",
      "outputs": [
        {
          "internalType": "address",
          "name": "",
          "type": "address"
        }
      ],
      "stateMutability": "view",
      "type": "function"
    },
    {
      "inputs": [],
      "name": "imageUri",
      "outputs": [
        {
          "internalType": "string",
          "name": "",
          "type": "string"
        }
      ],
      "stateMutability": "view",
      "type": "function"
    },
    {
      "inputs": [
        {
          "internalType": "string",
          "name": "_imageUri",
          "type": "string"
        },
        {
          "internalType": "address",
          "name": "_pointsContract",
          "type": "address"
        }
      ],
      "name": "initialize",
      "outputs": [],
      "stateMutability": "nonpayable",
      "type": "function"
    },
    {
      "inputs": [],
      "name": "owner",
      "outputs": [
        {
          "internalType": "address",
          "name": "",
          "type": "address"
        }
      ],
      "stateMutability": "view",
      "type": "function"
    },
    {
      "inputs": [],
      "name": "renounceOwnership",
      "outputs": [],
      "stateMutability": "nonpayable",
      "type": "function"
    },
    {
      "inputs": [
        {
          "internalType": "string",
          "name": "_imageUrl",
          "type": "string"
        }
      ],
      "name": "setImageUri",
      "outputs": [],
      "stateMutability": "nonpayable",
      "type": "function"
    },
    {
      "inputs": [
        {
          "internalType": "address",
          "name": "newOwner",
          "type": "address"
        }
      ],
      "name": "transferOwnership",
      "outputs": [],
      "stateMutability": "nonpayable",
      "type": "function"
    },
    {
      "inputs": [
        {
          "internalType": "string",
          "name": "yearWeek",
          "type": "string"
        }
      ],
      "name": "updateBadgeForWeek",
      "outputs": [],
      "stateMutability": "nonpayable",
      "type": "function"
    }
  ],
  "bytecode": "0x608060405234801561001057600080fd5b50610962806100206000396000f3fe608060405234801561001057600080fd5b50600436106100875760003560e01c8063829d72f91161005b578063829d72f91461010f5780638da5cb5b14610122578063d9e5ea4d14610133578063f2fde38b1461014657600080fd5b8062c33e3c1461008c5780630bf82da4146100dd578063715018a6146100f25780637ab4339d146100fc575b600080fd5b6100c061009a366004610641565b80516020818301810180516068825292820191909301209152546001600160a01b031681565b6040516001600160a01b0390911681526020015b60405180910390f35b6100e5610159565b6040516100d491906106a2565b6100fa6101e7565b005b6100fa61010a3660046106ea565b6101fb565b6100fa61011d366004610641565b61034b565b6033546001600160a01b03166100c0565b6100fa610141366004610641565b610407565b6100fa61015436600461073c565b61041f565b6065805461016690610760565b80601f016020809104026020016040519081016040528092919081815260200182805461019290610760565b80156101df5780601f106101b4576101008083540402835291602001916101df565b820191906000526020600020905b8154815290600101906020018083116101c257829003601f168201915b505050505081565b6101ef610498565b6101f960006104f2565b565b600054610100900460ff161580801561021b5750600054600160ff909116105b806102355750303b158015610235575060005460ff166001145b61029d5760405162461bcd60e51b815260206004820152602e60248201527f496e697469616c697a61626c653a20636f6e747261637420697320616c72656160448201526d191e481a5b9a5d1a585b1a5e995960921b60648201526084015b60405180910390fd5b6000805460ff1916600117905580156102c0576000805461ff0019166101001790555b6102c8610544565b60656102d484826107e8565b50606680546001600160a01b0384166001600160a01b031991821681179092556067805490911690911790558015610346576000805461ff0019169055604051600181527f7f26b83ff96e1f2b6a682f133852f6798a09c465da95921460cefb38474024989060200160405180910390a15b505050565b610353610498565b606754604080516330a75caf60e21b815290516000926001600160a01b03169163c29d72bc9160048083019260209291908290030181865afa15801561039d573d6000803e3d6000fd5b505050506040513d601f19601f820116820180604052508101906103c191906108a8565b9050806068836040516103d491906108c5565b90815260405190819003602001902080546001600160a01b03929092166001600160a01b03199092169190911790555050565b61040f610498565b606561041b82826107e8565b5050565b610427610498565b6001600160a01b03811661048c5760405162461bcd60e51b815260206004820152602660248201527f4f776e61626c653a206e6577206f776e657220697320746865207a65726f206160448201526564647265737360d01b6064820152608401610294565b610495816104f2565b50565b6033546001600160a01b031633146101f95760405162461bcd60e51b815260206004820181905260248201527f4f776e61626c653a2063616c6c6572206973206e6f7420746865206f776e65726044820152606401610294565b603380546001600160a01b038381166001600160a01b0319831681179093556040519116919082907f8be0079c531659141344cd1fd0a4f28419497f9722a3daafe3b4186f6b6457e090600090a35050565b600054610100900460ff1661056b5760405162461bcd60e51b8152600401610294906108e1565b6101f9600054610100900460ff166105955760405162461bcd60e51b8152600401610294906108e1565b6101f9336104f2565b634e487b7160e01b600052604160045260246000fd5b600082601f8301126105c557600080fd5b813567ffffffffffffffff808211156105e0576105e061059e565b604051601f8301601f19908116603f011681019082821181831017156106085761060861059e565b8160405283815286602085880101111561062157600080fd5b836020870160208301376000602085830101528094505050505092915050565b60006020828403121561065357600080fd5b813567ffffffffffffffff81111561066a57600080fd5b610676848285016105b4565b949350505050565b60005b83811015610699578181015183820152602001610681565b50506000910152565b60208152600082518060208401526106c181604085016020870161067e565b601f01601f19169190910160400192915050565b6001600160a01b038116811461049557600080fd5b600080604083850312156106fd57600080fd5b823567ffffffffffffffff81111561071457600080fd5b610720858286016105b4565b9250506020830135610731816106d5565b809150509250929050565b60006020828403121561074e57600080fd5b8135610759816106d5565b9392505050565b600181811c9082168061077457607f821691505b60208210810361079457634e487b7160e01b600052602260045260246000fd5b50919050565b601f82111561034657600081815260208120601f850160051c810160208610156107c15750805b601f850160051c820191505b818110156107e0578281556001016107cd565b505050505050565b815167ffffffffffffffff8111156108025761080261059e565b610816816108108454610760565b8461079a565b602080601f83116001811461084b57600084156108335750858301515b600019600386901b1c1916600185901b1785556107e0565b600085815260208120601f198616915b8281101561087a5788860151825594840194600190910190840161085b565b50858210156108985787850151600019600388901b60f8161c191681555b5050505050600190811b01905550565b6000602082840312156108ba57600080fd5b8151610759816106d5565b600082516108d781846020870161067e565b9190910192915050565b6020808252602b908201527f496e697469616c697a61626c653a20636f6e7472616374206973206e6f74206960408201526a6e697469616c697a696e6760a81b60608201526080019056fea26469706673582212206832a810e4024b25838d0108960accfd656b74aa8464c3250dc4f3e62062e52564736f6c63430008110033",
  "linkReferences": {},
  "deployedLinkReferences": {}
}