{
  "_format": "hh-sol-artifact-1",
  "contractName": "WowTPoints",
  "sourceName": "contracts/wowTPoints.sol",
  "abi": [
    {
      "anonymous": false,
      "inputs": [
        {
          "indexed": false,
          "internalType": "uint8",
          "name": "version",
          "type": "uint8"
        }
      ],
      "name": "Initialized",
      "type": "event"
    },
    {
      "anonymous": false,
      "inputs": [
        {
          "indexed": true,
          "internalType": "address",
          "name": "previousOwner",
          "type": "address"
        },
        {
          "indexed": true,
          "internalType": "address",
          "name": "newOwner",
          "type": "address"
        }
      ],
      "name": "OwnershipTransferred",
      "type": "event"
    },
    {
      "anonymous": false,
      "inputs": [
        {
          "indexed": true,
          "internalType": "bytes32",
          "name": "role",
          "type": "bytes32"
        },
        {
          "indexed": true,
          "internalType": "bytes32",
          "name": "previousAdminRole",
          "type": "bytes32"
        },
        {
          "indexed": true,
          "internalType": "bytes32",
          "name": "newAdminRole",
          "type": "bytes32"
        }
      ],
      "name": "RoleAdminChanged",
      "type": "event"
    },
    {
      "anonymous": false,
      "inputs": [
        {
          "indexed": true,
          "internalType": "bytes32",
          "name": "role",
          "type": "bytes32"
        },
        {
          "indexed": true,
          "internalType": "address",
          "name": "account",
          "type": "address"
        },
        {
          "indexed": true,
          "internalType": "address",
          "name": "sender",
          "type": "address"
        }
      ],
      "name": "RoleGranted",
      "type": "event"
    },
    {
      "anonymous": false,
      "inputs": [
        {
          "indexed": true,
          "internalType": "bytes32",
          "name": "role",
          "type": "bytes32"
        },
        {
          "indexed": true,
          "internalType": "address",
          "name": "account",
          "type": "address"
        },
        {
          "indexed": true,
          "internalType": "address",
          "name": "sender",
          "type": "address"
        }
      ],
      "name": "RoleRevoked",
      "type": "event"
    },
    {
      "inputs": [],
      "name": "ADMIN_ROLE",
      "outputs": [
        {
          "internalType": "bytes32",
          "name": "",
          "type": "bytes32"
        }
      ],
      "stateMutability": "view",
      "type": "function"
    },
    {
      "inputs": [],
      "name": "DEFAULT_ADMIN_ROLE",
      "outputs": [
        {
          "internalType": "bytes32",
          "name": "",
          "type": "bytes32"
        }
      ],
      "stateMutability": "view",
      "type": "function"
    },
    {
      "inputs": [],
      "name": "activeUserPoints",
      "outputs": [
        {
          "internalType": "uint16",
          "name": "",
          "type": "uint16"
        }
      ],
      "stateMutability": "view",
      "type": "function"
    },
    {
      "inputs": [
        {
          "internalType": "address",
          "name": "account",
          "type": "address"
        }
      ],
      "name": "addActiveUserPoints",
      "outputs": [],
      "stateMutability": "nonpayable",
      "type": "function"
    },
    {
      "inputs": [
        {
          "internalType": "address",
          "name": "account",
          "type": "address"
        },
        {
          "internalType": "uint256",
          "name": "_points",
          "type": "uint256"
        }
      ],
      "name": "addPoints",
      "outputs": [],
      "stateMutability": "nonpayable",
      "type": "function"
    },
    {
      "inputs": [],
      "name": "getLeaderBoard",
      "outputs": [
        {
          "internalType": "address",
          "name": "",
          "type": "address"
        }
      ],
      "stateMutability": "view",
      "type": "function"
    },
    {
      "inputs": [
        {
          "internalType": "address",
          "name": "account",
          "type": "address"
        }
      ],
      "name": "getPoints",
      "outputs": [
        {
          "internalType": "uint256",
          "name": "",
          "type": "uint256"
        }
      ],
      "stateMutability": "view",
      "type": "function"
    },
    {
      "inputs": [
        {
          "internalType": "address",
          "name": "account",
          "type": "address"
        }
      ],
      "name": "getReferralPoints",
      "outputs": [
        {
          "internalType": "uint256",
          "name": "",
          "type": "uint256"
        }
      ],
      "stateMutability": "view",
      "type": "function"
    },
    {
      "inputs": [
        {
          "internalType": "bytes32",
          "name": "role",
          "type": "bytes32"
        }
      ],
      "name": "getRoleAdmin",
      "outputs": [
        {
          "internalType": "bytes32",
          "name": "",
          "type": "bytes32"
        }
      ],
      "stateMutability": "view",
      "type": "function"
    },
    {
      "inputs": [],
      "name": "getTopLeaderBoards",
      "outputs": [
        {
          "internalType": "address[10]",
          "name": "",
          "type": "address[10]"
        }
      ],
      "stateMutability": "view",
      "type": "function"
    },
    {
      "inputs": [
        {
          "internalType": "bytes32",
          "name": "role",
          "type": "bytes32"
        },
        {
          "internalType": "address",
          "name": "account",
          "type": "address"
        }
      ],
      "name": "grantRole",
      "outputs": [],
      "stateMutability": "nonpayable",
      "type": "function"
    },
    {
      "inputs": [
        {
          "internalType": "bytes32",
          "name": "role",
          "type": "bytes32"
        },
        {
          "internalType": "address",
          "name": "account",
          "type": "address"
        }
      ],
      "name": "hasRole",
      "outputs": [
        {
          "internalType": "bool",
          "name": "",
          "type": "bool"
        }
      ],
      "stateMutability": "view",
      "type": "function"
    },
    {
      "inputs": [
        {
          "internalType": "uint16",
          "name": "_levelOnePoints",
          "type": "uint16"
        },
        {
          "internalType": "uint16",
          "name": "_levelTwoPoints",
          "type": "uint16"
        },
        {
          "internalType": "uint16",
          "name": "_activeUserPoints",
          "type": "uint16"
        },
        {
          "internalType": "uint16",
          "name": "_minimumPointsForConvertion",
          "type": "uint16"
        }
      ],
      "name": "initialize",
      "outputs": [],
      "stateMutability": "nonpayable",
      "type": "function"
    },
    {
      "inputs": [],
      "name": "levelOnePoints",
      "outputs": [
        {
          "internalType": "uint16",
          "name": "",
          "type": "uint16"
        }
      ],
      "stateMutability": "view",
      "type": "function"
    },
    {
      "inputs": [],
      "name": "levelTwoPoints",
      "outputs": [
        {
          "internalType": "uint16",
          "name": "",
          "type": "uint16"
        }
      ],
      "stateMutability": "view",
      "type": "function"
    },
    {
      "inputs": [],
      "name": "minimumPointsForConvertion",
      "outputs": [
        {
          "internalType": "uint256",
          "name": "",
          "type": "uint256"
        }
      ],
      "stateMutability": "view",
      "type": "function"
    },
    {
      "inputs": [],
      "name": "owner",
      "outputs": [
        {
          "internalType": "address",
          "name": "",
          "type": "address"
        }
      ],
      "stateMutability": "view",
      "type": "function"
    },
    {
      "inputs": [
        {
          "internalType": "address",
          "name": "account",
          "type": "address"
        },
        {
          "internalType": "uint256",
          "name": "_points",
          "type": "uint256"
        }
      ],
      "name": "reducePoints",
      "outputs": [],
      "stateMutability": "nonpayable",
      "type": "function"
    },
    {
      "inputs": [],
      "name": "renounceOwnership",
      "outputs": [],
      "stateMutability": "nonpayable",
      "type": "function"
    },
    {
      "inputs": [
        {
          "internalType": "bytes32",
          "name": "role",
          "type": "bytes32"
        },
        {
          "internalType": "address",
          "name": "account",
          "type": "address"
        }
      ],
      "name": "renounceRole",
      "outputs": [],
      "stateMutability": "nonpayable",
      "type": "function"
    },
    {
      "inputs": [
        {
          "internalType": "bytes32",
          "name": "role",
          "type": "bytes32"
        },
        {
          "internalType": "address",
          "name": "account",
          "type": "address"
        }
      ],
      "name": "revokeRole",
      "outputs": [],
      "stateMutability": "nonpayable",
      "type": "function"
    },
    {
      "inputs": [
        {
          "internalType": "uint16",
          "name": "newActiveUserPoints",
          "type": "uint16"
        }
      ],
      "name": "setActiveUserPoints",
      "outputs": [],
      "stateMutability": "nonpayable",
      "type": "function"
    },
    {
      "inputs": [
        {
          "internalType": "uint16",
          "name": "newLevelOnePoints",
          "type": "uint16"
        }
      ],
      "name": "setLevelOnePoints",
      "outputs": [],
      "stateMutability": "nonpayable",
      "type": "function"
    },
    {
      "inputs": [
        {
          "internalType": "uint16",
          "name": "newLevelTwoPoints",
          "type": "uint16"
        }
      ],
      "name": "setLevelTwoPoints",
      "outputs": [],
      "stateMutability": "nonpayable",
      "type": "function"
    },
    {
      "inputs": [
        {
          "internalType": "uint16",
          "name": "newMinimumPointsForConvertion",
          "type": "uint16"
        }
      ],
      "name": "setMinimumPointsForConvertion",
      "outputs": [],
      "stateMutability": "nonpayable",
      "type": "function"
    },
    {
      "inputs": [
        {
          "internalType": "bytes4",
          "name": "interfaceId",
          "type": "bytes4"
        }
      ],
      "name": "supportsInterface",
      "outputs": [
        {
          "internalType": "bool",
          "name": "",
          "type": "bool"
        }
      ],
      "stateMutability": "view",
      "type": "function"
    },
    {
      "inputs": [
        {
          "internalType": "address",
          "name": "newOwner",
          "type": "address"
        }
      ],
      "name": "transferOwnership",
      "outputs": [],
      "stateMutability": "nonpayable",
      "type": "function"
    },
    {
      "inputs": [
        {
          "internalType": "address",
          "name": "_account",
          "type": "address"
        },
        {
          "internalType": "uint256",
          "name": "_points",
          "type": "uint256"
        }
      ],
      "name": "updateReferralPoints",
      "outputs": [],
      "stateMutability": "nonpayable",
      "type": "function"
    }
  ],
  "bytecode": "0x608060405234801561001057600080fd5b5061131f806100206000396000f3fe608060405234801561001057600080fd5b50600436106101c45760003560e01c806391d14854116100f9578063d547741f11610097578063e3df7d2d11610071578063e3df7d2d146103e1578063e545b70e146103f4578063ee204abb14610408578063f2fde38b1461043157600080fd5b8063d547741f146103a8578063d6810280146103bb578063e0758b05146103ce57600080fd5b8063c0f3ccee116100d3578063c0f3ccee14610361578063c29d72bc14610374578063c7fbe2aa14610385578063ce681ac31461039a57600080fd5b806391d1485414610333578063a217fddf14610346578063a6d0f7c01461034e57600080fd5b80633ff4c2de11610166578063715018a611610140578063715018a6146102e857806375b238fc146102f0578063827d56f5146103055780638da5cb5b1461030e57600080fd5b80633ff4c2de14610283578063507cd30f146102ac578063519247ac146102bf57600080fd5b80632f2ff15d116101a25780632f2ff15d14610237578063330d6f8f1461024a578063359efdf21461025d57806336568abe1461027057600080fd5b8063016420a0146101c957806301ffc9a7146101de578063248a9ca314610206575b600080fd5b6101dc6101d7366004610f65565b610444565b005b6101f16101ec366004610f80565b610469565b60405190151581526020015b60405180910390f35b610229610214366004610faa565b60009081526097602052604090206001015490565b6040519081526020016101fd565b6101dc610245366004610fc3565b6104a0565b6101dc610258366004611001565b6104ca565b6101dc61026b36600461101c565b6104db565b6101dc61027e366004610fc3565b610549565b60c95461029990640100000000900461ffff1681565b60405161ffff90911681526020016101fd565b6101dc6102ba36600461101c565b6105c7565b6102296102cd366004610f65565b6001600160a01b0316600090815260d6602052604090205490565b6101dc610633565b6102296000805160206112ca83398151915281565b61022960ca5481565b6033546001600160a01b03165b6040516001600160a01b0390911681526020016101fd565b6101f1610341366004610fc3565b610647565b610229600081565b6101dc61035c366004611001565b610672565b6101dc61036f366004611046565b610692565b60cb546001600160a01b031661031b565b61038d610806565b6040516101fd919061109a565b60c9546102999061ffff1681565b6101dc6103b6366004610fc3565b61084c565b6101dc6103c9366004611001565b610871565b6101dc6103dc36600461101c565b610899565b6101dc6103ef366004611001565b610963565b60c9546102999062010000900461ffff1681565b610229610416366004610f65565b6001600160a01b0316600090815260d5602052604090205490565b6101dc61043f366004610f65565b61098f565b61044c610a05565b60c954610466908290640100000000900461ffff166105c7565b50565b60006001600160e01b03198216637965db0b60e01b148061049a57506301ffc9a760e01b6001600160e01b03198316145b92915050565b6000828152609760205260409020600101546104bb81610a5f565b6104c58383610a69565b505050565b6104d2610a05565b61ffff1660ca55565b6104f36000805160206112ca83398151915233610647565b6105185760405162461bcd60e51b815260040161050f906110d5565b60405180910390fd5b6001600160a01b038216600090815260d6602052604081208054839290610540908490611119565b90915550505050565b6001600160a01b03811633146105b95760405162461bcd60e51b815260206004820152602f60248201527f416363657373436f6e74726f6c3a2063616e206f6e6c792072656e6f756e636560448201526e103937b632b9903337b91039b2b63360891b606482015260840161050f565b6105c38282610aef565b5050565b6105df6000805160206112ca83398151915233610647565b6105fb5760405162461bcd60e51b815260040161050f906110d5565b6001600160a01b038216600090815260d5602052604081208054839290610623908490611119565b909155506105c390508282610b56565b61063b610a05565b6106456000610c6b565b565b60009182526097602090815260408084206001600160a01b0393909316845291905290205460ff1690565b61067a610a05565b60c9805461ffff191661ffff92909216919091179055565b600054610100900460ff16158080156106b25750600054600160ff909116105b806106cc5750303b1580156106cc575060005460ff166001145b61072f5760405162461bcd60e51b815260206004820152602e60248201527f496e697469616c697a61626c653a20636f6e747261637420697320616c72656160448201526d191e481a5b9a5d1a585b1a5e995960921b606482015260840161050f565b6000805460ff191660011790558015610752576000805461ff0019166101001790555b61075a610cbd565b6107726000805160206112ca83398151915233610a69565b61077d600033610a69565b60c9805461ffff87811663ffffffff199092169190911762010000878316021765ffff0000000019166401000000008683160217909155821660ca5580156107ff576000805461ff0019169055604051600181527f7f26b83ff96e1f2b6a682f133852f6798a09c465da95921460cefb38474024989060200160405180910390a15b5050505050565b61080e610f2a565b604080516101408101918290529060cb90600a9082845b81546001600160a01b03168152600190910190602001808311610825575050505050905090565b60008281526097602052604090206001015461086781610a5f565b6104c58383610aef565b610879610a05565b60c9805461ffff909216620100000263ffff000019909216919091179055565b6108b16000805160206112ca83398151915233610647565b6108cd5760405162461bcd60e51b815260040161050f906110d5565b6000811161091d5760405162461bcd60e51b815260206004820181905260248201527f706f696e7473206d7573742062652067726561746572207468616e207a65726f604482015260640161050f565b6001600160a01b038216600090815260d56020526040812054610941908390611142565b90506001600160a01b03909216600090815260d5602052604090209190915550565b61096b610a05565b60c9805461ffff9092166401000000000265ffff0000000019909216919091179055565b610997610a05565b6001600160a01b0381166109fc5760405162461bcd60e51b815260206004820152602660248201527f4f776e61626c653a206e6577206f776e657220697320746865207a65726f206160448201526564647265737360d01b606482015260840161050f565b61046681610c6b565b6033546001600160a01b031633146106455760405162461bcd60e51b815260206004820181905260248201527f4f776e61626c653a2063616c6c6572206973206e6f7420746865206f776e6572604482015260640161050f565b6104668133610cec565b610a738282610647565b6105c35760008281526097602090815260408083206001600160a01b03851684529091529020805460ff19166001179055610aab3390565b6001600160a01b0316816001600160a01b0316837f2f8788117e7eff1d82e926ec794901d17c78024a50270940304540a733656f0d60405160405180910390a45050565b610af98282610647565b156105c35760008281526097602090815260408083206001600160a01b0385168085529252808320805460ff1916905551339285917ff6391f5c32d9c69d2a47ea670b442974b53935d1edc7fd64eb21e047a839171b9190a45050565b60005b600a811015610bad5781610b9660cb83600a8110610b7957610b7961112c565b01546001600160a01b0316600090815260d5602052604090205490565b10610bad5780610ba581611155565b915050610b59565b6000610bbb6001600a611142565b90505b81811115610c325760cb610bd3600183611142565b600a8110610be357610be361112c565b01546001600160a01b031660cb82600a8110610c0157610c0161112c565b0180546001600160a01b0319166001600160a01b039290921691909117905580610c2a8161116e565b915050610bbe565b508260cb82600a8110610c4757610c4761112c565b0180546001600160a01b0319166001600160a01b0392909216919091179055505050565b603380546001600160a01b038381166001600160a01b0319831681179093556040519116919082907f8be0079c531659141344cd1fd0a4f28419497f9722a3daafe3b4186f6b6457e090600090a35050565b600054610100900460ff16610ce45760405162461bcd60e51b815260040161050f90611185565b610645610d45565b610cf68282610647565b6105c357610d0381610d75565b610d0e836020610d87565b604051602001610d1f9291906111f4565b60408051601f198184030181529082905262461bcd60e51b825261050f91600401611269565b600054610100900460ff16610d6c5760405162461bcd60e51b815260040161050f90611185565b61064533610c6b565b606061049a6001600160a01b03831660145b60606000610d9683600261129c565b610da1906002611119565b67ffffffffffffffff811115610db957610db96112b3565b6040519080825280601f01601f191660200182016040528015610de3576020820181803683370190505b509050600360fc1b81600081518110610dfe57610dfe61112c565b60200101906001600160f81b031916908160001a905350600f60fb1b81600181518110610e2d57610e2d61112c565b60200101906001600160f81b031916908160001a9053506000610e5184600261129c565b610e5c906001611119565b90505b6001811115610ed4576f181899199a1a9b1b9c1cb0b131b232b360811b85600f1660108110610e9057610e9061112c565b1a60f81b828281518110610ea657610ea661112c565b60200101906001600160f81b031916908160001a90535060049490941c93610ecd8161116e565b9050610e5f565b508315610f235760405162461bcd60e51b815260206004820181905260248201527f537472696e67733a20686578206c656e67746820696e73756666696369656e74604482015260640161050f565b9392505050565b604051806101400160405280600a906020820280368337509192915050565b80356001600160a01b0381168114610f6057600080fd5b919050565b600060208284031215610f7757600080fd5b610f2382610f49565b600060208284031215610f9257600080fd5b81356001600160e01b031981168114610f2357600080fd5b600060208284031215610fbc57600080fd5b5035919050565b60008060408385031215610fd657600080fd5b82359150610fe660208401610f49565b90509250929050565b803561ffff81168114610f6057600080fd5b60006020828403121561101357600080fd5b610f2382610fef565b6000806040838503121561102f57600080fd5b61103883610f49565b946020939093013593505050565b6000806000806080858703121561105c57600080fd5b61106585610fef565b935061107360208601610fef565b925061108160408601610fef565b915061108f60608601610fef565b905092959194509250565b6101408101818360005b600a8110156110cc5781516001600160a01b03168352602092830192909101906001016110a4565b50505092915050565b6020808252601490820152734d75737420686176652061646d696e20726f6c6560601b604082015260600190565b634e487b7160e01b600052601160045260246000fd5b8082018082111561049a5761049a611103565b634e487b7160e01b600052603260045260246000fd5b8181038181111561049a5761049a611103565b60006001820161116757611167611103565b5060010190565b60008161117d5761117d611103565b506000190190565b6020808252602b908201527f496e697469616c697a61626c653a20636f6e7472616374206973206e6f74206960408201526a6e697469616c697a696e6760a81b606082015260800190565b60005b838110156111eb5781810151838201526020016111d3565b50506000910152565b7f416363657373436f6e74726f6c3a206163636f756e742000000000000000000081526000835161122c8160178501602088016111d0565b7001034b99036b4b9b9b4b733903937b6329607d1b601791840191820152835161125d8160288401602088016111d0565b01602801949350505050565b60208152600082518060208401526112888160408501602087016111d0565b601f01601f19169190910160400192915050565b808202811582820484141761049a5761049a611103565b634e487b7160e01b600052604160045260246000fdfea49807205ce4d355092ef5a8a18f56e8913cf4a201fbe287825b095693c21775a26469706673582212204c02eba96c416a0006cdbda4a6990297849f385d30dbe2d80a59ea0c5667e7a264736f6c63430008110033",
  "linkReferences": {},
  "deployedLinkReferences": {}
}