{
  "_format": "hh-sol-artifact-1",
  "contractName": "WowTBadge",
  "sourceName": "contracts/wowTBadge.sol",
  "abi": [
    {
      "anonymous": false,
      "inputs": [
        {
          "indexed": false,
          "internalType": "uint8",
          "name": "version",
          "type": "uint8"
        }
      ],
      "name": "Initialized",
      "type": "event"
    },
    {
      "anonymous": false,
      "inputs": [
        {
          "indexed": true,
          "internalType": "address",
          "name": "previousOwner",
          "type": "address"
        },
        {
          "indexed": true,
          "internalType": "address",
          "name": "newOwner",
          "type": "address"
        }
      ],
      "name": "OwnershipTransferred",
      "type": "event"
    },
    {
      "inputs": [],
      "name": "imageUri",
      "outputs": [
        {
          "internalType": "string",
          "name": "",
          "type": "string"
        }
      ],
      "stateMutability": "view",
      "type": "function"
    },
    {
      "inputs": [
        {
          "internalType": "string",
          "name": "_imageUri",
          "type": "string"
        },
        {
          "internalType": "address",
          "name": "_pointsContract",
          "type": "address"
        }
      ],
      "name": "initialize",
      "outputs": [],
      "stateMutability": "nonpayable",
      "type": "function"
    },
    {
      "inputs": [],
      "name": "owner",
      "outputs": [
        {
          "internalType": "address",
          "name": "",
          "type": "address"
        }
      ],
      "stateMutability": "view",
      "type": "function"
    },
    {
      "inputs": [],
      "name": "renounceOwnership",
      "outputs": [],
      "stateMutability": "nonpayable",
      "type": "function"
    },
    {
      "inputs": [
        {
          "internalType": "string",
          "name": "_imageUrl",
          "type": "string"
        }
      ],
      "name": "setImageUri",
      "outputs": [],
      "stateMutability": "nonpayable",
      "type": "function"
    },
    {
      "inputs": [
        {
          "internalType": "address",
          "name": "newOwner",
          "type": "address"
        }
      ],
      "name": "transferOwnership",
      "outputs": [],
      "stateMutability": "nonpayable",
      "type": "function"
    },
    {
      "inputs": [
        {
          "internalType": "string",
          "name": "yearWeek",
          "type": "string"
        }
      ],
      "name": "updateBadgeForWeek",
      "outputs": [],
      "stateMutability": "nonpayable",
      "type": "function"
    }
  ],
  "bytecode": "0x608060405234801561001057600080fd5b506109a9806100206000396000f3fe608060405234801561001057600080fd5b506004361061007d5760003560e01c8063829d72f91161005b578063829d72f9146100bd5780638da5cb5b146100d0578063d9e5ea4d146100eb578063f2fde38b146100fe57600080fd5b80630bf82da414610082578063715018a6146100a05780637ab4339d146100aa575b600080fd5b61008a610111565b6040516100979190610612565b60405180910390f35b6100a861019f565b005b6100a86100b8366004610718565b6101b3565b6100a86100cb36600461076a565b610303565b6033546040516001600160a01b039091168152602001610097565b6100a86100f936600461076a565b61047b565b6100a861010c3660046107a7565b610493565b6065805461011e906107cb565b80601f016020809104026020016040519081016040528092919081815260200182805461014a906107cb565b80156101975780601f1061016c57610100808354040283529160200191610197565b820191906000526020600020905b81548152906001019060200180831161017a57829003601f168201915b505050505081565b6101a761050c565b6101b16000610566565b565b600054610100900460ff16158080156101d35750600054600160ff909116105b806101ed5750303b1580156101ed575060005460ff166001145b6102555760405162461bcd60e51b815260206004820152602e60248201527f496e697469616c697a61626c653a20636f6e747261637420697320616c72656160448201526d191e481a5b9a5d1a585b1a5e995960921b60648201526084015b60405180910390fd5b6000805460ff191660011790558015610278576000805461ff0019166101001790555b6102806105b8565b606561028c848261084b565b50606680546001600160a01b0384166001600160a01b0319918216811790925560678054909116909117905580156102fe576000805461ff0019169055604051600181527f7f26b83ff96e1f2b6a682f133852f6798a09c465da95921460cefb38474024989060200160405180910390a15b505050565b61030b61050c565b606754604080516330a75caf60e21b815290516000926001600160a01b03169163c29d72bc9160048083019260209291908290030181865afa158015610355573d6000803e3d6000fd5b505050506040513d601f19601f82011682018060405250810190610379919061090b565b9050600060405180604001604052808481526020016065805461039b906107cb565b80601f01602080910402602001604051908101604052809291908181526020018280546103c7906107cb565b80156104145780601f106103e957610100808354040283529160200191610414565b820191906000526020600020905b8154815290600101906020018083116103f757829003601f168201915b5050509190925250506001600160a01b03831660009081526068602090815260408220805460018101825590835291208251929350839260029092020190819061045e908261084b565b5060208201516001820190610473908261084b565b505050505050565b61048361050c565b606561048f828261084b565b5050565b61049b61050c565b6001600160a01b0381166105005760405162461bcd60e51b815260206004820152602660248201527f4f776e61626c653a206e6577206f776e657220697320746865207a65726f206160448201526564647265737360d01b606482015260840161024c565b61050981610566565b50565b6033546001600160a01b031633146101b15760405162461bcd60e51b815260206004820181905260248201527f4f776e61626c653a2063616c6c6572206973206e6f7420746865206f776e6572604482015260640161024c565b603380546001600160a01b038381166001600160a01b0319831681179093556040519116919082907f8be0079c531659141344cd1fd0a4f28419497f9722a3daafe3b4186f6b6457e090600090a35050565b600054610100900460ff166105df5760405162461bcd60e51b815260040161024c90610928565b6101b1600054610100900460ff166106095760405162461bcd60e51b815260040161024c90610928565b6101b133610566565b600060208083528351808285015260005b8181101561063f57858101830151858201604001528201610623565b506000604082860101526040601f19601f8301168501019250505092915050565b634e487b7160e01b600052604160045260246000fd5b600082601f83011261068757600080fd5b813567ffffffffffffffff808211156106a2576106a2610660565b604051601f8301601f19908116603f011681019082821181831017156106ca576106ca610660565b816040528381528660208588010111156106e357600080fd5b836020870160208301376000602085830101528094505050505092915050565b6001600160a01b038116811461050957600080fd5b6000806040838503121561072b57600080fd5b823567ffffffffffffffff81111561074257600080fd5b61074e85828601610676565b925050602083013561075f81610703565b809150509250929050565b60006020828403121561077c57600080fd5b813567ffffffffffffffff81111561079357600080fd5b61079f84828501610676565b949350505050565b6000602082840312156107b957600080fd5b81356107c481610703565b9392505050565b600181811c908216806107df57607f821691505b6020821081036107ff57634e487b7160e01b600052602260045260246000fd5b50919050565b601f8211156102fe57600081815260208120601f850160051c8101602086101561082c5750805b601f850160051c820191505b8181101561047357828155600101610838565b815167ffffffffffffffff81111561086557610865610660565b6108798161087384546107cb565b84610805565b602080601f8311600181146108ae57600084156108965750858301515b600019600386901b1c1916600185901b178555610473565b600085815260208120601f198616915b828110156108dd578886015182559484019460019091019084016108be565b50858210156108fb5787850151600019600388901b60f8161c191681555b5050505050600190811b01905550565b60006020828403121561091d57600080fd5b81516107c481610703565b6020808252602b908201527f496e697469616c697a61626c653a20636f6e7472616374206973206e6f74206960408201526a6e697469616c697a696e6760a81b60608201526080019056fea26469706673582212209c9cf907a1b02e9dbe092c81049264893539695e61920e20d3006aa4d1b7d91564736f6c63430008110033",
  "linkReferences": {},
  "deployedLinkReferences": {}
}