{
  "_format": "hh-sol-artifact-1",
  "contractName": "WowTQuiz",
  "sourceName": "contracts/wowTQuiz.sol",
  "abi": [
    {
      "anonymous": false,
      "inputs": [
        {
          "indexed": true,
          "internalType": "bool",
          "name": "",
          "type": "bool"
        }
      ],
      "name": "Answer",
      "type": "event"
    },
    {
      "anonymous": false,
      "inputs": [
        {
          "indexed": false,
          "internalType": "uint8",
          "name": "version",
          "type": "uint8"
        }
      ],
      "name": "Initialized",
      "type": "event"
    },
    {
      "anonymous": false,
      "inputs": [
        {
          "indexed": true,
          "internalType": "address",
          "name": "previousOwner",
          "type": "address"
        },
        {
          "indexed": true,
          "internalType": "address",
          "name": "newOwner",
          "type": "address"
        }
      ],
      "name": "OwnershipTransferred",
      "type": "event"
    },
    {
      "inputs": [
        {
          "internalType": "string",
          "name": "_quizName",
          "type": "string"
        },
        {
          "internalType": "bytes32",
          "name": "choice",
          "type": "bytes32"
        }
      ],
      "name": "checkAnswer",
      "outputs": [
        {
          "internalType": "bool",
          "name": "",
          "type": "bool"
        }
      ],
      "stateMutability": "view",
      "type": "function"
    },
    {
      "inputs": [],
      "name": "createEligibility",
      "outputs": [
        {
          "internalType": "uint16",
          "name": "",
          "type": "uint16"
        }
      ],
      "stateMutability": "view",
      "type": "function"
    },
    {
      "inputs": [
        {
          "internalType": "string",
          "name": "_communityName",
          "type": "string"
        },
        {
          "internalType": "string",
          "name": "_quizName",
          "type": "string"
        },
        {
          "internalType": "string",
          "name": "_description",
          "type": "string"
        },
        {
          "internalType": "string",
          "name": "_imageUrl",
          "type": "string"
        },
        {
          "internalType": "string",
          "name": "_question",
          "type": "string"
        },
        {
          "internalType": "string[4]",
          "name": "_options",
          "type": "string[4]"
        },
        {
          "internalType": "bytes32",
          "name": "_answer",
          "type": "bytes32"
        },
        {
          "internalType": "address",
          "name": "_creatorAddress",
          "type": "address"
        }
      ],
      "name": "createQuiz",
      "outputs": [],
      "stateMutability": "nonpayable",
      "type": "function"
    },
    {
      "inputs": [
        {
          "internalType": "string",
          "name": "",
          "type": "string"
        },
        {
          "internalType": "address",
          "name": "",
          "type": "address"
        }
      ],
      "name": "evalStatus",
      "outputs": [
        {
          "internalType": "bool",
          "name": "",
          "type": "bool"
        }
      ],
      "stateMutability": "view",
      "type": "function"
    },
    {
      "inputs": [
        {
          "internalType": "string",
          "name": "_quizName",
          "type": "string"
        },
        {
          "internalType": "address",
          "name": "_userAddress",
          "type": "address"
        }
      ],
      "name": "getEvalStatus",
      "outputs": [
        {
          "internalType": "bool",
          "name": "",
          "type": "bool"
        }
      ],
      "stateMutability": "view",
      "type": "function"
    },
    {
      "inputs": [
        {
          "internalType": "string",
          "name": "_quizName",
          "type": "string"
        }
      ],
      "name": "getQuizdetails",
      "outputs": [
        {
          "components": [
            {
              "internalType": "string",
              "name": "description",
              "type": "string"
            },
            {
              "internalType": "string",
              "name": "imageUrl",
              "type": "string"
            },
            {
              "internalType": "string",
              "name": "question",
              "type": "string"
            },
            {
              "internalType": "string[4]",
              "name": "options",
              "type": "string[4]"
            },
            {
              "internalType": "bytes32",
              "name": "answer",
              "type": "bytes32"
            },
            {
              "internalType": "address",
              "name": "creatorAddress",
              "type": "address"
            }
          ],
          "internalType": "struct WowTQuiz.Quiz",
          "name": "",
          "type": "tuple"
        }
      ],
      "stateMutability": "view",
      "type": "function"
    },
    {
      "inputs": [
        {
          "internalType": "string",
          "name": "_quizName",
          "type": "string"
        }
      ],
      "name": "getstringQuizdetails",
      "outputs": [
        {
          "internalType": "string",
          "name": "",
          "type": "string"
        },
        {
          "internalType": "string",
          "name": "",
          "type": "string"
        },
        {
          "internalType": "string",
          "name": "",
          "type": "string"
        },
        {
          "internalType": "string[4]",
          "name": "",
          "type": "string[4]"
        }
      ],
      "stateMutability": "view",
      "type": "function"
    },
    {
      "inputs": [
        {
          "internalType": "uint16",
          "name": "_quizePoints",
          "type": "uint16"
        },
        {
          "internalType": "uint16",
          "name": "_createEligibility",
          "type": "uint16"
        },
        {
          "internalType": "uint16",
          "name": "_pointsToAnswer",
          "type": "uint16"
        },
        {
          "internalType": "address",
          "name": "_pointsContract",
          "type": "address"
        },
        {
          "internalType": "address",
          "name": "_communityContract",
          "type": "address"
        }
      ],
      "name": "initialize",
      "outputs": [],
      "stateMutability": "nonpayable",
      "type": "function"
    },
    {
      "inputs": [],
      "name": "owner",
      "outputs": [
        {
          "internalType": "address",
          "name": "",
          "type": "address"
        }
      ],
      "stateMutability": "view",
      "type": "function"
    },
    {
      "inputs": [],
      "name": "pointsToAnswer",
      "outputs": [
        {
          "internalType": "uint16",
          "name": "",
          "type": "uint16"
        }
      ],
      "stateMutability": "view",
      "type": "function"
    },
    {
      "inputs": [
        {
          "internalType": "address",
          "name": "_userAddress",
          "type": "address"
        },
        {
          "internalType": "string",
          "name": "_quizName",
          "type": "string"
        },
        {
          "internalType": "bytes32",
          "name": "choice",
          "type": "bytes32"
        }
      ],
      "name": "quizEval",
      "outputs": [],
      "stateMutability": "nonpayable",
      "type": "function"
    },
    {
      "inputs": [],
      "name": "quizePoints",
      "outputs": [
        {
          "internalType": "uint16",
          "name": "",
          "type": "uint16"
        }
      ],
      "stateMutability": "view",
      "type": "function"
    },
    {
      "inputs": [
        {
          "internalType": "string",
          "name": "",
          "type": "string"
        }
      ],
      "name": "quizmap",
      "outputs": [
        {
          "internalType": "string",
          "name": "description",
          "type": "string"
        },
        {
          "internalType": "string",
          "name": "imageUrl",
          "type": "string"
        },
        {
          "internalType": "string",
          "name": "question",
          "type": "string"
        },
        {
          "internalType": "bytes32",
          "name": "answer",
          "type": "bytes32"
        },
        {
          "internalType": "address",
          "name": "creatorAddress",
          "type": "address"
        }
      ],
      "stateMutability": "view",
      "type": "function"
    },
    {
      "inputs": [],
      "name": "renounceOwnership",
      "outputs": [],
      "stateMutability": "nonpayable",
      "type": "function"
    },
    {
      "inputs": [
        {
          "internalType": "uint16",
          "name": "_createEligibility",
          "type": "uint16"
        }
      ],
      "name": "setCreateEligibility",
      "outputs": [],
      "stateMutability": "nonpayable",
      "type": "function"
    },
    {
      "inputs": [
        {
          "internalType": "uint16",
          "name": "_pointsToAnswer",
          "type": "uint16"
        }
      ],
      "name": "setPointsToAnswer",
      "outputs": [],
      "stateMutability": "nonpayable",
      "type": "function"
    },
    {
      "inputs": [
        {
          "internalType": "uint16",
          "name": "_quizePoints",
          "type": "uint16"
        }
      ],
      "name": "setQuizePoints",
      "outputs": [],
      "stateMutability": "nonpayable",
      "type": "function"
    },
    {
      "inputs": [
        {
          "internalType": "address",
          "name": "newOwner",
          "type": "address"
        }
      ],
      "name": "transferOwnership",
      "outputs": [],
      "stateMutability": "nonpayable",
      "type": "function"
    }
  ],
  "bytecode": "0x608060405234801561001057600080fd5b50611b24806100206000396000f3fe608060405234801561001057600080fd5b50600436106101165760003560e01c80638d5410f8116100a2578063e4aa90c111610071578063e4aa90c114610289578063f2fde38b1461029c578063f5198bfb146102af578063f9994e2d146102c2578063fe4309d4146102d057600080fd5b80638d5410f81461021e5780638da5cb5b1461024757806396bef46b14610262578063c96b9c5a1461027657600080fd5b80635efe62e8116100e95780635efe62e81461018f57806368618f90146101b2578063715018a6146101f05780638c6f2c80146101f85780638ccba74a1461020b57600080fd5b806316ecdad11461011b578063326ca712146101445780634b1ebb5a146101675780635b0ebb1c1461017c575b600080fd5b61012e61012936600461132a565b6102f4565b60405161013b91906113b7565b60405180910390f35b610157610152366004611489565b6105c4565b604051901515815260200161013b565b61017a610175366004611578565b6105f7565b005b61017a61018a36600461169b565b610934565b6101a261019d36600461132a565b610960565b60405161013b94939291906116bd565b6101576101c0366004611745565b81516020818401810180516068825292820194820194909420919093529091526000908152604090205460ff1681565b61017a61099a565b61017a61020636600461169b565b6109ae565b61017a610219366004611793565b6109d6565b60655461023490640100000000900461ffff1681565b60405161ffff909116815260200161013b565b6033546040516001600160a01b03909116815260200161013b565b6065546102349062010000900461ffff1681565b61017a6102843660046117f8565b610b6a565b61017a61029736600461169b565b610c5e565b61017a6102aa36600461184f565b610c7e565b6101576102bd366004611745565b610cf7565b6065546102349061ffff1681565b6102e36102de36600461132a565b610d3b565b60405161013b95949392919061186a565b6102fc611174565b60678260405161030c91906118c6565b90815260200160405180910390206040518060c0016040529081600082018054610335906118e2565b80601f0160208091040260200160405190810160405280929190818152602001828054610361906118e2565b80156103ae5780601f10610383576101008083540402835291602001916103ae565b820191906000526020600020905b81548152906001019060200180831161039157829003601f168201915b505050505081526020016001820180546103c7906118e2565b80601f01602080910402602001604051908101604052809291908181526020018280546103f3906118e2565b80156104405780601f1061041557610100808354040283529160200191610440565b820191906000526020600020905b81548152906001019060200180831161042357829003601f168201915b50505050508152602001600282018054610459906118e2565b80601f0160208091040260200160405190810160405280929190818152602001828054610485906118e2565b80156104d25780601f106104a7576101008083540402835291602001916104d2565b820191906000526020600020905b8154815290600101906020018083116104b557829003601f168201915b505050918352505060408051608081019091526020909101906003830160046000835b8282101561059857838201805461050b906118e2565b80601f0160208091040260200160405190810160405280929190818152602001828054610537906118e2565b80156105845780601f1061055957610100808354040283529160200191610584565b820191906000526020600020905b81548152906001019060200180831161056757829003601f168201915b5050505050815260200190600101906104f5565b50505090825250600782015460208201526008909101546001600160a01b031660409091015292915050565b6000806105d0846102f4565b60808101519091508381036105ea576001925050506105f1565b6000925050505b92915050565b6105ff610f16565b60655460405163ee204abb60e01b81526001600160a01b038381166004830152600092600160301b9004169063ee204abb90602401602060405180830381865afa158015610651573d6000803e3d6000fd5b505050506040513d601f19601f82011682018060405250810190610675919061191c565b9050601481118061069357506033546001600160a01b038381169116145b6106e45760405162461bcd60e51b815260206004820152601f60248201527f4e6f7420656e6f75676820706f696e7420746f20637265617465205175697a0060448201526064015b60405180910390fd5b606654604051632bad951360e01b81526001600160a01b0390911690632bad951390610714908c90600401611935565b602060405180830381865afa158015610731573d6000803e3d6000fd5b505050506040513d601f19601f820116820180604052508101906107559190611948565b6107a15760405162461bcd60e51b815260206004820152601760248201527f436f6d6d756e69747920646f65736e277420657869737400000000000000000060448201526064016106db565b606654604051634569720760e11b81526001600160a01b0390911690638ad2e40e906107d3908c908c9060040161196a565b600060405180830381600087803b1580156107ed57600080fd5b505af1158015610801573d6000803e3d6000fd5b505050508660678960405161081691906118c6565b9081526040519081900360200190209061083090826119e3565b508460678960405161084291906118c6565b9081526020016040518091039020600201908161085f91906119e3565b508360678960405161087191906118c6565b90815260200160405180910390206003019060046108909291906111b0565b50826067896040516108a291906118c6565b908152602001604051809103902060070181905550856067896040516108c891906118c6565b908152602001604051809103902060010190816108e591906119e3565b50816067896040516108f791906118c6565b90815260405190819003602001902060080180546001600160a01b03929092166001600160a01b0319909216919091179055505050505050505050565b61093c610f16565b6065805461ffff9092166401000000000265ffff0000000019909216919091179055565b606080606061096d6111f9565b6000610978866102f4565b8051602082015160408301516060909301519199909850919650945092505050565b6109a2610f16565b6109ac6000610f70565b565b6109b6610f16565b6065805461ffff909216620100000263ffff000019909216919091179055565b600054610100900460ff16158080156109f65750600054600160ff909116105b80610a105750303b158015610a10575060005460ff166001145b610a735760405162461bcd60e51b815260206004820152602e60248201527f496e697469616c697a61626c653a20636f6e747261637420697320616c72656160448201526d191e481a5b9a5d1a585b1a5e995960921b60648201526084016106db565b6000805460ff191660011790558015610a96576000805461ff0019166101001790555b610a9e610fc2565b6065805461ffff88811663ffffffff1990921691909117620100008883160217640100000000600160d01b031916640100000000918716919091026601000000000000600160d01b03191617600160301b6001600160a01b038681169190910291909117909155606680546001600160a01b0319169184169190911790558015610b62576000805461ff0019169055604051600181527f7f26b83ff96e1f2b6a682f133852f6798a09c465da95921460cefb38474024989060200160405180910390a15b505050505050565b610b72610f16565b606882604051610b8291906118c6565b90815260408051602092819003830190206001600160a01b0386166000908152925290205460ff1615610be75760405162461bcd60e51b815260206004820152600d60248201526c105b1c9958591e481d1c9a5959609a1b60448201526064016106db565b6000610bf2836102f4565b9050600081608001519050610c0d8184878560a00151610ff1565b6001606885604051610c1f91906118c6565b90815260408051602092819003830190206001600160a01b0398909816600090815297909152909520805460ff19169515159590951790945550505050565b610c66610f16565b6065805461ffff191661ffff92909216919091179055565b610c86610f16565b6001600160a01b038116610ceb5760405162461bcd60e51b815260206004820152602660248201527f4f776e61626c653a206e6577206f776e657220697320746865207a65726f206160448201526564647265737360d01b60648201526084016106db565b610cf481610f70565b50565b6000606883604051610d0991906118c6565b908152604080519182900360209081019092206001600160a01b0385166000908152925290205460ff16905092915050565b8051602081830181018051606782529282019190930120915280548190610d61906118e2565b80601f0160208091040260200160405190810160405280929190818152602001828054610d8d906118e2565b8015610dda5780601f10610daf57610100808354040283529160200191610dda565b820191906000526020600020905b815481529060010190602001808311610dbd57829003601f168201915b505050505090806001018054610def906118e2565b80601f0160208091040260200160405190810160405280929190818152602001828054610e1b906118e2565b8015610e685780601f10610e3d57610100808354040283529160200191610e68565b820191906000526020600020905b815481529060010190602001808311610e4b57829003601f168201915b505050505090806002018054610e7d906118e2565b80601f0160208091040260200160405190810160405280929190818152602001828054610ea9906118e2565b8015610ef65780601f10610ecb57610100808354040283529160200191610ef6565b820191906000526020600020905b815481529060010190602001808311610ed957829003601f168201915b5050505060078301546008909301549192916001600160a01b0316905085565b6033546001600160a01b031633146109ac5760405162461bcd60e51b815260206004820181905260248201527f4f776e61626c653a2063616c6c6572206973206e6f7420746865206f776e657260448201526064016106db565b603380546001600160a01b038381166001600160a01b0319831681179093556040519116919082907f8be0079c531659141344cd1fd0a4f28419497f9722a3daafe3b4186f6b6457e090600090a35050565b600054610100900460ff16610fe95760405162461bcd60e51b81526004016106db90611aa3565b6109ac611144565b8284036110a15760655460405163507cd30f60e01b81526001600160a01b038481166004830152640100000000830461ffff166024830152600160301b9092049091169063507cd30f90604401600060405180830381600087803b15801561105857600080fd5b505af115801561106c573d6000803e3d6000fd5b5050604051600192507f1a8e889f14c3a3f7839e0905c7773af1a03ac2eaf0cd24fa2627fa164487d2559150600090a26110cd565b6040516000907f1a8e889f14c3a3f7839e0905c7773af1a03ac2eaf0cd24fa2627fa164487d255908290a25b60655460405163507cd30f60e01b81526001600160a01b03838116600483015261ffff83166024830152600160301b9092049091169063507cd30f90604401600060405180830381600087803b15801561112657600080fd5b505af115801561113a573d6000803e3d6000fd5b5050505050505050565b600054610100900460ff1661116b5760405162461bcd60e51b81526004016106db90611aa3565b6109ac33610f70565b6040518060c0016040528060608152602001606081526020016060815260200161119c6111f9565b815260006020820181905260409091015290565b82600481019282156111e9579160200282015b828111156111e957825182906111d990826119e3565b50916020019190600101906111c3565b506111f5929150611220565b5090565b60405180608001604052806004905b60608152602001906001900390816112085790505090565b808211156111f5576000611234828261123d565b50600101611220565b508054611249906118e2565b6000825580601f10611259575050565b601f016020900490600052602060002090810190610cf491905b808211156111f55760008155600101611273565b634e487b7160e01b600052604160045260246000fd5b600082601f8301126112ae57600080fd5b813567ffffffffffffffff808211156112c9576112c9611287565b604051601f8301601f19908116603f011681019082821181831017156112f1576112f1611287565b8160405283815286602085880101111561130a57600080fd5b836020870160208301376000602085830101528094505050505092915050565b60006020828403121561133c57600080fd5b813567ffffffffffffffff81111561135357600080fd5b61135f8482850161129d565b949350505050565b60005b8381101561138257818101518382015260200161136a565b50506000910152565b600081518084526113a3816020860160208601611367565b601f01601f19169290920160200192915050565b60006020808352835160c0828501526113d360e085018261138b565b905081850151601f19808684030160408701526113f0838361138b565b9250604087015191508086840301606087015261140d838361138b565b9250606087015191508086840301608087015250818290506080830160005b600481101561145757848203835261144582855161138b565b9386019392860192915060010161142c565b50608088015160a088015260a0880151945061147e60c08801866001600160a01b03169052565b979650505050505050565b6000806040838503121561149c57600080fd5b823567ffffffffffffffff8111156114b357600080fd5b6114bf8582860161129d565b95602094909401359450505050565b600082601f8301126114df57600080fd5b6040516080810167ffffffffffffffff828210818311171561150357611503611287565b81604052829150608085018681111561151b57600080fd5b855b81811015611550578035838111156115355760008081fd5b61154189828a0161129d565b8552506020938401930161151d565b50929695505050505050565b80356001600160a01b038116811461157357600080fd5b919050565b600080600080600080600080610100898b03121561159557600080fd5b883567ffffffffffffffff808211156115ad57600080fd5b6115b98c838d0161129d565b995060208b01359150808211156115cf57600080fd5b6115db8c838d0161129d565b985060408b01359150808211156115f157600080fd5b6115fd8c838d0161129d565b975060608b013591508082111561161357600080fd5b61161f8c838d0161129d565b965060808b013591508082111561163557600080fd5b6116418c838d0161129d565b955060a08b013591508082111561165757600080fd5b506116648b828c016114ce565b93505060c0890135915061167a60e08a0161155c565b90509295985092959890939650565b803561ffff8116811461157357600080fd5b6000602082840312156116ad57600080fd5b6116b682611689565b9392505050565b6080815260006116d0608083018761138b565b6020838203818501526116e3828861138b565b915083820360408501526116f7828761138b565b8481036060860152915081608081018660005b600481101561173557858303845261172383835161138b565b9385019392509084019060010161170a565b50909a9950505050505050505050565b6000806040838503121561175857600080fd5b823567ffffffffffffffff81111561176f57600080fd5b61177b8582860161129d565b92505061178a6020840161155c565b90509250929050565b600080600080600060a086880312156117ab57600080fd5b6117b486611689565b94506117c260208701611689565b93506117d060408701611689565b92506117de6060870161155c565b91506117ec6080870161155c565b90509295509295909350565b60008060006060848603121561180d57600080fd5b6118168461155c565b9250602084013567ffffffffffffffff81111561183257600080fd5b61183e8682870161129d565b925050604084013590509250925092565b60006020828403121561186157600080fd5b6116b68261155c565b60a08152600061187d60a083018861138b565b828103602084015261188f818861138b565b905082810360408401526118a3818761138b565b606084019590955250506001600160a01b03919091166080909101529392505050565b600082516118d8818460208701611367565b9190910192915050565b600181811c908216806118f657607f821691505b60208210810361191657634e487b7160e01b600052602260045260246000fd5b50919050565b60006020828403121561192e57600080fd5b5051919050565b6020815260006116b6602083018461138b565b60006020828403121561195a57600080fd5b815180151581146116b657600080fd5b60408152600061197d604083018561138b565b828103602084015261198f818561138b565b95945050505050565b601f8211156119de57600081815260208120601f850160051c810160208610156119bf5750805b601f850160051c820191505b81811015610b62578281556001016119cb565b505050565b815167ffffffffffffffff8111156119fd576119fd611287565b611a1181611a0b84546118e2565b84611998565b602080601f831160018114611a465760008415611a2e5750858301515b600019600386901b1c1916600185901b178555610b62565b600085815260208120601f198616915b82811015611a7557888601518255948401946001909101908401611a56565b5085821015611a935787850151600019600388901b60f8161c191681555b5050505050600190811b01905550565b6020808252602b908201527f496e697469616c697a61626c653a20636f6e7472616374206973206e6f74206960408201526a6e697469616c697a696e6760a81b60608201526080019056fea26469706673582212205b9b38edc97dbf5b45a9fbbea887799542c387df47e2f0541d622c053450dc9764736f6c63430008110033",
  "linkReferences": {},
  "deployedLinkReferences": {}
}