{
  "_format": "hh-sol-artifact-1",
  "contractName": "WowTBadge",
  "sourceName": "contracts/wowTBadge.sol",
  "abi": [
    {
      "anonymous": false,
      "inputs": [
        {
          "indexed": false,
          "internalType": "uint8",
          "name": "version",
          "type": "uint8"
        }
      ],
      "name": "Initialized",
      "type": "event"
    },
    {
      "anonymous": false,
      "inputs": [
        {
          "indexed": true,
          "internalType": "address",
          "name": "previousOwner",
          "type": "address"
        },
        {
          "indexed": true,
          "internalType": "address",
          "name": "newOwner",
          "type": "address"
        }
      ],
      "name": "OwnershipTransferred",
      "type": "event"
    },
    {
      "inputs": [
        {
          "internalType": "string",
          "name": "",
          "type": "string"
        }
      ],
      "name": "badge",
      "outputs": [
        {
          "internalType": "address",
          "name": "",
          "type": "address"
        }
      ],
      "stateMutability": "view",
      "type": "function"
    },
    {
      "inputs": [],
      "name": "imageUri",
      "outputs": [
        {
          "internalType": "string",
          "name": "",
          "type": "string"
        }
      ],
      "stateMutability": "view",
      "type": "function"
    },
    {
      "inputs": [
        {
          "internalType": "string",
          "name": "_imageUri",
          "type": "string"
        },
        {
          "internalType": "address",
          "name": "_pointsContract",
          "type": "address"
        }
      ],
      "name": "initialize",
      "outputs": [],
      "stateMutability": "nonpayable",
      "type": "function"
    },
    {
      "inputs": [],
      "name": "owner",
      "outputs": [
        {
          "internalType": "address",
          "name": "",
          "type": "address"
        }
      ],
      "stateMutability": "view",
      "type": "function"
    },
    {
      "inputs": [],
      "name": "renounceOwnership",
      "outputs": [],
      "stateMutability": "nonpayable",
      "type": "function"
    },
    {
      "inputs": [
        {
          "internalType": "string",
          "name": "_imageUrl",
          "type": "string"
        }
      ],
      "name": "setImageUri",
      "outputs": [],
      "stateMutability": "nonpayable",
      "type": "function"
    },
    {
      "inputs": [
        {
          "internalType": "address",
          "name": "newOwner",
          "type": "address"
        }
      ],
      "name": "transferOwnership",
      "outputs": [],
      "stateMutability": "nonpayable",
      "type": "function"
    },
    {
      "inputs": [
        {
          "internalType": "string",
          "name": "yearWeek",
          "type": "string"
        }
      ],
      "name": "updateBadgeForWeek",
      "outputs": [],
      "stateMutability": "nonpayable",
      "type": "function"
    }
  ],
  "bytecode": "0x608060405234801561001057600080fd5b506109cc806100206000396000f3fe608060405234801561001057600080fd5b50600436106100875760003560e01c8063829d72f91161005b578063829d72f91461010f5780638da5cb5b14610122578063d9e5ea4d14610133578063f2fde38b1461014657600080fd5b8062c33e3c1461008c5780630bf82da4146100dd578063715018a6146100f25780637ab4339d146100fc575b600080fd5b6100c061009a3660046105bb565b80516020818301810180516068825292820191909301209152546001600160a01b031681565b6040516001600160a01b0390911681526020015b60405180910390f35b6100e5610159565b6040516100d4919061066c565b6100fa6101e7565b005b6100fa61010a366004610718565b6101fb565b6100fa61011d36600461076f565b61034d565b6033546001600160a01b03166100c0565b6100fa61014136600461076f565b61040c565b6100fa6101543660046107b1565b610426565b60658054610166906107d5565b80601f0160208091040260200160405190810160405280929190818152602001828054610192906107d5565b80156101df5780601f106101b4576101008083540402835291602001916101df565b820191906000526020600020905b8154815290600101906020018083116101c257829003601f168201915b505050505081565b6101ef61049f565b6101f960006104f9565b565b600054610100900460ff161580801561021b5750600054600160ff909116105b806102355750303b158015610235575060005460ff166001145b61029d5760405162461bcd60e51b815260206004820152602e60248201527f496e697469616c697a61626c653a20636f6e747261637420697320616c72656160448201526d191e481a5b9a5d1a585b1a5e995960921b60648201526084015b60405180910390fd5b6000805460ff1916600117905580156102c0576000805461ff0019166101001790555b6102c861054b565b60656102d584868361085d565b50606680546001600160a01b0384166001600160a01b031991821681179092556067805490911690911790558015610347576000805461ff0019169055604051600181527f7f26b83ff96e1f2b6a682f133852f6798a09c465da95921460cefb38474024989060200160405180910390a15b50505050565b61035561049f565b606754604080516330a75caf60e21b815290516000926001600160a01b03169163c29d72bc9160048083019260209291908290030181865afa15801561039f573d6000803e3d6000fd5b505050506040513d601f19601f820116820180604052508101906103c3919061091e565b905080606884846040516103d892919061093b565b90815260405190819003602001902080546001600160a01b03929092166001600160a01b0319909216919091179055505050565b61041461049f565b606561042182848361085d565b505050565b61042e61049f565b6001600160a01b0381166104935760405162461bcd60e51b815260206004820152602660248201527f4f776e61626c653a206e6577206f776e657220697320746865207a65726f206160448201526564647265737360d01b6064820152608401610294565b61049c816104f9565b50565b6033546001600160a01b031633146101f95760405162461bcd60e51b815260206004820181905260248201527f4f776e61626c653a2063616c6c6572206973206e6f7420746865206f776e65726044820152606401610294565b603380546001600160a01b038381166001600160a01b0319831681179093556040519116919082907f8be0079c531659141344cd1fd0a4f28419497f9722a3daafe3b4186f6b6457e090600090a35050565b600054610100900460ff166105725760405162461bcd60e51b81526004016102949061094b565b6101f9600054610100900460ff1661059c5760405162461bcd60e51b81526004016102949061094b565b6101f9336104f9565b634e487b7160e01b600052604160045260246000fd5b6000602082840312156105cd57600080fd5b813567ffffffffffffffff808211156105e557600080fd5b818401915084601f8301126105f957600080fd5b81358181111561060b5761060b6105a5565b604051601f8201601f19908116603f01168101908382118183101715610633576106336105a5565b8160405282815287602084870101111561064c57600080fd5b826020860160208301376000928101602001929092525095945050505050565b600060208083528351808285015260005b818110156106995785810183015185820160400152820161067d565b506000604082860101526040601f19601f8301168501019250505092915050565b60008083601f8401126106cc57600080fd5b50813567ffffffffffffffff8111156106e457600080fd5b6020830191508360208285010111156106fc57600080fd5b9250929050565b6001600160a01b038116811461049c57600080fd5b60008060006040848603121561072d57600080fd5b833567ffffffffffffffff81111561074457600080fd5b610750868287016106ba565b909450925050602084013561076481610703565b809150509250925092565b6000806020838503121561078257600080fd5b823567ffffffffffffffff81111561079957600080fd5b6107a5858286016106ba565b90969095509350505050565b6000602082840312156107c357600080fd5b81356107ce81610703565b9392505050565b600181811c908216806107e957607f821691505b60208210810361080957634e487b7160e01b600052602260045260246000fd5b50919050565b601f82111561042157600081815260208120601f850160051c810160208610156108365750805b601f850160051c820191505b8181101561085557828155600101610842565b505050505050565b67ffffffffffffffff831115610875576108756105a5565b6108898361088383546107d5565b8361080f565b6000601f8411600181146108bd57600085156108a55750838201355b600019600387901b1c1916600186901b178355610917565b600083815260209020601f19861690835b828110156108ee57868501358255602094850194600190920191016108ce565b508682101561090b5760001960f88860031b161c19848701351681555b505060018560011b0183555b5050505050565b60006020828403121561093057600080fd5b81516107ce81610703565b8183823760009101908152919050565b6020808252602b908201527f496e697469616c697a61626c653a20636f6e7472616374206973206e6f74206960408201526a6e697469616c697a696e6760a81b60608201526080019056fea2646970667358221220610c0037d8b72eeff4ac60c5de0ccb67d3611e21f8952ca73c0cfcc1e24789ee64736f6c63430008110033",
  "linkReferences": {},
  "deployedLinkReferences": {}
}