{
  "_format": "hh-sol-artifact-1",
  "contractName": "WowTQuiz",
  "sourceName": "contracts/wowTQuiz.sol",
  "abi": [
    {
      "anonymous": false,
      "inputs": [
        {
          "indexed": true,
          "internalType": "bool",
          "name": "",
          "type": "bool"
        }
      ],
      "name": "Answer",
      "type": "event"
    },
    {
      "anonymous": false,
      "inputs": [
        {
          "indexed": false,
          "internalType": "uint8",
          "name": "version",
          "type": "uint8"
        }
      ],
      "name": "Initialized",
      "type": "event"
    },
    {
      "anonymous": false,
      "inputs": [
        {
          "indexed": true,
          "internalType": "address",
          "name": "previousOwner",
          "type": "address"
        },
        {
          "indexed": true,
          "internalType": "address",
          "name": "newOwner",
          "type": "address"
        }
      ],
      "name": "OwnershipTransferred",
      "type": "event"
    },
    {
      "inputs": [
        {
          "internalType": "string",
          "name": "_quizName",
          "type": "string"
        },
        {
          "internalType": "bytes32",
          "name": "choice",
          "type": "bytes32"
        }
      ],
      "name": "checkAnswer",
      "outputs": [
        {
          "internalType": "bool",
          "name": "",
          "type": "bool"
        }
      ],
      "stateMutability": "view",
      "type": "function"
    },
    {
      "inputs": [],
      "name": "createEligibility",
      "outputs": [
        {
          "internalType": "uint16",
          "name": "",
          "type": "uint16"
        }
      ],
      "stateMutability": "view",
      "type": "function"
    },
    {
      "inputs": [
        {
          "internalType": "string",
          "name": "_communityName",
          "type": "string"
        },
        {
          "internalType": "string",
          "name": "_quizName",
          "type": "string"
        },
        {
          "internalType": "string",
          "name": "_description",
          "type": "string"
        },
        {
          "internalType": "string",
          "name": "_imageUrl",
          "type": "string"
        },
        {
          "internalType": "string",
          "name": "_question",
          "type": "string"
        },
        {
          "internalType": "string[4]",
          "name": "_options",
          "type": "string[4]"
        },
        {
          "internalType": "bytes32",
          "name": "_answer",
          "type": "bytes32"
        },
        {
          "internalType": "address",
          "name": "_creatorAddress",
          "type": "address"
        }
      ],
      "name": "createQuiz",
      "outputs": [],
      "stateMutability": "nonpayable",
      "type": "function"
    },
    {
      "inputs": [
        {
          "internalType": "string",
          "name": "_quizName",
          "type": "string"
        }
      ],
      "name": "getQuizdetails",
      "outputs": [
        {
          "components": [
            {
              "internalType": "string",
              "name": "description",
              "type": "string"
            },
            {
              "internalType": "string",
              "name": "imageUrl",
              "type": "string"
            },
            {
              "internalType": "string",
              "name": "question",
              "type": "string"
            },
            {
              "internalType": "string[4]",
              "name": "options",
              "type": "string[4]"
            },
            {
              "internalType": "bytes32",
              "name": "answer",
              "type": "bytes32"
            },
            {
              "internalType": "address",
              "name": "creatorAddress",
              "type": "address"
            }
          ],
          "internalType": "struct WowTQuiz.Quiz",
          "name": "",
          "type": "tuple"
        }
      ],
      "stateMutability": "view",
      "type": "function"
    },
    {
      "inputs": [
        {
          "internalType": "string",
          "name": "_quizName",
          "type": "string"
        }
      ],
      "name": "getstringQuizdetails",
      "outputs": [
        {
          "internalType": "string",
          "name": "",
          "type": "string"
        },
        {
          "internalType": "string",
          "name": "",
          "type": "string"
        },
        {
          "internalType": "string",
          "name": "",
          "type": "string"
        },
        {
          "internalType": "string[4]",
          "name": "",
          "type": "string[4]"
        }
      ],
      "stateMutability": "view",
      "type": "function"
    },
    {
      "inputs": [
        {
          "internalType": "uint16",
          "name": "_quizePoints",
          "type": "uint16"
        },
        {
          "internalType": "uint16",
          "name": "_createEligibility",
          "type": "uint16"
        },
        {
          "internalType": "uint16",
          "name": "_pointsToAnswer",
          "type": "uint16"
        },
        {
          "internalType": "address",
          "name": "_pointsContract",
          "type": "address"
        },
        {
          "internalType": "address",
          "name": "_communityContract",
          "type": "address"
        }
      ],
      "name": "initialize",
      "outputs": [],
      "stateMutability": "nonpayable",
      "type": "function"
    },
    {
      "inputs": [],
      "name": "owner",
      "outputs": [
        {
          "internalType": "address",
          "name": "",
          "type": "address"
        }
      ],
      "stateMutability": "view",
      "type": "function"
    },
    {
      "inputs": [],
      "name": "pointsToAnswer",
      "outputs": [
        {
          "internalType": "uint16",
          "name": "",
          "type": "uint16"
        }
      ],
      "stateMutability": "view",
      "type": "function"
    },
    {
      "inputs": [
        {
          "internalType": "address",
          "name": "_userAddress",
          "type": "address"
        },
        {
          "internalType": "string",
          "name": "_quizName",
          "type": "string"
        },
        {
          "internalType": "bytes32",
          "name": "choice",
          "type": "bytes32"
        }
      ],
      "name": "quizEval",
      "outputs": [],
      "stateMutability": "nonpayable",
      "type": "function"
    },
    {
      "inputs": [],
      "name": "quizePoints",
      "outputs": [
        {
          "internalType": "uint16",
          "name": "",
          "type": "uint16"
        }
      ],
      "stateMutability": "view",
      "type": "function"
    },
    {
      "inputs": [
        {
          "internalType": "string",
          "name": "",
          "type": "string"
        }
      ],
      "name": "quizmap",
      "outputs": [
        {
          "internalType": "string",
          "name": "description",
          "type": "string"
        },
        {
          "internalType": "string",
          "name": "imageUrl",
          "type": "string"
        },
        {
          "internalType": "string",
          "name": "question",
          "type": "string"
        },
        {
          "internalType": "bytes32",
          "name": "answer",
          "type": "bytes32"
        },
        {
          "internalType": "address",
          "name": "creatorAddress",
          "type": "address"
        }
      ],
      "stateMutability": "view",
      "type": "function"
    },
    {
      "inputs": [],
      "name": "renounceOwnership",
      "outputs": [],
      "stateMutability": "nonpayable",
      "type": "function"
    },
    {
      "inputs": [
        {
          "internalType": "uint16",
          "name": "_createEligibility",
          "type": "uint16"
        }
      ],
      "name": "setCreateEligibility",
      "outputs": [],
      "stateMutability": "nonpayable",
      "type": "function"
    },
    {
      "inputs": [
        {
          "internalType": "uint16",
          "name": "_pointsToAnswer",
          "type": "uint16"
        }
      ],
      "name": "setPointsToAnswer",
      "outputs": [],
      "stateMutability": "nonpayable",
      "type": "function"
    },
    {
      "inputs": [
        {
          "internalType": "uint16",
          "name": "_quizePoints",
          "type": "uint16"
        }
      ],
      "name": "setQuizePoints",
      "outputs": [],
      "stateMutability": "nonpayable",
      "type": "function"
    },
    {
      "inputs": [
        {
          "internalType": "address",
          "name": "newOwner",
          "type": "address"
        }
      ],
      "name": "transferOwnership",
      "outputs": [],
      "stateMutability": "nonpayable",
      "type": "function"
    }
  ],
  "bytecode": "0x608060405234801561001057600080fd5b50611912806100206000396000f3fe608060405234801561001057600080fd5b50600436106101005760003560e01c80638d5410f811610097578063e4aa90c111610066578063e4aa90c114610235578063f2fde38b14610248578063f9994e2d1461025b578063fe4309d41461026957600080fd5b80638d5410f8146101ca5780638da5cb5b146101f357806396bef46b1461020e578063c96b9c5a1461022257600080fd5b80635efe62e8116100d35780635efe62e814610179578063715018a61461019c5780638c6f2c80146101a45780638ccba74a146101b757600080fd5b806316ecdad114610105578063326ca7121461012e5780634b1ebb5a146101515780635b0ebb1c14610166575b600080fd5b610118610113366004611166565b61028d565b60405161012591906111f3565b60405180910390f35b61014161013c3660046112c5565b61055d565b6040519015158152602001610125565b61016461015f3660046113b4565b610590565b005b6101646101743660046114d7565b610873565b61018c610187366004611166565b61089f565b60405161012594939291906114f9565b6101646108d9565b6101646101b23660046114d7565b6108ed565b6101646101c5366004611581565b610915565b6065546101e090640100000000900461ffff1681565b60405161ffff9091168152602001610125565b6033546040516001600160a01b039091168152602001610125565b6065546101e09062010000900461ffff1681565b6101646102303660046115e6565b610aa9565b6101646102433660046114d7565b610ade565b61016461025636600461163d565b610afe565b6065546101e09061ffff1681565b61027c610277366004611166565b610b77565b604051610125959493929190611658565b610295610fb0565b6067826040516102a591906116b4565b90815260200160405180910390206040518060c00160405290816000820180546102ce906116d0565b80601f01602080910402602001604051908101604052809291908181526020018280546102fa906116d0565b80156103475780601f1061031c57610100808354040283529160200191610347565b820191906000526020600020905b81548152906001019060200180831161032a57829003601f168201915b50505050508152602001600182018054610360906116d0565b80601f016020809104026020016040519081016040528092919081815260200182805461038c906116d0565b80156103d95780601f106103ae576101008083540402835291602001916103d9565b820191906000526020600020905b8154815290600101906020018083116103bc57829003601f168201915b505050505081526020016002820180546103f2906116d0565b80601f016020809104026020016040519081016040528092919081815260200182805461041e906116d0565b801561046b5780601f106104405761010080835404028352916020019161046b565b820191906000526020600020905b81548152906001019060200180831161044e57829003601f168201915b505050918352505060408051608081019091526020909101906003830160046000835b828210156105315783820180546104a4906116d0565b80601f01602080910402602001604051908101604052809291908181526020018280546104d0906116d0565b801561051d5780601f106104f25761010080835404028352916020019161051d565b820191906000526020600020905b81548152906001019060200180831161050057829003601f168201915b50505050508152602001906001019061048e565b50505090825250600782015460208201526008909101546001600160a01b031660409091015292915050565b6000806105698461028d565b60808101519091508381036105835760019250505061058a565b6000925050505b92915050565b610598610d52565b60655460405163ee204abb60e01b81526001600160a01b038381166004830152600092600160301b9004169063ee204abb90602401602060405180830381865afa1580156105ea573d6000803e3d6000fd5b505050506040513d601f19601f8201168201806040525081019061060e919061170a565b9050601481118061062c57506033546001600160a01b038381169116145b61067d5760405162461bcd60e51b815260206004820152601f60248201527f4e6f7420656e6f75676820706f696e7420746f20637265617465205175697a0060448201526064015b60405180910390fd5b606654604051632bad951360e01b81526001600160a01b0390911690632bad9513906106ad908c90600401611723565b602060405180830381865afa1580156106ca573d6000803e3d6000fd5b505050506040513d601f19601f820116820180604052508101906106ee9190611736565b61073a5760405162461bcd60e51b815260206004820152601760248201527f436f6d6d756e69747920646f65736e27742065786973740000000000000000006044820152606401610674565b6040518060c00160405280888152602001878152602001868152602001858152602001848152602001836001600160a01b031681525060678960405161078091906116b4565b9081526040519081900360200190208151819061079d90826117a3565b50602082015160018201906107b290826117a3565b50604082015160028201906107c790826117a3565b5060608201516107dd9060038301906004610fec565b506080820151600782015560a090910151600890910180546001600160a01b0319166001600160a01b03928316179055606654604051634569720760e11b8152911690638ad2e40e90610836908c908c90600401611863565b600060405180830381600087803b15801561085057600080fd5b505af1158015610864573d6000803e3d6000fd5b50505050505050505050505050565b61087b610d52565b6065805461ffff9092166401000000000265ffff0000000019909216919091179055565b60608060606108ac611035565b60006108b78661028d565b8051602082015160408301516060909301519199909850919650945092505050565b6108e1610d52565b6108eb6000610dac565b565b6108f5610d52565b6065805461ffff909216620100000263ffff000019909216919091179055565b600054610100900460ff16158080156109355750600054600160ff909116105b8061094f5750303b15801561094f575060005460ff166001145b6109b25760405162461bcd60e51b815260206004820152602e60248201527f496e697469616c697a61626c653a20636f6e747261637420697320616c72656160448201526d191e481a5b9a5d1a585b1a5e995960921b6064820152608401610674565b6000805460ff1916600117905580156109d5576000805461ff0019166101001790555b6109dd610dfe565b6065805461ffff88811663ffffffff1990921691909117620100008883160217640100000000600160d01b031916640100000000918716919091026601000000000000600160d01b03191617600160301b6001600160a01b038681169190910291909117909155606680546001600160a01b0319169184169190911790558015610aa1576000805461ff0019169055604051600181527f7f26b83ff96e1f2b6a682f133852f6798a09c465da95921460cefb38474024989060200160405180910390a15b505050505050565b610ab1610d52565b6000610abc8361028d565b9050600081608001519050610ad78184878560a00151610e2d565b5050505050565b610ae6610d52565b6065805461ffff191661ffff92909216919091179055565b610b06610d52565b6001600160a01b038116610b6b5760405162461bcd60e51b815260206004820152602660248201527f4f776e61626c653a206e6577206f776e657220697320746865207a65726f206160448201526564647265737360d01b6064820152608401610674565b610b7481610dac565b50565b8051602081830181018051606782529282019190930120915280548190610b9d906116d0565b80601f0160208091040260200160405190810160405280929190818152602001828054610bc9906116d0565b8015610c165780601f10610beb57610100808354040283529160200191610c16565b820191906000526020600020905b815481529060010190602001808311610bf957829003601f168201915b505050505090806001018054610c2b906116d0565b80601f0160208091040260200160405190810160405280929190818152602001828054610c57906116d0565b8015610ca45780601f10610c7957610100808354040283529160200191610ca4565b820191906000526020600020905b815481529060010190602001808311610c8757829003601f168201915b505050505090806002018054610cb9906116d0565b80601f0160208091040260200160405190810160405280929190818152602001828054610ce5906116d0565b8015610d325780601f10610d0757610100808354040283529160200191610d32565b820191906000526020600020905b815481529060010190602001808311610d1557829003601f168201915b5050505060078301546008909301549192916001600160a01b0316905085565b6033546001600160a01b031633146108eb5760405162461bcd60e51b815260206004820181905260248201527f4f776e61626c653a2063616c6c6572206973206e6f7420746865206f776e65726044820152606401610674565b603380546001600160a01b038381166001600160a01b0319831681179093556040519116919082907f8be0079c531659141344cd1fd0a4f28419497f9722a3daafe3b4186f6b6457e090600090a35050565b600054610100900460ff16610e255760405162461bcd60e51b815260040161067490611891565b6108eb610f80565b828403610edd5760655460405163507cd30f60e01b81526001600160a01b038481166004830152640100000000830461ffff166024830152600160301b9092049091169063507cd30f90604401600060405180830381600087803b158015610e9457600080fd5b505af1158015610ea8573d6000803e3d6000fd5b5050604051600192507f1a8e889f14c3a3f7839e0905c7773af1a03ac2eaf0cd24fa2627fa164487d2559150600090a2610f09565b6040516000907f1a8e889f14c3a3f7839e0905c7773af1a03ac2eaf0cd24fa2627fa164487d255908290a25b60655460405163507cd30f60e01b81526001600160a01b03838116600483015261ffff83166024830152600160301b9092049091169063507cd30f90604401600060405180830381600087803b158015610f6257600080fd5b505af1158015610f76573d6000803e3d6000fd5b5050505050505050565b600054610100900460ff16610fa75760405162461bcd60e51b815260040161067490611891565b6108eb33610dac565b6040518060c00160405280606081526020016060815260200160608152602001610fd8611035565b815260006020820181905260409091015290565b8260048101928215611025579160200282015b82811115611025578251829061101590826117a3565b5091602001919060010190610fff565b5061103192915061105c565b5090565b60405180608001604052806004905b60608152602001906001900390816110445790505090565b808211156110315760006110708282611079565b5060010161105c565b508054611085906116d0565b6000825580601f10611095575050565b601f016020900490600052602060002090810190610b7491905b8082111561103157600081556001016110af565b634e487b7160e01b600052604160045260246000fd5b600082601f8301126110ea57600080fd5b813567ffffffffffffffff80821115611105576111056110c3565b604051601f8301601f19908116603f0116810190828211818310171561112d5761112d6110c3565b8160405283815286602085880101111561114657600080fd5b836020870160208301376000602085830101528094505050505092915050565b60006020828403121561117857600080fd5b813567ffffffffffffffff81111561118f57600080fd5b61119b848285016110d9565b949350505050565b60005b838110156111be5781810151838201526020016111a6565b50506000910152565b600081518084526111df8160208601602086016111a3565b601f01601f19169290920160200192915050565b60006020808352835160c08285015261120f60e08501826111c7565b905081850151601f198086840301604087015261122c83836111c7565b9250604087015191508086840301606087015261124983836111c7565b9250606087015191508086840301608087015250818290506080830160005b60048110156112935784820383526112818285516111c7565b93860193928601929150600101611268565b50608088015160a088015260a088015194506112ba60c08801866001600160a01b03169052565b979650505050505050565b600080604083850312156112d857600080fd5b823567ffffffffffffffff8111156112ef57600080fd5b6112fb858286016110d9565b95602094909401359450505050565b600082601f83011261131b57600080fd5b6040516080810167ffffffffffffffff828210818311171561133f5761133f6110c3565b81604052829150608085018681111561135757600080fd5b855b8181101561138c578035838111156113715760008081fd5b61137d89828a016110d9565b85525060209384019301611359565b50929695505050505050565b80356001600160a01b03811681146113af57600080fd5b919050565b600080600080600080600080610100898b0312156113d157600080fd5b883567ffffffffffffffff808211156113e957600080fd5b6113f58c838d016110d9565b995060208b013591508082111561140b57600080fd5b6114178c838d016110d9565b985060408b013591508082111561142d57600080fd5b6114398c838d016110d9565b975060608b013591508082111561144f57600080fd5b61145b8c838d016110d9565b965060808b013591508082111561147157600080fd5b61147d8c838d016110d9565b955060a08b013591508082111561149357600080fd5b506114a08b828c0161130a565b93505060c089013591506114b660e08a01611398565b90509295985092959890939650565b803561ffff811681146113af57600080fd5b6000602082840312156114e957600080fd5b6114f2826114c5565b9392505050565b60808152600061150c60808301876111c7565b60208382038185015261151f82886111c7565b9150838203604085015261153382876111c7565b8481036060860152915081608081018660005b600481101561157157858303845261155f8383516111c7565b93850193925090840190600101611546565b50909a9950505050505050505050565b600080600080600060a0868803121561159957600080fd5b6115a2866114c5565b94506115b0602087016114c5565b93506115be604087016114c5565b92506115cc60608701611398565b91506115da60808701611398565b90509295509295909350565b6000806000606084860312156115fb57600080fd5b61160484611398565b9250602084013567ffffffffffffffff81111561162057600080fd5b61162c868287016110d9565b925050604084013590509250925092565b60006020828403121561164f57600080fd5b6114f282611398565b60a08152600061166b60a08301886111c7565b828103602084015261167d81886111c7565b9050828103604084015261169181876111c7565b606084019590955250506001600160a01b03919091166080909101529392505050565b600082516116c68184602087016111a3565b9190910192915050565b600181811c908216806116e457607f821691505b60208210810361170457634e487b7160e01b600052602260045260246000fd5b50919050565b60006020828403121561171c57600080fd5b5051919050565b6020815260006114f260208301846111c7565b60006020828403121561174857600080fd5b815180151581146114f257600080fd5b601f82111561179e57600081815260208120601f850160051c8101602086101561177f5750805b601f850160051c820191505b81811015610aa15782815560010161178b565b505050565b815167ffffffffffffffff8111156117bd576117bd6110c3565b6117d1816117cb84546116d0565b84611758565b602080601f83116001811461180657600084156117ee5750858301515b600019600386901b1c1916600185901b178555610aa1565b600085815260208120601f198616915b8281101561183557888601518255948401946001909101908401611816565b50858210156118535787850151600019600388901b60f8161c191681555b5050505050600190811b01905550565b60408152600061187660408301856111c7565b828103602084015261188881856111c7565b95945050505050565b6020808252602b908201527f496e697469616c697a61626c653a20636f6e7472616374206973206e6f74206960408201526a6e697469616c697a696e6760a81b60608201526080019056fea26469706673582212200b58018bbe9e6f971c0c49ba887b684cff4c42ef2b537e2c79b4938401f8aa1464736f6c63430008110033",
  "linkReferences": {},
  "deployedLinkReferences": {}
}