{
  "_format": "hh-sol-artifact-1",
  "contractName": "WowTCommunity",
  "sourceName": "contracts/wowTCommunity.sol",
  "abi": [
    {
      "anonymous": false,
      "inputs": [
        {
          "indexed": false,
          "internalType": "uint8",
          "name": "version",
          "type": "uint8"
        }
      ],
      "name": "Initialized",
      "type": "event"
    },
    {
      "anonymous": false,
      "inputs": [
        {
          "indexed": true,
          "internalType": "address",
          "name": "previousOwner",
          "type": "address"
        },
        {
          "indexed": true,
          "internalType": "address",
          "name": "newOwner",
          "type": "address"
        }
      ],
      "name": "OwnershipTransferred",
      "type": "event"
    },
    {
      "inputs": [
        {
          "internalType": "string",
          "name": "_communityName",
          "type": "string"
        },
        {
          "internalType": "address",
          "name": "_communityParticipant",
          "type": "address"
        }
      ],
      "name": "addMembers",
      "outputs": [],
      "stateMutability": "nonpayable",
      "type": "function"
    },
    {
      "inputs": [
        {
          "internalType": "string",
          "name": "_communityName",
          "type": "string"
        },
        {
          "internalType": "address",
          "name": "_communityParticipant",
          "type": "address"
        }
      ],
      "name": "checkMembership",
      "outputs": [
        {
          "internalType": "bool",
          "name": "",
          "type": "bool"
        }
      ],
      "stateMutability": "view",
      "type": "function"
    },
    {
      "inputs": [
        {
          "internalType": "string",
          "name": "_communityName",
          "type": "string"
        }
      ],
      "name": "checkQuizesforCommunity",
      "outputs": [
        {
          "internalType": "string[]",
          "name": "quizesforCommunity",
          "type": "string[]"
        }
      ],
      "stateMutability": "view",
      "type": "function"
    },
    {
      "inputs": [],
      "name": "communityEntryPoints",
      "outputs": [
        {
          "internalType": "uint16",
          "name": "",
          "type": "uint16"
        }
      ],
      "stateMutability": "view",
      "type": "function"
    },
    {
      "inputs": [
        {
          "internalType": "string",
          "name": "",
          "type": "string"
        }
      ],
      "name": "communityMap",
      "outputs": [
        {
          "internalType": "string",
          "name": "description",
          "type": "string"
        },
        {
          "internalType": "string",
          "name": "imageUrl",
          "type": "string"
        },
        {
          "internalType": "uint256",
          "name": "totalMembers",
          "type": "uint256"
        },
        {
          "internalType": "bool",
          "name": "exists",
          "type": "bool"
        }
      ],
      "stateMutability": "view",
      "type": "function"
    },
    {
      "inputs": [
        {
          "internalType": "string",
          "name": "_communityName",
          "type": "string"
        },
        {
          "internalType": "string",
          "name": "_description",
          "type": "string"
        },
        {
          "internalType": "string",
          "name": "_imageUrl",
          "type": "string"
        },
        {
          "internalType": "string[]",
          "name": "_quizesforEntry",
          "type": "string[]"
        }
      ],
      "name": "createCommunity",
      "outputs": [],
      "stateMutability": "nonpayable",
      "type": "function"
    },
    {
      "inputs": [
        {
          "internalType": "string",
          "name": "_communityName",
          "type": "string"
        },
        {
          "internalType": "string",
          "name": "_message",
          "type": "string"
        },
        {
          "internalType": "string",
          "name": "_imageUrl",
          "type": "string"
        },
        {
          "internalType": "address",
          "name": "_createrAddress",
          "type": "address"
        }
      ],
      "name": "createPost",
      "outputs": [],
      "stateMutability": "nonpayable",
      "type": "function"
    },
    {
      "inputs": [],
      "name": "getCommunities",
      "outputs": [
        {
          "internalType": "string[]",
          "name": "",
          "type": "string[]"
        }
      ],
      "stateMutability": "view",
      "type": "function"
    },
    {
      "inputs": [
        {
          "internalType": "string",
          "name": "_communityName",
          "type": "string"
        }
      ],
      "name": "getPosts",
      "outputs": [
        {
          "components": [
            {
              "internalType": "string",
              "name": "message",
              "type": "string"
            },
            {
              "internalType": "string",
              "name": "imageUrl",
              "type": "string"
            },
            {
              "internalType": "address",
              "name": "createrAddress",
              "type": "address"
            }
          ],
          "internalType": "struct WowTCommunity.CommunityPosts[]",
          "name": "",
          "type": "tuple[]"
        }
      ],
      "stateMutability": "view",
      "type": "function"
    },
    {
      "inputs": [
        {
          "internalType": "address",
          "name": "_pointsContract",
          "type": "address"
        },
        {
          "internalType": "uint16",
          "name": "_communityEntryPoints",
          "type": "uint16"
        }
      ],
      "name": "initialize",
      "outputs": [],
      "stateMutability": "nonpayable",
      "type": "function"
    },
    {
      "inputs": [],
      "name": "owner",
      "outputs": [
        {
          "internalType": "address",
          "name": "",
          "type": "address"
        }
      ],
      "stateMutability": "view",
      "type": "function"
    },
    {
      "inputs": [],
      "name": "pointsContract",
      "outputs": [
        {
          "internalType": "address",
          "name": "",
          "type": "address"
        }
      ],
      "stateMutability": "view",
      "type": "function"
    },
    {
      "inputs": [],
      "name": "renounceOwnership",
      "outputs": [],
      "stateMutability": "nonpayable",
      "type": "function"
    },
    {
      "inputs": [
        {
          "internalType": "uint16",
          "name": "_newCommunityEntryPoints",
          "type": "uint16"
        }
      ],
      "name": "setCommunityEntryPoints",
      "outputs": [],
      "stateMutability": "nonpayable",
      "type": "function"
    },
    {
      "inputs": [
        {
          "internalType": "address",
          "name": "newOwner",
          "type": "address"
        }
      ],
      "name": "transferOwnership",
      "outputs": [],
      "stateMutability": "nonpayable",
      "type": "function"
    }
  ],
  "bytecode": "0x608060405234801561001057600080fd5b506117bd806100206000396000f3fe608060405234801561001057600080fd5b50600436106100f55760003560e01c8063c9de260111610097578063ecf611f811610066578063ecf611f814610213578063edc245a714610233578063f2fde38b14610246578063f39e69a41461025957600080fd5b8063c9de2601146101a9578063d0f9e049146101ca578063d6227701146101dd578063e43220fa1461020057600080fd5b8063715018a6116100d3578063715018a6146101585780638da5cb5b14610160578063c251b56514610171578063c5d72adf1461018657600080fd5b806307321389146100fa5780632b4f8a1f1461010f5780632bf070e214610145575b600080fd5b61010d61010836600461108f565b61026c565b005b606554610128906201000090046001600160a01b031681565b6040516001600160a01b0390911681526020015b60405180910390f35b61010d61015336600461117f565b61028c565b61010d610416565b6033546001600160a01b0316610128565b61017961042a565b60405161013c9190611268565b6101996101943660046112ca565b610503565b604051901515815260200161013c565b6065546101b79061ffff1681565b60405161ffff909116815260200161013c565b61010d6101d8366004611318565b61054c565b6101f06101eb366004611444565b6106d0565b60405161013c9493929190611481565b61010d61020e3660046112ca565b610817565b610226610221366004611444565b610a57565b60405161013c91906114bf565b610179610241366004611444565b610c0e565b61010d610254366004611559565b610cfd565b61010d610267366004611574565b610d76565b610274610eb5565b6065805461ffff191661ffff92909216919091179055565b610294610eb5565b6068846040516102a4919061159e565b9081526040519081900360200190206005015460ff166103055760405162461bcd60e51b815260206004820152601760248201527610dbdb5b5d5b9a5d1e48191bd95cdb89dd08195e1a5cdd604a1b60448201526064015b60405180910390fd5b61030f8482610503565b6103675760405162461bcd60e51b8152602060048201526024808201527f596f7520617265206e6f74206d656d62657220696e207468697320636f6d6d756044820152636e69747960e01b60648201526084016102fc565b60408051606081018252848152602081018490526001600160a01b03831681830152905160699061039990879061159e565b9081526040516020918190038201902080546001810182556000918252919020825183926003029091019081906103d09082611642565b50602082015160018201906103e59082611642565b5060409190910151600290910180546001600160a01b0319166001600160a01b039092169190911790555050505050565b61041e610eb5565b6104286000610f0f565b565b60606066805480602002602001604051908101604052809291908181526020016000905b828210156104fa57838290600052602060002001805461046d906115ba565b80601f0160208091040260200160405190810160405280929190818152602001828054610499906115ba565b80156104e65780601f106104bb576101008083540402835291602001916104e6565b820191906000526020600020905b8154815290600101906020018083116104c957829003601f168201915b50505050508152602001906001019061044e565b50505050905090565b6000606883604051610515919061159e565b90815260408051602092819003830190206001600160a01b0385166000908152600290910190925290205460ff1690505b92915050565b610554610eb5565b606884604051610564919061159e565b9081526040519081900360200190206005015460ff16156105c75760405162461bcd60e51b815260206004820152601c60248201527f436f6d6d756e69747920697320616c726561647920637265617465640000000060448201526064016102fc565b606680546001810182556000919091527f46501879b8ca8525e8c2fd519e2fbfcfa2ebea26501294aa02cbfcfb12e94354016106038582611642565b5082606885604051610615919061159e565b9081526040519081900360200190209061062f9082611642565b506001606885604051610642919061159e565b908152604051908190036020018120600501805492151560ff1990931692909217909155829060689061067690879061159e565b908152602001604051809103902060010190816106939190611642565b50806068856040516106a5919061159e565b908152602001604051809103902060030190805190602001906106c9929190610fbb565b5050505050565b80516020818301810180516068825292820191909301209152805481906106f6906115ba565b80601f0160208091040260200160405190810160405280929190818152602001828054610722906115ba565b801561076f5780601f106107445761010080835404028352916020019161076f565b820191906000526020600020905b81548152906001019060200180831161075257829003601f168201915b505050505090806001018054610784906115ba565b80601f01602080910402602001604051908101604052809291908181526020018280546107b0906115ba565b80156107fd5780601f106107d2576101008083540402835291602001916107fd565b820191906000526020600020905b8154815290600101906020018083116107e057829003601f168201915b50505050600483015460059093015491929160ff16905084565b61081f610eb5565b60688260405161082f919061159e565b9081526040519081900360200190206005015460ff1661088b5760405162461bcd60e51b815260206004820152601760248201527610dbdb5b5d5b9a5d1e48191bd95cdb89dd08195e1a5cdd604a1b60448201526064016102fc565b60688260405161089b919061159e565b90815260408051602092819003830190206001600160a01b0384166000908152600290910190925290205460ff16156109165760405162461bcd60e51b815260206004820152601d60248201527f416c72656164792061206d656d626572206f6620636f6d6d756e69747900000060448201526064016102fc565b60655460675460405163ee204abb60e01b81526001600160a01b03848116600483015261ffff909316929091169063ee204abb90602401602060405180830381865afa15801561096a573d6000803e3d6000fd5b505050506040513d601f19601f8201168201806040525081019061098e9190611702565b116109d15760405162461bcd60e51b8152602060048201526013602482015272496e73756666696369656e7420706f696e747360681b60448201526064016102fc565b60016068836040516109e3919061159e565b90815260408051602092819003830181206001600160a01b038616600090815260029091019093529120805460ff191692151592909217909155600190606890610a2e90859061159e565b90815260200160405180910390206004016000828254610a4e919061171b565b90915550505050565b6060606982604051610a69919061159e565b9081526020016040518091039020805480602002602001604051908101604052809291908181526020016000905b82821015610c035783829060005260206000209060030201604051806060016040529081600082018054610aca906115ba565b80601f0160208091040260200160405190810160405280929190818152602001828054610af6906115ba565b8015610b435780601f10610b1857610100808354040283529160200191610b43565b820191906000526020600020905b815481529060010190602001808311610b2657829003601f168201915b50505050508152602001600182018054610b5c906115ba565b80601f0160208091040260200160405190810160405280929190818152602001828054610b88906115ba565b8015610bd55780601f10610baa57610100808354040283529160200191610bd5565b820191906000526020600020905b815481529060010190602001808311610bb857829003601f168201915b5050509183525050600291909101546001600160a01b03166020918201529082526001929092019101610a97565b505050509050919050565b6060606882604051610c20919061159e565b9081526020016040518091039020600301805480602002602001604051908101604052809291908181526020016000905b82821015610c03578382906000526020600020018054610c70906115ba565b80601f0160208091040260200160405190810160405280929190818152602001828054610c9c906115ba565b8015610ce95780601f10610cbe57610100808354040283529160200191610ce9565b820191906000526020600020905b815481529060010190602001808311610ccc57829003601f168201915b505050505081526020019060010190610c51565b610d05610eb5565b6001600160a01b038116610d6a5760405162461bcd60e51b815260206004820152602660248201527f4f776e61626c653a206e6577206f776e657220697320746865207a65726f206160448201526564647265737360d01b60648201526084016102fc565b610d7381610f0f565b50565b600054610100900460ff1615808015610d965750600054600160ff909116105b80610db05750303b158015610db0575060005460ff166001145b610e135760405162461bcd60e51b815260206004820152602e60248201527f496e697469616c697a61626c653a20636f6e747261637420697320616c72656160448201526d191e481a5b9a5d1a585b1a5e995960921b60648201526084016102fc565b6000805460ff191660011790558015610e36576000805461ff0019166101001790555b610e3e610f61565b6065805461ffff191661ffff8416179055606780546001600160a01b0319166001600160a01b0385161790558015610eb0576000805461ff0019169055604051600181527f7f26b83ff96e1f2b6a682f133852f6798a09c465da95921460cefb38474024989060200160405180910390a15b505050565b6033546001600160a01b031633146104285760405162461bcd60e51b815260206004820181905260248201527f4f776e61626c653a2063616c6c6572206973206e6f7420746865206f776e657260448201526064016102fc565b603380546001600160a01b038381166001600160a01b0319831681179093556040519116919082907f8be0079c531659141344cd1fd0a4f28419497f9722a3daafe3b4186f6b6457e090600090a35050565b600054610100900460ff16610f885760405162461bcd60e51b81526004016102fc9061173c565b610428600054610100900460ff16610fb25760405162461bcd60e51b81526004016102fc9061173c565b61042833610f0f565b828054828255906000526020600020908101928215611001579160200282015b828111156110015782518290610ff19082611642565b5091602001919060010190610fdb565b5061100d929150611011565b5090565b8082111561100d576000611025828261102e565b50600101611011565b50805461103a906115ba565b6000825580601f1061104a575050565b601f016020900490600052602060002090810190610d7391905b8082111561100d5760008155600101611064565b803561ffff8116811461108a57600080fd5b919050565b6000602082840312156110a157600080fd5b6110aa82611078565b9392505050565b634e487b7160e01b600052604160045260246000fd5b604051601f8201601f1916810167ffffffffffffffff811182821017156110f0576110f06110b1565b604052919050565b600082601f83011261110957600080fd5b813567ffffffffffffffff811115611123576111236110b1565b611136601f8201601f19166020016110c7565b81815284602083860101111561114b57600080fd5b816020850160208301376000918101602001919091529392505050565b80356001600160a01b038116811461108a57600080fd5b6000806000806080858703121561119557600080fd5b843567ffffffffffffffff808211156111ad57600080fd5b6111b9888389016110f8565b955060208701359150808211156111cf57600080fd5b6111db888389016110f8565b945060408701359150808211156111f157600080fd5b506111fe878288016110f8565b92505061120d60608601611168565b905092959194509250565b60005b8381101561123357818101518382015260200161121b565b50506000910152565b60008151808452611254816020860160208601611218565b601f01601f19169290920160200192915050565b6000602080830181845280855180835260408601915060408160051b870101925083870160005b828110156112bd57603f198886030184526112ab85835161123c565b9450928501929085019060010161128f565b5092979650505050505050565b600080604083850312156112dd57600080fd5b823567ffffffffffffffff8111156112f457600080fd5b611300858286016110f8565b92505061130f60208401611168565b90509250929050565b6000806000806080858703121561132e57600080fd5b843567ffffffffffffffff8082111561134657600080fd5b611352888389016110f8565b955060209150818701358181111561136957600080fd5b61137589828a016110f8565b95505060408701358181111561138a57600080fd5b61139689828a016110f8565b9450506060870135818111156113ab57600080fd5b8701601f810189136113bc57600080fd5b8035828111156113ce576113ce6110b1565b8060051b6113dd8582016110c7565b918252828101850191858101908c8411156113f757600080fd5b86850192505b83831015611433578235868111156114155760008081fd5b6114238e89838901016110f8565b83525091860191908601906113fd565b999c989b5096995050505050505050565b60006020828403121561145657600080fd5b813567ffffffffffffffff81111561146d57600080fd5b611479848285016110f8565b949350505050565b608081526000611494608083018761123c565b82810360208401526114a6818761123c565b6040840195909552505090151560609091015292915050565b60006020808301818452808551808352604092508286019150828160051b87010184880160005b8381101561154b57603f1989840301855281516060815181865261150c8287018261123c565b915050888201518582038a870152611524828261123c565b928901516001600160a01b03169589019590955250948701949250908601906001016114e6565b509098975050505050505050565b60006020828403121561156b57600080fd5b6110aa82611168565b6000806040838503121561158757600080fd5b61159083611168565b915061130f60208401611078565b600082516115b0818460208701611218565b9190910192915050565b600181811c908216806115ce57607f821691505b6020821081036115ee57634e487b7160e01b600052602260045260246000fd5b50919050565b601f821115610eb057600081815260208120601f850160051c8101602086101561161b5750805b601f850160051c820191505b8181101561163a57828155600101611627565b505050505050565b815167ffffffffffffffff81111561165c5761165c6110b1565b6116708161166a84546115ba565b846115f4565b602080601f8311600181146116a5576000841561168d5750858301515b600019600386901b1c1916600185901b17855561163a565b600085815260208120601f198616915b828110156116d4578886015182559484019460019091019084016116b5565b50858210156116f25787850151600019600388901b60f8161c191681555b5050505050600190811b01905550565b60006020828403121561171457600080fd5b5051919050565b8082018082111561054657634e487b7160e01b600052601160045260246000fd5b6020808252602b908201527f496e697469616c697a61626c653a20636f6e7472616374206973206e6f74206960408201526a6e697469616c697a696e6760a81b60608201526080019056fea264697066735822122010c4ef3d64ebe8186296d3612d603340db1a5c15735e03bd5c9a5bd1442a695364736f6c63430008110033",
  "linkReferences": {},
  "deployedLinkReferences": {}
}