{
  "_format": "hh-sol-artifact-1",
  "contractName": "WowTQuiz",
  "sourceName": "contracts/wowTQuiz.sol",
  "abi": [
    {
      "anonymous": false,
      "inputs": [
        {
          "indexed": true,
          "internalType": "bool",
          "name": "",
          "type": "bool"
        }
      ],
      "name": "Answer",
      "type": "event"
    },
    {
      "anonymous": false,
      "inputs": [
        {
          "indexed": false,
          "internalType": "uint8",
          "name": "version",
          "type": "uint8"
        }
      ],
      "name": "Initialized",
      "type": "event"
    },
    {
      "anonymous": false,
      "inputs": [
        {
          "indexed": true,
          "internalType": "address",
          "name": "previousOwner",
          "type": "address"
        },
        {
          "indexed": true,
          "internalType": "address",
          "name": "newOwner",
          "type": "address"
        }
      ],
      "name": "OwnershipTransferred",
      "type": "event"
    },
    {
      "inputs": [
        {
          "internalType": "string",
          "name": "_quizName",
          "type": "string"
        },
        {
          "internalType": "bytes32",
          "name": "choice",
          "type": "bytes32"
        }
      ],
      "name": "checkAnswer",
      "outputs": [
        {
          "internalType": "bool",
          "name": "",
          "type": "bool"
        }
      ],
      "stateMutability": "view",
      "type": "function"
    },
    {
      "inputs": [],
      "name": "createEligibility",
      "outputs": [
        {
          "internalType": "uint16",
          "name": "",
          "type": "uint16"
        }
      ],
      "stateMutability": "view",
      "type": "function"
    },
    {
      "inputs": [
        {
          "internalType": "string",
          "name": "_quizName",
          "type": "string"
        },
        {
          "internalType": "string",
          "name": "_description",
          "type": "string"
        },
        {
          "internalType": "string",
          "name": "_imageUrl",
          "type": "string"
        },
        {
          "internalType": "string",
          "name": "_question",
          "type": "string"
        },
        {
          "internalType": "string[4]",
          "name": "_options",
          "type": "string[4]"
        },
        {
          "internalType": "bytes32",
          "name": "_answer",
          "type": "bytes32"
        },
        {
          "internalType": "address",
          "name": "_creatorAddress",
          "type": "address"
        }
      ],
      "name": "createQuiz",
      "outputs": [],
      "stateMutability": "nonpayable",
      "type": "function"
    },
    {
      "inputs": [
        {
          "internalType": "string",
          "name": "_quizName",
          "type": "string"
        }
      ],
      "name": "getQuizdetails",
      "outputs": [
        {
          "components": [
            {
              "internalType": "string",
              "name": "description",
              "type": "string"
            },
            {
              "internalType": "string",
              "name": "imageUrl",
              "type": "string"
            },
            {
              "internalType": "string",
              "name": "question",
              "type": "string"
            },
            {
              "internalType": "string[4]",
              "name": "options",
              "type": "string[4]"
            },
            {
              "internalType": "bytes32",
              "name": "answer",
              "type": "bytes32"
            },
            {
              "internalType": "address",
              "name": "creatorAddress",
              "type": "address"
            }
          ],
          "internalType": "struct WowTQuiz.Quiz",
          "name": "",
          "type": "tuple"
        }
      ],
      "stateMutability": "view",
      "type": "function"
    },
    {
      "inputs": [
        {
          "internalType": "string",
          "name": "_quizName",
          "type": "string"
        }
      ],
      "name": "getstringQuizdetails",
      "outputs": [
        {
          "internalType": "string",
          "name": "",
          "type": "string"
        },
        {
          "internalType": "string",
          "name": "",
          "type": "string"
        },
        {
          "internalType": "string",
          "name": "",
          "type": "string"
        },
        {
          "internalType": "string[4]",
          "name": "",
          "type": "string[4]"
        }
      ],
      "stateMutability": "view",
      "type": "function"
    },
    {
      "inputs": [
        {
          "internalType": "uint16",
          "name": "_quizePoints",
          "type": "uint16"
        },
        {
          "internalType": "uint16",
          "name": "_createEligibility",
          "type": "uint16"
        },
        {
          "internalType": "uint16",
          "name": "_pointsToAnswer",
          "type": "uint16"
        },
        {
          "internalType": "address",
          "name": "_pointsContract",
          "type": "address"
        }
      ],
      "name": "initialize",
      "outputs": [],
      "stateMutability": "nonpayable",
      "type": "function"
    },
    {
      "inputs": [],
      "name": "owner",
      "outputs": [
        {
          "internalType": "address",
          "name": "",
          "type": "address"
        }
      ],
      "stateMutability": "view",
      "type": "function"
    },
    {
      "inputs": [],
      "name": "pointsToAnswer",
      "outputs": [
        {
          "internalType": "uint16",
          "name": "",
          "type": "uint16"
        }
      ],
      "stateMutability": "view",
      "type": "function"
    },
    {
      "inputs": [
        {
          "internalType": "address",
          "name": "_userAddress",
          "type": "address"
        },
        {
          "internalType": "string",
          "name": "_quizName",
          "type": "string"
        },
        {
          "internalType": "bytes32",
          "name": "choice",
          "type": "bytes32"
        }
      ],
      "name": "quizEval",
      "outputs": [],
      "stateMutability": "nonpayable",
      "type": "function"
    },
    {
      "inputs": [],
      "name": "quizePoints",
      "outputs": [
        {
          "internalType": "uint16",
          "name": "",
          "type": "uint16"
        }
      ],
      "stateMutability": "view",
      "type": "function"
    },
    {
      "inputs": [
        {
          "internalType": "string",
          "name": "",
          "type": "string"
        }
      ],
      "name": "quizmap",
      "outputs": [
        {
          "internalType": "string",
          "name": "description",
          "type": "string"
        },
        {
          "internalType": "string",
          "name": "imageUrl",
          "type": "string"
        },
        {
          "internalType": "string",
          "name": "question",
          "type": "string"
        },
        {
          "internalType": "bytes32",
          "name": "answer",
          "type": "bytes32"
        },
        {
          "internalType": "address",
          "name": "creatorAddress",
          "type": "address"
        }
      ],
      "stateMutability": "view",
      "type": "function"
    },
    {
      "inputs": [],
      "name": "renounceOwnership",
      "outputs": [],
      "stateMutability": "nonpayable",
      "type": "function"
    },
    {
      "inputs": [
        {
          "internalType": "uint16",
          "name": "_createEligibility",
          "type": "uint16"
        }
      ],
      "name": "setCreateEligibility",
      "outputs": [],
      "stateMutability": "nonpayable",
      "type": "function"
    },
    {
      "inputs": [
        {
          "internalType": "uint16",
          "name": "_pointsToAnswer",
          "type": "uint16"
        }
      ],
      "name": "setPointsToAnswer",
      "outputs": [],
      "stateMutability": "nonpayable",
      "type": "function"
    },
    {
      "inputs": [
        {
          "internalType": "uint16",
          "name": "_quizePoints",
          "type": "uint16"
        }
      ],
      "name": "setQuizePoints",
      "outputs": [],
      "stateMutability": "nonpayable",
      "type": "function"
    },
    {
      "inputs": [
        {
          "internalType": "address",
          "name": "newOwner",
          "type": "address"
        }
      ],
      "name": "transferOwnership",
      "outputs": [],
      "stateMutability": "nonpayable",
      "type": "function"
    }
  ],
  "bytecode": "0x608060405234801561001057600080fd5b5061178e806100206000396000f3fe608060405234801561001057600080fd5b50600436106101005760003560e01c80638da5cb5b11610097578063e4aa90c111610066578063e4aa90c114610235578063f2fde38b14610248578063f9994e2d1461025b578063fe4309d41461026957600080fd5b80638da5cb5b146101e057806393c5a677146101fb57806396bef46b1461020e578063c96b9c5a1461022257600080fd5b8063715018a6116100d3578063715018a61461018957806389c82895146101915780638c6f2c80146101a45780638d5410f8146101b757600080fd5b806316ecdad114610105578063326ca7121461012e5780635b0ebb1c146101515780635efe62e814610166575b600080fd5b610118610113366004611077565b61028d565b6040516101259190611104565b60405180910390f35b61014161013c3660046111d6565b61055d565b6040519015158152602001610125565b61016461015f366004611232565b610590565b005b610179610174366004611077565b6105bc565b6040516101259493929190611254565b6101646105f6565b61016461019f3660046112f3565b61060a565b6101646101b2366004611232565b610783565b6065546101cd90640100000000900461ffff1681565b60405161ffff9091168152602001610125565b6033546040516001600160a01b039091168152602001610125565b6101646102093660046113d5565b6107ab565b6065546101cd9062010000900461ffff1681565b6101646102303660046114c1565b6109c1565b610164610243366004611232565b6109ef565b610164610256366004611518565b610a0f565b6065546101cd9061ffff1681565b61027c610277366004611077565b610a88565b604051610125959493929190611533565b610295610ec1565b6066826040516102a5919061158f565b90815260200160405180910390206040518060c00160405290816000820180546102ce906115ab565b80601f01602080910402602001604051908101604052809291908181526020018280546102fa906115ab565b80156103475780601f1061031c57610100808354040283529160200191610347565b820191906000526020600020905b81548152906001019060200180831161032a57829003601f168201915b50505050508152602001600182018054610360906115ab565b80601f016020809104026020016040519081016040528092919081815260200182805461038c906115ab565b80156103d95780601f106103ae576101008083540402835291602001916103d9565b820191906000526020600020905b8154815290600101906020018083116103bc57829003601f168201915b505050505081526020016002820180546103f2906115ab565b80601f016020809104026020016040519081016040528092919081815260200182805461041e906115ab565b801561046b5780601f106104405761010080835404028352916020019161046b565b820191906000526020600020905b81548152906001019060200180831161044e57829003601f168201915b505050918352505060408051608081019091526020909101906003830160046000835b828210156105315783820180546104a4906115ab565b80601f01602080910402602001604051908101604052809291908181526020018280546104d0906115ab565b801561051d5780601f106104f25761010080835404028352916020019161051d565b820191906000526020600020905b81548152906001019060200180831161050057829003601f168201915b50505050508152602001906001019061048e565b50505090825250600782015460208201526008909101546001600160a01b031660409091015292915050565b6000806105698461028d565b60808101519091508381036105835760019250505061058a565b6000925050505b92915050565b610598610c63565b6065805461ffff9092166401000000000265ffff0000000019909216919091179055565b60608060606105c9610efd565b60006105d48661028d565b8051602082015160408301516060909301519199909850919650945092505050565b6105fe610c63565b6106086000610cbd565b565b600054610100900460ff161580801561062a5750600054600160ff909116105b806106445750303b158015610644575060005460ff166001145b6106ac5760405162461bcd60e51b815260206004820152602e60248201527f496e697469616c697a61626c653a20636f6e747261637420697320616c72656160448201526d191e481a5b9a5d1a585b1a5e995960921b60648201526084015b60405180910390fd5b6000805460ff1916600117905580156106cf576000805461ff0019166101001790555b6106d7610d0f565b6065805461ffff87811663ffffffff1990921691909117620100008783160217640100000000600160d01b031916640100000000918616919091026601000000000000600160d01b03191617600160301b6001600160a01b03851602179055801561077c576000805461ff0019169055604051600181527f7f26b83ff96e1f2b6a682f133852f6798a09c465da95921460cefb38474024989060200160405180910390a15b5050505050565b61078b610c63565b6065805461ffff909216620100000263ffff000019909216919091179055565b6107b3610c63565b60655460405163ee204abb60e01b81526001600160a01b038381166004830152600092600160301b9004169063ee204abb90602401602060405180830381865afa158015610805573d6000803e3d6000fd5b505050506040513d601f19601f8201168201806040525081019061082991906115e5565b9050601481118061084757506033546001600160a01b038381169116145b6108935760405162461bcd60e51b815260206004820152601f60248201527f4e6f7420656e6f75676820706f696e7420746f20637265617465205175697a0060448201526064016106a3565b866066896040516108a4919061158f565b908152604051908190036020019020906108be908261164d565b50846066896040516108d0919061158f565b908152602001604051809103902060020190816108ed919061164d565b50836066896040516108ff919061158f565b908152602001604051809103902060030190600461091e929190610f24565b5082606689604051610930919061158f565b90815260200160405180910390206007018190555085606689604051610956919061158f565b90815260200160405180910390206001019081610973919061164d565b5081606689604051610985919061158f565b90815260405190819003602001902060080180546001600160a01b03929092166001600160a01b03199092169190911790555050505050505050565b6109c9610c63565b60006109d48361028d565b905060008160800151905061077c8184878560a00151610d3e565b6109f7610c63565b6065805461ffff191661ffff92909216919091179055565b610a17610c63565b6001600160a01b038116610a7c5760405162461bcd60e51b815260206004820152602660248201527f4f776e61626c653a206e6577206f776e657220697320746865207a65726f206160448201526564647265737360d01b60648201526084016106a3565b610a8581610cbd565b50565b8051602081830181018051606682529282019190930120915280548190610aae906115ab565b80601f0160208091040260200160405190810160405280929190818152602001828054610ada906115ab565b8015610b275780601f10610afc57610100808354040283529160200191610b27565b820191906000526020600020905b815481529060010190602001808311610b0a57829003601f168201915b505050505090806001018054610b3c906115ab565b80601f0160208091040260200160405190810160405280929190818152602001828054610b68906115ab565b8015610bb55780601f10610b8a57610100808354040283529160200191610bb5565b820191906000526020600020905b815481529060010190602001808311610b9857829003601f168201915b505050505090806002018054610bca906115ab565b80601f0160208091040260200160405190810160405280929190818152602001828054610bf6906115ab565b8015610c435780601f10610c1857610100808354040283529160200191610c43565b820191906000526020600020905b815481529060010190602001808311610c2657829003601f168201915b5050505060078301546008909301549192916001600160a01b0316905085565b6033546001600160a01b031633146106085760405162461bcd60e51b815260206004820181905260248201527f4f776e61626c653a2063616c6c6572206973206e6f7420746865206f776e657260448201526064016106a3565b603380546001600160a01b038381166001600160a01b0319831681179093556040519116919082907f8be0079c531659141344cd1fd0a4f28419497f9722a3daafe3b4186f6b6457e090600090a35050565b600054610100900460ff16610d365760405162461bcd60e51b81526004016106a39061170d565b610608610e91565b828403610dee5760655460405163507cd30f60e01b81526001600160a01b038481166004830152640100000000830461ffff166024830152600160301b9092049091169063507cd30f90604401600060405180830381600087803b158015610da557600080fd5b505af1158015610db9573d6000803e3d6000fd5b5050604051600192507f1a8e889f14c3a3f7839e0905c7773af1a03ac2eaf0cd24fa2627fa164487d2559150600090a2610e1a565b6040516000907f1a8e889f14c3a3f7839e0905c7773af1a03ac2eaf0cd24fa2627fa164487d255908290a25b60655460405163507cd30f60e01b81526001600160a01b03838116600483015261ffff83166024830152600160301b9092049091169063507cd30f90604401600060405180830381600087803b158015610e7357600080fd5b505af1158015610e87573d6000803e3d6000fd5b5050505050505050565b600054610100900460ff16610eb85760405162461bcd60e51b81526004016106a39061170d565b61060833610cbd565b6040518060c00160405280606081526020016060815260200160608152602001610ee9610efd565b815260006020820181905260409091015290565b60405180608001604052806004905b6060815260200190600190039081610f0c5790505090565b8260048101928215610f5d579160200282015b82811115610f5d5782518290610f4d908261164d565b5091602001919060010190610f37565b50610f69929150610f6d565b5090565b80821115610f69576000610f818282610f8a565b50600101610f6d565b508054610f96906115ab565b6000825580601f10610fa6575050565b601f016020900490600052602060002090810190610a8591905b80821115610f695760008155600101610fc0565b634e487b7160e01b600052604160045260246000fd5b600082601f830112610ffb57600080fd5b813567ffffffffffffffff8082111561101657611016610fd4565b604051601f8301601f19908116603f0116810190828211818310171561103e5761103e610fd4565b8160405283815286602085880101111561105757600080fd5b836020870160208301376000602085830101528094505050505092915050565b60006020828403121561108957600080fd5b813567ffffffffffffffff8111156110a057600080fd5b6110ac84828501610fea565b949350505050565b60005b838110156110cf5781810151838201526020016110b7565b50506000910152565b600081518084526110f08160208601602086016110b4565b601f01601f19169290920160200192915050565b60006020808352835160c08285015261112060e08501826110d8565b905081850151601f198086840301604087015261113d83836110d8565b9250604087015191508086840301606087015261115a83836110d8565b9250606087015191508086840301608087015250818290506080830160005b60048110156111a45784820383526111928285516110d8565b93860193928601929150600101611179565b50608088015160a088015260a088015194506111cb60c08801866001600160a01b03169052565b979650505050505050565b600080604083850312156111e957600080fd5b823567ffffffffffffffff81111561120057600080fd5b61120c85828601610fea565b95602094909401359450505050565b803561ffff8116811461122d57600080fd5b919050565b60006020828403121561124457600080fd5b61124d8261121b565b9392505050565b60808152600061126760808301876110d8565b60208382038185015261127a82886110d8565b9150838203604085015261128e82876110d8565b8481036060860152915081608081018660005b60048110156112cc5785830384526112ba8383516110d8565b938501939250908401906001016112a1565b50909a9950505050505050505050565b80356001600160a01b038116811461122d57600080fd5b6000806000806080858703121561130957600080fd5b6113128561121b565b93506113206020860161121b565b925061132e6040860161121b565b915061133c606086016112dc565b905092959194509250565b600082601f83011261135857600080fd5b6040516080810167ffffffffffffffff828210818311171561137c5761137c610fd4565b81604052829150608085018681111561139457600080fd5b855b818110156113c9578035838111156113ae5760008081fd5b6113ba89828a01610fea565b85525060209384019301611396565b50929695505050505050565b600080600080600080600060e0888a0312156113f057600080fd5b873567ffffffffffffffff8082111561140857600080fd5b6114148b838c01610fea565b985060208a013591508082111561142a57600080fd5b6114368b838c01610fea565b975060408a013591508082111561144c57600080fd5b6114588b838c01610fea565b965060608a013591508082111561146e57600080fd5b61147a8b838c01610fea565b955060808a013591508082111561149057600080fd5b5061149d8a828b01611347565b93505060a088013591506114b360c089016112dc565b905092959891949750929550565b6000806000606084860312156114d657600080fd5b6114df846112dc565b9250602084013567ffffffffffffffff8111156114fb57600080fd5b61150786828701610fea565b925050604084013590509250925092565b60006020828403121561152a57600080fd5b61124d826112dc565b60a08152600061154660a08301886110d8565b828103602084015261155881886110d8565b9050828103604084015261156c81876110d8565b606084019590955250506001600160a01b03919091166080909101529392505050565b600082516115a18184602087016110b4565b9190910192915050565b600181811c908216806115bf57607f821691505b6020821081036115df57634e487b7160e01b600052602260045260246000fd5b50919050565b6000602082840312156115f757600080fd5b5051919050565b601f82111561164857600081815260208120601f850160051c810160208610156116255750805b601f850160051c820191505b8181101561164457828155600101611631565b5050505b505050565b815167ffffffffffffffff81111561166757611667610fd4565b61167b8161167584546115ab565b846115fe565b602080601f8311600181146116b057600084156116985750858301515b600019600386901b1c1916600185901b178555611644565b600085815260208120601f198616915b828110156116df578886015182559484019460019091019084016116c0565b50858210156116fd5787850151600019600388901b60f8161c191681555b5050505050600190811b01905550565b6020808252602b908201527f496e697469616c697a61626c653a20636f6e7472616374206973206e6f74206960408201526a6e697469616c697a696e6760a81b60608201526080019056fea2646970667358221220f1ff8a4e5a7009d66fc064c43cc2fd7a9eb836459d1045435d9e45e62beba1bc64736f6c63430008110033",
  "linkReferences": {},
  "deployedLinkReferences": {}
}