{
  "_format": "hh-sol-artifact-1",
  "contractName": "WowTCommunity",
  "sourceName": "contracts/wowTCommunity.sol",
  "abi": [
    {
      "anonymous": false,
      "inputs": [
        {
          "indexed": false,
          "internalType": "uint8",
          "name": "version",
          "type": "uint8"
        }
      ],
      "name": "Initialized",
      "type": "event"
    },
    {
      "anonymous": false,
      "inputs": [
        {
          "indexed": true,
          "internalType": "address",
          "name": "previousOwner",
          "type": "address"
        },
        {
          "indexed": true,
          "internalType": "address",
          "name": "newOwner",
          "type": "address"
        }
      ],
      "name": "OwnershipTransferred",
      "type": "event"
    },
    {
      "inputs": [
        {
          "internalType": "string",
          "name": "_communityName",
          "type": "string"
        },
        {
          "internalType": "address",
          "name": "_communityParticipant",
          "type": "address"
        }
      ],
      "name": "addMembers",
      "outputs": [],
      "stateMutability": "nonpayable",
      "type": "function"
    },
    {
      "inputs": [
        {
          "internalType": "string",
          "name": "_communityName",
          "type": "string"
        },
        {
          "internalType": "address",
          "name": "_communityParticipant",
          "type": "address"
        }
      ],
      "name": "checkMembership",
      "outputs": [
        {
          "internalType": "bool",
          "name": "",
          "type": "bool"
        }
      ],
      "stateMutability": "view",
      "type": "function"
    },
    {
      "inputs": [
        {
          "internalType": "string",
          "name": "_communityName",
          "type": "string"
        }
      ],
      "name": "checkQuizesforCommunity",
      "outputs": [
        {
          "internalType": "string[]",
          "name": "quizesforCommunity",
          "type": "string[]"
        }
      ],
      "stateMutability": "view",
      "type": "function"
    },
    {
      "inputs": [],
      "name": "communityEntryPoints",
      "outputs": [
        {
          "internalType": "uint16",
          "name": "",
          "type": "uint16"
        }
      ],
      "stateMutability": "view",
      "type": "function"
    },
    {
      "inputs": [
        {
          "internalType": "string",
          "name": "",
          "type": "string"
        }
      ],
      "name": "communityMap",
      "outputs": [
        {
          "internalType": "string",
          "name": "description",
          "type": "string"
        },
        {
          "internalType": "string",
          "name": "imageUrl",
          "type": "string"
        },
        {
          "internalType": "uint256",
          "name": "totalMembers",
          "type": "uint256"
        },
        {
          "internalType": "bool",
          "name": "exists",
          "type": "bool"
        }
      ],
      "stateMutability": "view",
      "type": "function"
    },
    {
      "inputs": [
        {
          "internalType": "string",
          "name": "_communityName",
          "type": "string"
        },
        {
          "internalType": "string",
          "name": "_description",
          "type": "string"
        },
        {
          "internalType": "string",
          "name": "_imageUrl",
          "type": "string"
        },
        {
          "internalType": "string[]",
          "name": "_quizesforEntry",
          "type": "string[]"
        }
      ],
      "name": "createCommunity",
      "outputs": [],
      "stateMutability": "nonpayable",
      "type": "function"
    },
    {
      "inputs": [],
      "name": "getCommunities",
      "outputs": [
        {
          "internalType": "string[]",
          "name": "",
          "type": "string[]"
        }
      ],
      "stateMutability": "view",
      "type": "function"
    },
    {
      "inputs": [
        {
          "internalType": "address",
          "name": "_pointsContract",
          "type": "address"
        },
        {
          "internalType": "uint16",
          "name": "_communityEntryPoints",
          "type": "uint16"
        }
      ],
      "name": "initialize",
      "outputs": [],
      "stateMutability": "nonpayable",
      "type": "function"
    },
    {
      "inputs": [],
      "name": "owner",
      "outputs": [
        {
          "internalType": "address",
          "name": "",
          "type": "address"
        }
      ],
      "stateMutability": "view",
      "type": "function"
    },
    {
      "inputs": [],
      "name": "pointsContract",
      "outputs": [
        {
          "internalType": "address",
          "name": "",
          "type": "address"
        }
      ],
      "stateMutability": "view",
      "type": "function"
    },
    {
      "inputs": [],
      "name": "renounceOwnership",
      "outputs": [],
      "stateMutability": "nonpayable",
      "type": "function"
    },
    {
      "inputs": [
        {
          "internalType": "uint16",
          "name": "_newCommunityEntryPoints",
          "type": "uint16"
        }
      ],
      "name": "setCommunityEntryPoints",
      "outputs": [],
      "stateMutability": "nonpayable",
      "type": "function"
    },
    {
      "inputs": [
        {
          "internalType": "address",
          "name": "newOwner",
          "type": "address"
        }
      ],
      "name": "transferOwnership",
      "outputs": [],
      "stateMutability": "nonpayable",
      "type": "function"
    }
  ],
  "bytecode": "0x608060405234801561001057600080fd5b50611306806100206000396000f3fe608060405234801561001057600080fd5b50600436106100cf5760003560e01c8063c9de26011161008c578063e43220fa11610066578063e43220fa146101c7578063edc245a7146101da578063f2fde38b146101ed578063f39e69a41461020057600080fd5b8063c9de260114610170578063d0f9e04914610191578063d6227701146101a457600080fd5b806307321389146100d45780632b4f8a1f146100e9578063715018a61461011f5780638da5cb5b14610127578063c251b56514610138578063c5d72adf1461014d575b600080fd5b6100e76100e2366004610d0b565b610213565b005b606554610102906201000090046001600160a01b031681565b6040516001600160a01b0390911681526020015b60405180910390f35b6100e7610233565b6033546001600160a01b0316610102565b610140610247565b6040516101169190610d7d565b61016061015b366004610ead565b610320565b6040519015158152602001610116565b60655461017e9061ffff1681565b60405161ffff9091168152602001610116565b6100e761019f366004610efb565b610369565b6101b76101b2366004611027565b6104f2565b6040516101169493929190611064565b6100e76101d5366004610ead565b610639565b6101406101e8366004611027565b61087f565b6100e76101fb3660046110a2565b610979565b6100e761020e3660046110bd565b6109f2565b61021b610b31565b6065805461ffff191661ffff92909216919091179055565b61023b610b31565b6102456000610b8b565b565b60606066805480602002602001604051908101604052809291908181526020016000905b8282101561031757838290600052602060002001805461028a906110e7565b80601f01602080910402602001604051908101604052809291908181526020018280546102b6906110e7565b80156103035780601f106102d857610100808354040283529160200191610303565b820191906000526020600020905b8154815290600101906020018083116102e657829003601f168201915b50505050508152602001906001019061026b565b50505050905090565b60006068836040516103329190611121565b90815260408051602092819003830190206001600160a01b0385166000908152600290910190925290205460ff1690505b92915050565b610371610b31565b6068846040516103819190611121565b9081526040519081900360200190206005015460ff16156103e95760405162461bcd60e51b815260206004820152601c60248201527f436f6d6d756e69747920697320616c726561647920637265617465640000000060448201526064015b60405180910390fd5b606680546001810182556000919091527f46501879b8ca8525e8c2fd519e2fbfcfa2ebea26501294aa02cbfcfb12e9435401610425858261118b565b50826068856040516104379190611121565b90815260405190819003602001902090610451908261118b565b5060016068856040516104649190611121565b908152604051908190036020018120600501805492151560ff19909316929092179091558290606890610498908790611121565b908152602001604051809103902060010190816104b5919061118b565b50806068856040516104c79190611121565b908152602001604051809103902060030190805190602001906104eb929190610c37565b5050505050565b8051602081830181018051606882529282019190930120915280548190610518906110e7565b80601f0160208091040260200160405190810160405280929190818152602001828054610544906110e7565b80156105915780601f1061056657610100808354040283529160200191610591565b820191906000526020600020905b81548152906001019060200180831161057457829003601f168201915b5050505050908060010180546105a6906110e7565b80601f01602080910402602001604051908101604052809291908181526020018280546105d2906110e7565b801561061f5780601f106105f45761010080835404028352916020019161061f565b820191906000526020600020905b81548152906001019060200180831161060257829003601f168201915b50505050600483015460059093015491929160ff16905084565b610641610b31565b6068826040516106519190611121565b9081526040519081900360200190206005015460ff166106b35760405162461bcd60e51b815260206004820152601760248201527f436f6d6d756e69747920646f65736e277420657869737400000000000000000060448201526064016103e0565b6068826040516106c39190611121565b90815260408051602092819003830190206001600160a01b0384166000908152600290910190925290205460ff161561073e5760405162461bcd60e51b815260206004820152601d60248201527f416c72656164792061206d656d626572206f6620636f6d6d756e69747900000060448201526064016103e0565b60655460675460405163ee204abb60e01b81526001600160a01b03848116600483015261ffff909316929091169063ee204abb90602401602060405180830381865afa158015610792573d6000803e3d6000fd5b505050506040513d601f19601f820116820180604052508101906107b6919061124b565b116107f95760405162461bcd60e51b8152602060048201526013602482015272496e73756666696369656e7420706f696e747360681b60448201526064016103e0565b600160688360405161080b9190611121565b90815260408051602092819003830181206001600160a01b038616600090815260029091019093529120805460ff191692151592909217909155600190606890610856908590611121565b908152602001604051809103902060040160008282546108769190611264565b90915550505050565b60606068826040516108919190611121565b9081526020016040518091039020600301805480602002602001604051908101604052809291908181526020016000905b8282101561096e5783829060005260206000200180546108e1906110e7565b80601f016020809104026020016040519081016040528092919081815260200182805461090d906110e7565b801561095a5780601f1061092f5761010080835404028352916020019161095a565b820191906000526020600020905b81548152906001019060200180831161093d57829003601f168201915b5050505050815260200190600101906108c2565b505050509050919050565b610981610b31565b6001600160a01b0381166109e65760405162461bcd60e51b815260206004820152602660248201527f4f776e61626c653a206e6577206f776e657220697320746865207a65726f206160448201526564647265737360d01b60648201526084016103e0565b6109ef81610b8b565b50565b600054610100900460ff1615808015610a125750600054600160ff909116105b80610a2c5750303b158015610a2c575060005460ff166001145b610a8f5760405162461bcd60e51b815260206004820152602e60248201527f496e697469616c697a61626c653a20636f6e747261637420697320616c72656160448201526d191e481a5b9a5d1a585b1a5e995960921b60648201526084016103e0565b6000805460ff191660011790558015610ab2576000805461ff0019166101001790555b610aba610bdd565b6065805461ffff191661ffff8416179055606780546001600160a01b0319166001600160a01b0385161790558015610b2c576000805461ff0019169055604051600181527f7f26b83ff96e1f2b6a682f133852f6798a09c465da95921460cefb38474024989060200160405180910390a15b505050565b6033546001600160a01b031633146102455760405162461bcd60e51b815260206004820181905260248201527f4f776e61626c653a2063616c6c6572206973206e6f7420746865206f776e657260448201526064016103e0565b603380546001600160a01b038381166001600160a01b0319831681179093556040519116919082907f8be0079c531659141344cd1fd0a4f28419497f9722a3daafe3b4186f6b6457e090600090a35050565b600054610100900460ff16610c045760405162461bcd60e51b81526004016103e090611285565b610245600054610100900460ff16610c2e5760405162461bcd60e51b81526004016103e090611285565b61024533610b8b565b828054828255906000526020600020908101928215610c7d579160200282015b82811115610c7d5782518290610c6d908261118b565b5091602001919060010190610c57565b50610c89929150610c8d565b5090565b80821115610c89576000610ca18282610caa565b50600101610c8d565b508054610cb6906110e7565b6000825580601f10610cc6575050565b601f0160209004906000526020600020908101906109ef91905b80821115610c895760008155600101610ce0565b803561ffff81168114610d0657600080fd5b919050565b600060208284031215610d1d57600080fd5b610d2682610cf4565b9392505050565b60005b83811015610d48578181015183820152602001610d30565b50506000910152565b60008151808452610d69816020860160208601610d2d565b601f01601f19169290920160200192915050565b6000602080830181845280855180835260408601915060408160051b870101925083870160005b82811015610dd257603f19888603018452610dc0858351610d51565b94509285019290850190600101610da4565b5092979650505050505050565b634e487b7160e01b600052604160045260246000fd5b604051601f8201601f1916810167ffffffffffffffff81118282101715610e1e57610e1e610ddf565b604052919050565b600082601f830112610e3757600080fd5b813567ffffffffffffffff811115610e5157610e51610ddf565b610e64601f8201601f1916602001610df5565b818152846020838601011115610e7957600080fd5b816020850160208301376000918101602001919091529392505050565b80356001600160a01b0381168114610d0657600080fd5b60008060408385031215610ec057600080fd5b823567ffffffffffffffff811115610ed757600080fd5b610ee385828601610e26565b925050610ef260208401610e96565b90509250929050565b60008060008060808587031215610f1157600080fd5b843567ffffffffffffffff80821115610f2957600080fd5b610f3588838901610e26565b9550602091508187013581811115610f4c57600080fd5b610f5889828a01610e26565b955050604087013581811115610f6d57600080fd5b610f7989828a01610e26565b945050606087013581811115610f8e57600080fd5b8701601f81018913610f9f57600080fd5b803582811115610fb157610fb1610ddf565b8060051b610fc0858201610df5565b918252828101850191858101908c841115610fda57600080fd5b86850192505b8383101561101657823586811115610ff85760008081fd5b6110068e8983890101610e26565b8352509186019190860190610fe0565b999c989b5096995050505050505050565b60006020828403121561103957600080fd5b813567ffffffffffffffff81111561105057600080fd5b61105c84828501610e26565b949350505050565b6080815260006110776080830187610d51565b82810360208401526110898187610d51565b6040840195909552505090151560609091015292915050565b6000602082840312156110b457600080fd5b610d2682610e96565b600080604083850312156110d057600080fd5b6110d983610e96565b9150610ef260208401610cf4565b600181811c908216806110fb57607f821691505b60208210810361111b57634e487b7160e01b600052602260045260246000fd5b50919050565b60008251611133818460208701610d2d565b9190910192915050565b601f821115610b2c57600081815260208120601f850160051c810160208610156111645750805b601f850160051c820191505b8181101561118357828155600101611170565b505050505050565b815167ffffffffffffffff8111156111a5576111a5610ddf565b6111b9816111b384546110e7565b8461113d565b602080601f8311600181146111ee57600084156111d65750858301515b600019600386901b1c1916600185901b178555611183565b600085815260208120601f198616915b8281101561121d578886015182559484019460019091019084016111fe565b508582101561123b5787850151600019600388901b60f8161c191681555b5050505050600190811b01905550565b60006020828403121561125d57600080fd5b5051919050565b8082018082111561036357634e487b7160e01b600052601160045260246000fd5b6020808252602b908201527f496e697469616c697a61626c653a20636f6e7472616374206973206e6f74206960408201526a6e697469616c697a696e6760a81b60608201526080019056fea26469706673582212204c1a1123018a0b1401ec8731be6704e55ee15db9e845323835bbf0e5b96caf2f64736f6c63430008110033",
  "linkReferences": {},
  "deployedLinkReferences": {}
}