{
  "_format": "hh-sol-artifact-1",
  "contractName": "WowTQuiz",
  "sourceName": "contracts/wowTQuiz.sol",
  "abi": [
    {
      "anonymous": false,
      "inputs": [
        {
          "indexed": false,
          "internalType": "bool",
          "name": "answer",
          "type": "bool"
        }
      ],
      "name": "CheckAnswer",
      "type": "event"
    },
    {
      "anonymous": false,
      "inputs": [
        {
          "indexed": false,
          "internalType": "uint8",
          "name": "version",
          "type": "uint8"
        }
      ],
      "name": "Initialized",
      "type": "event"
    },
    {
      "anonymous": false,
      "inputs": [
        {
          "indexed": true,
          "internalType": "address",
          "name": "previousOwner",
          "type": "address"
        },
        {
          "indexed": true,
          "internalType": "address",
          "name": "newOwner",
          "type": "address"
        }
      ],
      "name": "OwnershipTransferred",
      "type": "event"
    },
    {
      "inputs": [],
      "name": "createEligibility",
      "outputs": [
        {
          "internalType": "uint16",
          "name": "",
          "type": "uint16"
        }
      ],
      "stateMutability": "view",
      "type": "function"
    },
    {
      "inputs": [
        {
          "internalType": "string",
          "name": "_quizName",
          "type": "string"
        },
        {
          "components": [
            {
              "internalType": "string",
              "name": "question",
              "type": "string"
            },
            {
              "internalType": "string[4]",
              "name": "options",
              "type": "string[4]"
            },
            {
              "internalType": "bytes32",
              "name": "answer",
              "type": "bytes32"
            }
          ],
          "internalType": "struct WowTQuiz.Question",
          "name": "_question",
          "type": "tuple"
        },
        {
          "internalType": "string",
          "name": "_description",
          "type": "string"
        },
        {
          "internalType": "string",
          "name": "_imageUrl",
          "type": "string"
        }
      ],
      "name": "createQuiz",
      "outputs": [],
      "stateMutability": "nonpayable",
      "type": "function"
    },
    {
      "inputs": [
        {
          "internalType": "string",
          "name": "_quizName",
          "type": "string"
        }
      ],
      "name": "getQuizdetails",
      "outputs": [
        {
          "components": [
            {
              "internalType": "string",
              "name": "description",
              "type": "string"
            },
            {
              "internalType": "string",
              "name": "imageUrl",
              "type": "string"
            },
            {
              "internalType": "address[]",
              "name": "quizattenders",
              "type": "address[]"
            },
            {
              "components": [
                {
                  "internalType": "string",
                  "name": "question",
                  "type": "string"
                },
                {
                  "internalType": "string[4]",
                  "name": "options",
                  "type": "string[4]"
                },
                {
                  "internalType": "bytes32",
                  "name": "answer",
                  "type": "bytes32"
                }
              ],
              "internalType": "struct WowTQuiz.Question",
              "name": "question",
              "type": "tuple"
            },
            {
              "internalType": "address",
              "name": "creatorAddress",
              "type": "address"
            }
          ],
          "internalType": "struct WowTQuiz.Quiz",
          "name": "",
          "type": "tuple"
        }
      ],
      "stateMutability": "view",
      "type": "function"
    },
    {
      "inputs": [
        {
          "internalType": "uint16",
          "name": "_quizePoints",
          "type": "uint16"
        },
        {
          "internalType": "uint16",
          "name": "_createEligibility",
          "type": "uint16"
        },
        {
          "internalType": "uint16",
          "name": "_pointsToAnswer",
          "type": "uint16"
        },
        {
          "internalType": "string",
          "name": "_secret",
          "type": "string"
        },
        {
          "internalType": "address",
          "name": "_pointsContract",
          "type": "address"
        }
      ],
      "name": "initialize",
      "outputs": [],
      "stateMutability": "nonpayable",
      "type": "function"
    },
    {
      "inputs": [],
      "name": "owner",
      "outputs": [
        {
          "internalType": "address",
          "name": "",
          "type": "address"
        }
      ],
      "stateMutability": "view",
      "type": "function"
    },
    {
      "inputs": [],
      "name": "pointsToAnswer",
      "outputs": [
        {
          "internalType": "uint16",
          "name": "",
          "type": "uint16"
        }
      ],
      "stateMutability": "view",
      "type": "function"
    },
    {
      "inputs": [
        {
          "internalType": "address",
          "name": "_userAddress",
          "type": "address"
        },
        {
          "internalType": "string",
          "name": "_quizName",
          "type": "string"
        },
        {
          "internalType": "bytes32",
          "name": "choice",
          "type": "bytes32"
        }
      ],
      "name": "quizEval",
      "outputs": [],
      "stateMutability": "nonpayable",
      "type": "function"
    },
    {
      "inputs": [],
      "name": "quizePoints",
      "outputs": [
        {
          "internalType": "uint16",
          "name": "",
          "type": "uint16"
        }
      ],
      "stateMutability": "view",
      "type": "function"
    },
    {
      "inputs": [
        {
          "internalType": "string",
          "name": "",
          "type": "string"
        }
      ],
      "name": "quizmap",
      "outputs": [
        {
          "internalType": "string",
          "name": "description",
          "type": "string"
        },
        {
          "internalType": "string",
          "name": "imageUrl",
          "type": "string"
        },
        {
          "components": [
            {
              "internalType": "string",
              "name": "question",
              "type": "string"
            },
            {
              "internalType": "string[4]",
              "name": "options",
              "type": "string[4]"
            },
            {
              "internalType": "bytes32",
              "name": "answer",
              "type": "bytes32"
            }
          ],
          "internalType": "struct WowTQuiz.Question",
          "name": "question",
          "type": "tuple"
        },
        {
          "internalType": "address",
          "name": "creatorAddress",
          "type": "address"
        }
      ],
      "stateMutability": "view",
      "type": "function"
    },
    {
      "inputs": [],
      "name": "renounceOwnership",
      "outputs": [],
      "stateMutability": "nonpayable",
      "type": "function"
    },
    {
      "inputs": [
        {
          "internalType": "uint16",
          "name": "_createEligibility",
          "type": "uint16"
        }
      ],
      "name": "setCreateEligibility",
      "outputs": [],
      "stateMutability": "nonpayable",
      "type": "function"
    },
    {
      "inputs": [
        {
          "internalType": "uint16",
          "name": "_pointsToAnswer",
          "type": "uint16"
        }
      ],
      "name": "setPointsToAnswer",
      "outputs": [],
      "stateMutability": "nonpayable",
      "type": "function"
    },
    {
      "inputs": [
        {
          "internalType": "uint16",
          "name": "_quizePoints",
          "type": "uint16"
        }
      ],
      "name": "setQuizePoints",
      "outputs": [],
      "stateMutability": "nonpayable",
      "type": "function"
    },
    {
      "inputs": [
        {
          "internalType": "address",
          "name": "newOwner",
          "type": "address"
        }
      ],
      "name": "transferOwnership",
      "outputs": [],
      "stateMutability": "nonpayable",
      "type": "function"
    }
  ],
  "bytecode": "0x608060405234801561001057600080fd5b506117e5806100206000396000f3fe608060405234801561001057600080fd5b50600436106100ea5760003560e01c80638da5cb5b1161008c578063e4aa90c111610066578063e4aa90c1146101d9578063f2fde38b146101ec578063f9994e2d146101ff578063fe4309d41461020d57600080fd5b80638da5cb5b1461019757806396bef46b146101b2578063c96b9c5a146101c657600080fd5b80635b0ebb1c116100c85780635b0ebb1c14610140578063715018a6146101535780638c6f2c801461015b5780638d5410f81461016e57600080fd5b80630174014d146100ef57806316ecdad114610104578063548d59581461012d575b600080fd5b6101026100fd366004611130565b610230565b005b61011761011236600461128e565b61041e565b604051610124919061138d565b60405180910390f35b61010261013b366004611483565b610764565b61010261014e366004611503565b6108dc565b610102610908565b610102610169366004611503565b61091c565b60655461018490640100000000900461ffff1681565b60405161ffff9091168152602001610124565b6033546040516001600160a01b039091168152602001610124565b6065546101849062010000900461ffff1681565b6101026101d4366004611525565b610944565b6101026101e7366004611503565b610abb565b6101026101fa36600461157c565b610adb565b6065546101849061ffff1681565b61022061021b36600461128e565b610b54565b6040516101249493929190611597565b610238610e0b565b6067546000906001600160a01b031663ee204abb336040516001600160e01b031960e084901b1681526001600160a01b039091166004820152602401602060405180830381865afa158015610291573d6000803e3d6000fd5b505050506040513d601f19601f820116820180604052508101906102b591906115ea565b905060148111806102d057506033546001600160a01b031633145b6103215760405162461bcd60e51b815260206004820152601f60248201527f4e6f7420656e6f75676820706f696e7420746f20637265617465205175697a0060448201526064015b60405180910390fd5b826068866040516103329190611603565b9081526040519081900360200190209061034c90826116a4565b508360688660405161035e9190611603565b9081526040519081900360200190208151600390910190819061038190826116a4565b5060208201516103979060018301906004610f16565b5060408201518160050155905050816068866040516103b69190611603565b908152602001604051809103902060010190816103d391906116a4565b50336068866040516103e59190611603565b90815260405190819003602001902060090180546001600160a01b03929092166001600160a01b03199092169190911790555050505050565b610426610f5f565b6068826040516104369190611603565b90815260200160405180910390206040518060a001604052908160008201805461045f9061161f565b80601f016020809104026020016040519081016040528092919081815260200182805461048b9061161f565b80156104d85780601f106104ad576101008083540402835291602001916104d8565b820191906000526020600020905b8154815290600101906020018083116104bb57829003601f168201915b505050505081526020016001820180546104f19061161f565b80601f016020809104026020016040519081016040528092919081815260200182805461051d9061161f565b801561056a5780601f1061053f5761010080835404028352916020019161056a565b820191906000526020600020905b81548152906001019060200180831161054d57829003601f168201915b50505050508152602001600282018054806020026020016040519081016040528092919081815260200182805480156105cc57602002820191906000526020600020905b81546001600160a01b031681526001909101906020018083116105ae575b50505050508152602001600382016040518060600160405290816000820180546105f59061161f565b80601f01602080910402602001604051908101604052809291908181526020018280546106219061161f565b801561066e5780601f106106435761010080835404028352916020019161066e565b820191906000526020600020905b81548152906001019060200180831161065157829003601f168201915b505050918352505060408051608081019091526020909101906001830160046000835b828210156107345783820180546106a79061161f565b80601f01602080910402602001604051908101604052809291908181526020018280546106d39061161f565b80156107205780601f106106f557610100808354040283529160200191610720565b820191906000526020600020905b81548152906001019060200180831161070357829003601f168201915b505050505081526020019060010190610691565b5050509082525060059190910154602091820152908252600992909201546001600160a01b031691015292915050565b600054610100900460ff16158080156107845750600054600160ff909116105b8061079e5750303b15801561079e575060005460ff166001145b6108015760405162461bcd60e51b815260206004820152602e60248201527f496e697469616c697a61626c653a20636f6e747261637420697320616c72656160448201526d191e481a5b9a5d1a585b1a5e995960921b6064820152608401610318565b6000805460ff191660011790558015610824576000805461ff0019166101001790555b61082c610e65565b6065805461ffff8681166401000000000265ffff0000000019898316620100000263ffffffff19909416928b16929092179290921716179055606661087184826116a4565b50606780546001600160a01b0319166001600160a01b03841617905580156108d4576000805461ff0019169055604051600181527f7f26b83ff96e1f2b6a682f133852f6798a09c465da95921460cefb3847402498906020015b60405180910390a15b505050505050565b6108e4610e0b565b6065805461ffff9092166401000000000265ffff0000000019909216919091179055565b610910610e0b565b61091a6000610e94565b565b610924610e0b565b6065805461ffff909216620100000263ffff000019909216919091179055565b61094c610e0b565b60006109578361041e565b6060810151604081015191925090838103610a8a5760675460655460405163507cd30f60e01b81526001600160a01b03898116600483015264010000000090920461ffff16602482015291169063507cd30f90604401600060405180830381600087803b1580156109c757600080fd5b505af11580156109db573d6000803e3d6000fd5b5050606754608086015160655460405163507cd30f60e01b81526001600160a01b03928316600482015261ffff90911660248201529116925063507cd30f9150604401600060405180830381600087803b158015610a3857600080fd5b505af1158015610a4c573d6000803e3d6000fd5b5050604051600181527f93283167efd8e26347af075b255814137470e049dfaaa0d1755309a229f8420a9250602001905060405180910390a16108d4565b604051600081527f93283167efd8e26347af075b255814137470e049dfaaa0d1755309a229f8420a906020016108cb565b610ac3610e0b565b6065805461ffff191661ffff92909216919091179055565b610ae3610e0b565b6001600160a01b038116610b485760405162461bcd60e51b815260206004820152602660248201527f4f776e61626c653a206e6577206f776e657220697320746865207a65726f206160448201526564647265737360d01b6064820152608401610318565b610b5181610e94565b50565b8051602081830181018051606882529282019190930120915280548190610b7a9061161f565b80601f0160208091040260200160405190810160405280929190818152602001828054610ba69061161f565b8015610bf35780601f10610bc857610100808354040283529160200191610bf3565b820191906000526020600020905b815481529060010190602001808311610bd657829003601f168201915b505050505090806001018054610c089061161f565b80601f0160208091040260200160405190810160405280929190818152602001828054610c349061161f565b8015610c815780601f10610c5657610100808354040283529160200191610c81565b820191906000526020600020905b815481529060010190602001808311610c6457829003601f168201915b50505050509080600301604051806060016040529081600082018054610ca69061161f565b80601f0160208091040260200160405190810160405280929190818152602001828054610cd29061161f565b8015610d1f5780601f10610cf457610100808354040283529160200191610d1f565b820191906000526020600020905b815481529060010190602001808311610d0257829003601f168201915b505050918352505060408051608081019091526020909101906001830160046000835b82821015610de5578382018054610d589061161f565b80601f0160208091040260200160405190810160405280929190818152602001828054610d849061161f565b8015610dd15780601f10610da657610100808354040283529160200191610dd1565b820191906000526020600020905b815481529060010190602001808311610db457829003601f168201915b505050505081526020019060010190610d42565b50505090825250600591909101546020909101526009909101546001600160a01b031684565b6033546001600160a01b0316331461091a5760405162461bcd60e51b815260206004820181905260248201527f4f776e61626c653a2063616c6c6572206973206e6f7420746865206f776e65726044820152606401610318565b600054610100900460ff16610e8c5760405162461bcd60e51b815260040161031890611764565b61091a610ee6565b603380546001600160a01b038381166001600160a01b0319831681179093556040519116919082907f8be0079c531659141344cd1fd0a4f28419497f9722a3daafe3b4186f6b6457e090600090a35050565b600054610100900460ff16610f0d5760405162461bcd60e51b815260040161031890611764565b61091a33610e94565b8260048101928215610f4f579160200282015b82811115610f4f5782518290610f3f90826116a4565b5091602001919060010190610f29565b50610f5b929150610f94565b5090565b6040518060a00160405280606081526020016060815260200160608152602001610f87610fb1565b8152600060209091015290565b80821115610f5b576000610fa88282610fcb565b50600101610f94565b604051806060016040528060608152602001610f87611005565b508054610fd79061161f565b6000825580601f10610fe7575050565b601f016020900490600052602060002090810190610b51919061102c565b60405180608001604052806004905b60608152602001906001900390816110145790505090565b5b80821115610f5b576000815560010161102d565b634e487b7160e01b600052604160045260246000fd5b6040516060810167ffffffffffffffff8111828210171561107a5761107a611041565b60405290565b6040516080810167ffffffffffffffff8111828210171561107a5761107a611041565b600082601f8301126110b457600080fd5b813567ffffffffffffffff808211156110cf576110cf611041565b604051601f8301601f19908116603f011681019082821181831017156110f7576110f7611041565b8160405283815286602085880101111561111057600080fd5b836020870160208301376000602085830101528094505050505092915050565b6000806000806080858703121561114657600080fd5b843567ffffffffffffffff8082111561115e57600080fd5b61116a888389016110a3565b9550602087013591508082111561118057600080fd5b908601906060828903121561119457600080fd5b61119c611057565b8235828111156111ab57600080fd5b6111b78a8286016110a3565b8252506020830135828111156111cc57600080fd5b8301601f81018a136111dd57600080fd5b6111e5611080565b80608083018c8111156111f757600080fd5b835b8181101561122c578035878111156112115760008081fd5b61121d8f8288016110a3565b855250602093840193016111f9565b50506020840152505060409283013583820152945090860135908082111561125357600080fd5b61125f888389016110a3565b9350606087013591508082111561127557600080fd5b50611282878288016110a3565b91505092959194509250565b6000602082840312156112a057600080fd5b813567ffffffffffffffff8111156112b757600080fd5b6112c3848285016110a3565b949350505050565b60005b838110156112e65781810151838201526020016112ce565b50506000910152565b600081518084526113078160208601602086016112cb565b601f01601f19169290920160200192915050565b600081516060845261133060608501826112ef565b6020848101518683038783015291925090826080810160005b60048110156113745785820383526113628285516112ef565b93850193928501929150600101611349565b5060408701516040890152809550505050505092915050565b60006020808352835160a0828501526113a960c08501826112ef565b905081850151601f19808684030160408701526113c683836112ef565b6040880151878203830160608901528051808352908601945060009350908501905b808410156114115784516001600160a01b031682529385019360019390930192908501906113e8565b50606088015194508187820301608088015261142d818661131b565b945050505050608084015161144d60a08501826001600160a01b03169052565b509392505050565b803561ffff8116811461146757600080fd5b919050565b80356001600160a01b038116811461146757600080fd5b600080600080600060a0868803121561149b57600080fd5b6114a486611455565b94506114b260208701611455565b93506114c060408701611455565b9250606086013567ffffffffffffffff8111156114dc57600080fd5b6114e8888289016110a3565b9250506114f76080870161146c565b90509295509295909350565b60006020828403121561151557600080fd5b61151e82611455565b9392505050565b60008060006060848603121561153a57600080fd5b6115438461146c565b9250602084013567ffffffffffffffff81111561155f57600080fd5b61156b868287016110a3565b925050604084013590509250925092565b60006020828403121561158e57600080fd5b61151e8261146c565b6080815260006115aa60808301876112ef565b82810360208401526115bc81876112ef565b905082810360408401526115d0818661131b565b91505060018060a01b038316606083015295945050505050565b6000602082840312156115fc57600080fd5b5051919050565b600082516116158184602087016112cb565b9190910192915050565b600181811c9082168061163357607f821691505b60208210810361165357634e487b7160e01b600052602260045260246000fd5b50919050565b601f82111561169f57600081815260208120601f850160051c810160208610156116805750805b601f850160051c820191505b818110156108d45782815560010161168c565b505050565b815167ffffffffffffffff8111156116be576116be611041565b6116d2816116cc845461161f565b84611659565b602080601f83116001811461170757600084156116ef5750858301515b600019600386901b1c1916600185901b1785556108d4565b600085815260208120601f198616915b8281101561173657888601518255948401946001909101908401611717565b50858210156117545787850151600019600388901b60f8161c191681555b5050505050600190811b01905550565b6020808252602b908201527f496e697469616c697a61626c653a20636f6e7472616374206973206e6f74206960408201526a6e697469616c697a696e6760a81b60608201526080019056fea2646970667358221220e3fd33bfef00ffb5ed7fb8038710902c7a89f244c4a192c2870d11ca5682ce5464736f6c63430008110033",
  "linkReferences": {},
  "deployedLinkReferences": {}
}