{
  "_format": "hh-sol-artifact-1",
  "contractName": "WowTReferral",
  "sourceName": "contracts/wowTReferral.sol",
  "abi": [
    {
      "anonymous": false,
      "inputs": [
        {
          "indexed": false,
          "internalType": "uint8",
          "name": "version",
          "type": "uint8"
        }
      ],
      "name": "Initialized",
      "type": "event"
    },
    {
      "anonymous": false,
      "inputs": [
        {
          "indexed": true,
          "internalType": "address",
          "name": "previousOwner",
          "type": "address"
        },
        {
          "indexed": true,
          "internalType": "address",
          "name": "newOwner",
          "type": "address"
        }
      ],
      "name": "OwnershipTransferred",
      "type": "event"
    },
    {
      "inputs": [
        {
          "internalType": "address",
          "name": "_installAddress",
          "type": "address"
        },
        {
          "internalType": "address",
          "name": "_referralAddress",
          "type": "address"
        }
      ],
      "name": "addReferralPoints",
      "outputs": [],
      "stateMutability": "nonpayable",
      "type": "function"
    },
    {
      "inputs": [
        {
          "internalType": "address",
          "name": "_account",
          "type": "address"
        }
      ],
      "name": "getReferrals",
      "outputs": [
        {
          "internalType": "address[]",
          "name": "",
          "type": "address[]"
        }
      ],
      "stateMutability": "view",
      "type": "function"
    },
    {
      "inputs": [
        {
          "internalType": "address",
          "name": "_account",
          "type": "address"
        }
      ],
      "name": "getReferrer",
      "outputs": [
        {
          "components": [
            {
              "internalType": "address",
              "name": "referralAddress",
              "type": "address"
            },
            {
              "internalType": "bool",
              "name": "referralExists",
              "type": "bool"
            }
          ],
          "internalType": "struct WowTReferral.ReferralUser",
          "name": "",
          "type": "tuple"
        }
      ],
      "stateMutability": "view",
      "type": "function"
    },
    {
      "inputs": [
        {
          "internalType": "address",
          "name": "_pointsContract",
          "type": "address"
        }
      ],
      "name": "initialize",
      "outputs": [],
      "stateMutability": "nonpayable",
      "type": "function"
    },
    {
      "inputs": [],
      "name": "owner",
      "outputs": [
        {
          "internalType": "address",
          "name": "",
          "type": "address"
        }
      ],
      "stateMutability": "view",
      "type": "function"
    },
    {
      "inputs": [],
      "name": "renounceOwnership",
      "outputs": [],
      "stateMutability": "nonpayable",
      "type": "function"
    },
    {
      "inputs": [
        {
          "internalType": "address",
          "name": "newOwner",
          "type": "address"
        }
      ],
      "name": "transferOwnership",
      "outputs": [],
      "stateMutability": "nonpayable",
      "type": "function"
    }
  ],
  "bytecode": "0x608060405234801561001057600080fd5b50610a93806100206000396000f3fe608060405234801561001057600080fd5b506004361061007d5760003560e01c8063715018a61161005b578063715018a6146101435780638da5cb5b1461014b578063c4d66de814610166578063f2fde38b1461017957600080fd5b80630af698801461008257806341a0894d146100975780634a9fefc7146100c0575b600080fd5b61009561009036600461094c565b61018c565b005b6100aa6100a536600461097f565b6105fb565b6040516100b791906109a1565b60405180910390f35b61011d6100ce36600461097f565b604080518082018252600080825260209182018190526001600160a01b039384168152606582528290208251808401909352549283168252600160a01b90920460ff1615159181019190915290565b6040805182516001600160a01b03168152602092830151151592810192909252016100b7565b610095610671565b6033546040516001600160a01b0390911681526020016100b7565b61009561017436600461097f565b610685565b61009561018736600461097f565b6107b1565b61019461082a565b6001600160a01b038216600090815260656020526040902054600160a01b900460ff16156102015760405162461bcd60e51b815260206004820152601560248201527420b63932b0b23c903430bb32903932b332b93930b960591b60448201526064015b60405180910390fd5b6067546040805163ce681ac360e01b815290516001600160a01b039092169163507cd30f918491849163ce681ac39160048083019260209291908290030181865afa158015610254573d6000803e3d6000fd5b505050506040513d601f19601f8201168201806040525081019061027891906109ee565b6040516001600160e01b031960e085901b1681526001600160a01b03909216600483015261ffff166024820152604401600060405180830381600087803b1580156102c257600080fd5b505af11580156102d6573d6000803e3d6000fd5b5050506001600160a01b03808416600081815260656020908152604080832080546001600160a81b031916868916908117600160a01b1790915583526066825280832080546001810182559084529282902090920180546001600160a01b031916909317909255606754815163ce681ac360e01b815291519316935063359efdf2928592859263ce681ac392600480830193928290030181865afa158015610382573d6000803e3d6000fd5b505050506040513d601f19601f820116820180604052508101906103a691906109ee565b6040516001600160e01b031960e085901b1681526001600160a01b03909216600483015261ffff166024820152604401600060405180830381600087803b1580156103f057600080fd5b505af1158015610404573d6000803e3d6000fd5b505050506001600160a01b038116600090815260656020526040902054600160a01b900460ff16156105f7576001600160a01b038082166000908152606560209081526040918290205460675483516372a2db8760e11b8152935191851694169263507cd30f928592859263e545b70e9260048083019391928290030181865afa158015610496573d6000803e3d6000fd5b505050506040513d601f19601f820116820180604052508101906104ba91906109ee565b6040516001600160e01b031960e085901b1681526001600160a01b03909216600483015261ffff166024820152604401600060405180830381600087803b15801561050457600080fd5b505af1158015610518573d6000803e3d6000fd5b5050606754604080516372a2db8760e11b815290516001600160a01b03909216935063359efdf292508491849163e545b70e9160048083019260209291908290030181865afa15801561056f573d6000803e3d6000fd5b505050506040513d601f19601f8201168201806040525081019061059391906109ee565b6040516001600160e01b031960e085901b1681526001600160a01b03909216600483015261ffff166024820152604401600060405180830381600087803b1580156105dd57600080fd5b505af11580156105f1573d6000803e3d6000fd5b50505050505b5050565b6001600160a01b03811660009081526066602090815260409182902080548351818402810184019094528084526060939283018282801561066557602002820191906000526020600020905b81546001600160a01b03168152600190910190602001808311610647575b50505050509050919050565b61067961082a565b6106836000610884565b565b600054610100900460ff16158080156106a55750600054600160ff909116105b806106bf5750303b1580156106bf575060005460ff166001145b6107225760405162461bcd60e51b815260206004820152602e60248201527f496e697469616c697a61626c653a20636f6e747261637420697320616c72656160448201526d191e481a5b9a5d1a585b1a5e995960921b60648201526084016101f8565b6000805460ff191660011790558015610745576000805461ff0019166101001790555b61074d6108d6565b606780546001600160a01b0319166001600160a01b03841617905580156105f7576000805461ff0019169055604051600181527f7f26b83ff96e1f2b6a682f133852f6798a09c465da95921460cefb38474024989060200160405180910390a15050565b6107b961082a565b6001600160a01b03811661081e5760405162461bcd60e51b815260206004820152602660248201527f4f776e61626c653a206e6577206f776e657220697320746865207a65726f206160448201526564647265737360d01b60648201526084016101f8565b61082781610884565b50565b6033546001600160a01b031633146106835760405162461bcd60e51b815260206004820181905260248201527f4f776e61626c653a2063616c6c6572206973206e6f7420746865206f776e657260448201526064016101f8565b603380546001600160a01b038381166001600160a01b0319831681179093556040519116919082907f8be0079c531659141344cd1fd0a4f28419497f9722a3daafe3b4186f6b6457e090600090a35050565b600054610100900460ff166108fd5760405162461bcd60e51b81526004016101f890610a12565b610683600054610100900460ff166109275760405162461bcd60e51b81526004016101f890610a12565b61068333610884565b80356001600160a01b038116811461094757600080fd5b919050565b6000806040838503121561095f57600080fd5b61096883610930565b915061097660208401610930565b90509250929050565b60006020828403121561099157600080fd5b61099a82610930565b9392505050565b6020808252825182820181905260009190848201906040850190845b818110156109e25783516001600160a01b0316835292840192918401916001016109bd565b50909695505050505050565b600060208284031215610a0057600080fd5b815161ffff8116811461099a57600080fd5b6020808252602b908201527f496e697469616c697a61626c653a20636f6e7472616374206973206e6f74206960408201526a6e697469616c697a696e6760a81b60608201526080019056fea2646970667358221220d4488b63298a2e22f9ce20be10ff232a096b7be0b1e20e0f144cc46a9643c9ba64736f6c63430008110033",
  "linkReferences": {},
  "deployedLinkReferences": {}
}