{
  "_format": "hh-sol-artifact-1",
  "contractName": "WowTReferral",
  "sourceName": "contracts/wowTReferral.sol",
  "abi": [
    {
      "anonymous": false,
      "inputs": [
        {
          "indexed": false,
          "internalType": "uint8",
          "name": "version",
          "type": "uint8"
        }
      ],
      "name": "Initialized",
      "type": "event"
    },
    {
      "anonymous": false,
      "inputs": [
        {
          "indexed": true,
          "internalType": "address",
          "name": "previousOwner",
          "type": "address"
        },
        {
          "indexed": true,
          "internalType": "address",
          "name": "newOwner",
          "type": "address"
        }
      ],
      "name": "OwnershipTransferred",
      "type": "event"
    },
    {
      "inputs": [
        {
          "internalType": "address",
          "name": "_installAddress",
          "type": "address"
        },
        {
          "internalType": "address",
          "name": "_referralAddress",
          "type": "address"
        }
      ],
      "name": "addReferralPoints",
      "outputs": [],
      "stateMutability": "nonpayable",
      "type": "function"
    },
    {
      "inputs": [
        {
          "internalType": "address",
          "name": "_user",
          "type": "address"
        }
      ],
      "name": "getReferrals",
      "outputs": [
        {
          "components": [
            {
              "internalType": "address",
              "name": "referralAddress",
              "type": "address"
            },
            {
              "internalType": "bool",
              "name": "referralExists",
              "type": "bool"
            }
          ],
          "internalType": "struct WowTReferral.ReferralUser",
          "name": "",
          "type": "tuple"
        }
      ],
      "stateMutability": "view",
      "type": "function"
    },
    {
      "inputs": [
        {
          "internalType": "address",
          "name": "_pointsContract",
          "type": "address"
        }
      ],
      "name": "initialize",
      "outputs": [],
      "stateMutability": "nonpayable",
      "type": "function"
    },
    {
      "inputs": [],
      "name": "owner",
      "outputs": [
        {
          "internalType": "address",
          "name": "",
          "type": "address"
        }
      ],
      "stateMutability": "view",
      "type": "function"
    },
    {
      "inputs": [],
      "name": "renounceOwnership",
      "outputs": [],
      "stateMutability": "nonpayable",
      "type": "function"
    },
    {
      "inputs": [
        {
          "internalType": "address",
          "name": "newOwner",
          "type": "address"
        }
      ],
      "name": "transferOwnership",
      "outputs": [],
      "stateMutability": "nonpayable",
      "type": "function"
    }
  ],
  "bytecode": "0x608060405234801561001057600080fd5b506108f9806100206000396000f3fe608060405234801561001057600080fd5b50600436106100625760003560e01c80630af698801461006757806341a0894d1461007c578063715018a6146101045780638da5cb5b1461010c578063c4d66de814610127578063f2fde38b1461013a575b600080fd5b61007a6100753660046107ff565b61014d565b005b6100d961008a366004610832565b604080518082018252600080825260209182018190526001600160a01b039384168152606582528290208251808401909352549283168252600160a01b90920460ff1615159181019190915290565b6040805182516001600160a01b03168152602092830151151592810192909252015b60405180910390f35b61007a61051f565b6033546040516001600160a01b0390911681526020016100fb565b61007a610135366004610832565b610533565b61007a610148366004610832565b610664565b6101556106dd565b6066546040805163ce681ac360e01b815290516001600160a01b039092169163507cd30f918491849163ce681ac39160048083019260209291908290030181865afa1580156101a8573d6000803e3d6000fd5b505050506040513d601f19601f820116820180604052508101906101cc9190610854565b6040516001600160e01b031960e085901b1681526001600160a01b03909216600483015261ffff166024820152604401600060405180830381600087803b15801561021657600080fd5b505af115801561022a573d6000803e3d6000fd5b5050506001600160a01b0380841660009081526065602090815260409182902080546001600160a81b03191684871617600160a01b179055606654825163ce681ac360e01b815292519316935063359efdf2928592859263ce681ac3926004808401938290030181865afa1580156102a6573d6000803e3d6000fd5b505050506040513d601f19601f820116820180604052508101906102ca9190610854565b6040516001600160e01b031960e085901b1681526001600160a01b03909216600483015261ffff166024820152604401600060405180830381600087803b15801561031457600080fd5b505af1158015610328573d6000803e3d6000fd5b505050506001600160a01b038116600090815260656020526040902054600160a01b900460ff161561051b576001600160a01b038082166000908152606560209081526040918290205460665483516372a2db8760e11b8152935191851694169263507cd30f928592859263e545b70e9260048083019391928290030181865afa1580156103ba573d6000803e3d6000fd5b505050506040513d601f19601f820116820180604052508101906103de9190610854565b6040516001600160e01b031960e085901b1681526001600160a01b03909216600483015261ffff166024820152604401600060405180830381600087803b15801561042857600080fd5b505af115801561043c573d6000803e3d6000fd5b5050606654604080516372a2db8760e11b815290516001600160a01b03909216935063359efdf292508491849163e545b70e9160048083019260209291908290030181865afa158015610493573d6000803e3d6000fd5b505050506040513d601f19601f820116820180604052508101906104b79190610854565b6040516001600160e01b031960e085901b1681526001600160a01b03909216600483015261ffff166024820152604401600060405180830381600087803b15801561050157600080fd5b505af1158015610515573d6000803e3d6000fd5b50505050505b5050565b6105276106dd565b6105316000610737565b565b600054610100900460ff16158080156105535750600054600160ff909116105b8061056d5750303b15801561056d575060005460ff166001145b6105d55760405162461bcd60e51b815260206004820152602e60248201527f496e697469616c697a61626c653a20636f6e747261637420697320616c72656160448201526d191e481a5b9a5d1a585b1a5e995960921b60648201526084015b60405180910390fd5b6000805460ff1916600117905580156105f8576000805461ff0019166101001790555b610600610789565b606680546001600160a01b0319166001600160a01b038416179055801561051b576000805461ff0019169055604051600181527f7f26b83ff96e1f2b6a682f133852f6798a09c465da95921460cefb38474024989060200160405180910390a15050565b61066c6106dd565b6001600160a01b0381166106d15760405162461bcd60e51b815260206004820152602660248201527f4f776e61626c653a206e6577206f776e657220697320746865207a65726f206160448201526564647265737360d01b60648201526084016105cc565b6106da81610737565b50565b6033546001600160a01b031633146105315760405162461bcd60e51b815260206004820181905260248201527f4f776e61626c653a2063616c6c6572206973206e6f7420746865206f776e657260448201526064016105cc565b603380546001600160a01b038381166001600160a01b0319831681179093556040519116919082907f8be0079c531659141344cd1fd0a4f28419497f9722a3daafe3b4186f6b6457e090600090a35050565b600054610100900460ff166107b05760405162461bcd60e51b81526004016105cc90610878565b610531600054610100900460ff166107da5760405162461bcd60e51b81526004016105cc90610878565b61053133610737565b80356001600160a01b03811681146107fa57600080fd5b919050565b6000806040838503121561081257600080fd5b61081b836107e3565b9150610829602084016107e3565b90509250929050565b60006020828403121561084457600080fd5b61084d826107e3565b9392505050565b60006020828403121561086657600080fd5b815161ffff8116811461084d57600080fd5b6020808252602b908201527f496e697469616c697a61626c653a20636f6e7472616374206973206e6f74206960408201526a6e697469616c697a696e6760a81b60608201526080019056fea26469706673582212207729395da82add2f937b874207252061403228afa9cd6601786d1521a847454164736f6c63430008110033",
  "linkReferences": {},
  "deployedLinkReferences": {}
}