{
  "_format": "hh-sol-artifact-1",
  "contractName": "WowTQuiz",
  "sourceName": "contracts/wowTQuiz.sol",
  "abi": [
    {
      "anonymous": false,
      "inputs": [
        {
          "indexed": false,
          "internalType": "bool",
          "name": "answer",
          "type": "bool"
        }
      ],
      "name": "Answer",
      "type": "event"
    },
    {
      "anonymous": false,
      "inputs": [
        {
          "indexed": false,
          "internalType": "uint8",
          "name": "version",
          "type": "uint8"
        }
      ],
      "name": "Initialized",
      "type": "event"
    },
    {
      "anonymous": false,
      "inputs": [
        {
          "indexed": true,
          "internalType": "address",
          "name": "previousOwner",
          "type": "address"
        },
        {
          "indexed": true,
          "internalType": "address",
          "name": "newOwner",
          "type": "address"
        }
      ],
      "name": "OwnershipTransferred",
      "type": "event"
    },
    {
      "inputs": [],
      "name": "createEligibility",
      "outputs": [
        {
          "internalType": "uint16",
          "name": "",
          "type": "uint16"
        }
      ],
      "stateMutability": "view",
      "type": "function"
    },
    {
      "inputs": [
        {
          "internalType": "string",
          "name": "_quizName",
          "type": "string"
        },
        {
          "components": [
            {
              "internalType": "string",
              "name": "question",
              "type": "string"
            },
            {
              "internalType": "string[4]",
              "name": "options",
              "type": "string[4]"
            },
            {
              "internalType": "bytes32",
              "name": "answer",
              "type": "bytes32"
            }
          ],
          "internalType": "struct WowTQuiz.Question",
          "name": "_question",
          "type": "tuple"
        },
        {
          "internalType": "string",
          "name": "_description",
          "type": "string"
        },
        {
          "internalType": "string",
          "name": "_imageUrl",
          "type": "string"
        },
        {
          "internalType": "address",
          "name": "_creatorAddress",
          "type": "address"
        }
      ],
      "name": "createQuiz",
      "outputs": [],
      "stateMutability": "nonpayable",
      "type": "function"
    },
    {
      "inputs": [
        {
          "internalType": "string",
          "name": "_quizName",
          "type": "string"
        }
      ],
      "name": "getQuizdetails",
      "outputs": [
        {
          "components": [
            {
              "internalType": "string",
              "name": "description",
              "type": "string"
            },
            {
              "internalType": "string",
              "name": "imageUrl",
              "type": "string"
            },
            {
              "internalType": "address[]",
              "name": "quizattenders",
              "type": "address[]"
            },
            {
              "components": [
                {
                  "internalType": "string",
                  "name": "question",
                  "type": "string"
                },
                {
                  "internalType": "string[4]",
                  "name": "options",
                  "type": "string[4]"
                },
                {
                  "internalType": "bytes32",
                  "name": "answer",
                  "type": "bytes32"
                }
              ],
              "internalType": "struct WowTQuiz.Question",
              "name": "question",
              "type": "tuple"
            },
            {
              "internalType": "address",
              "name": "creatorAddress",
              "type": "address"
            }
          ],
          "internalType": "struct WowTQuiz.Quiz",
          "name": "",
          "type": "tuple"
        }
      ],
      "stateMutability": "view",
      "type": "function"
    },
    {
      "inputs": [
        {
          "internalType": "uint16",
          "name": "_quizePoints",
          "type": "uint16"
        },
        {
          "internalType": "uint16",
          "name": "_createEligibility",
          "type": "uint16"
        },
        {
          "internalType": "uint16",
          "name": "_pointsToAnswer",
          "type": "uint16"
        },
        {
          "internalType": "string",
          "name": "_secret",
          "type": "string"
        },
        {
          "internalType": "address",
          "name": "_pointsContract",
          "type": "address"
        }
      ],
      "name": "initialize",
      "outputs": [],
      "stateMutability": "nonpayable",
      "type": "function"
    },
    {
      "inputs": [],
      "name": "owner",
      "outputs": [
        {
          "internalType": "address",
          "name": "",
          "type": "address"
        }
      ],
      "stateMutability": "view",
      "type": "function"
    },
    {
      "inputs": [],
      "name": "pointsToAnswer",
      "outputs": [
        {
          "internalType": "uint16",
          "name": "",
          "type": "uint16"
        }
      ],
      "stateMutability": "view",
      "type": "function"
    },
    {
      "inputs": [
        {
          "internalType": "address",
          "name": "_userAddress",
          "type": "address"
        },
        {
          "internalType": "string",
          "name": "_quizName",
          "type": "string"
        },
        {
          "internalType": "bytes32",
          "name": "choice",
          "type": "bytes32"
        }
      ],
      "name": "quizEval",
      "outputs": [],
      "stateMutability": "nonpayable",
      "type": "function"
    },
    {
      "inputs": [],
      "name": "quizePoints",
      "outputs": [
        {
          "internalType": "uint16",
          "name": "",
          "type": "uint16"
        }
      ],
      "stateMutability": "view",
      "type": "function"
    },
    {
      "inputs": [
        {
          "internalType": "string",
          "name": "",
          "type": "string"
        }
      ],
      "name": "quizmap",
      "outputs": [
        {
          "internalType": "string",
          "name": "description",
          "type": "string"
        },
        {
          "internalType": "string",
          "name": "imageUrl",
          "type": "string"
        },
        {
          "components": [
            {
              "internalType": "string",
              "name": "question",
              "type": "string"
            },
            {
              "internalType": "string[4]",
              "name": "options",
              "type": "string[4]"
            },
            {
              "internalType": "bytes32",
              "name": "answer",
              "type": "bytes32"
            }
          ],
          "internalType": "struct WowTQuiz.Question",
          "name": "question",
          "type": "tuple"
        },
        {
          "internalType": "address",
          "name": "creatorAddress",
          "type": "address"
        }
      ],
      "stateMutability": "view",
      "type": "function"
    },
    {
      "inputs": [],
      "name": "renounceOwnership",
      "outputs": [],
      "stateMutability": "nonpayable",
      "type": "function"
    },
    {
      "inputs": [
        {
          "internalType": "uint16",
          "name": "_createEligibility",
          "type": "uint16"
        }
      ],
      "name": "setCreateEligibility",
      "outputs": [],
      "stateMutability": "nonpayable",
      "type": "function"
    },
    {
      "inputs": [
        {
          "internalType": "uint16",
          "name": "_pointsToAnswer",
          "type": "uint16"
        }
      ],
      "name": "setPointsToAnswer",
      "outputs": [],
      "stateMutability": "nonpayable",
      "type": "function"
    },
    {
      "inputs": [
        {
          "internalType": "uint16",
          "name": "_quizePoints",
          "type": "uint16"
        }
      ],
      "name": "setQuizePoints",
      "outputs": [],
      "stateMutability": "nonpayable",
      "type": "function"
    },
    {
      "inputs": [
        {
          "internalType": "address",
          "name": "newOwner",
          "type": "address"
        }
      ],
      "name": "transferOwnership",
      "outputs": [],
      "stateMutability": "nonpayable",
      "type": "function"
    }
  ],
  "bytecode": "0x608060405234801561001057600080fd5b506117d1806100206000396000f3fe608060405234801561001057600080fd5b50600436106100ea5760003560e01c8063921cc37c1161008c578063e4aa90c111610066578063e4aa90c1146101d9578063f2fde38b146101ec578063f9994e2d146101ff578063fe4309d41461020d57600080fd5b8063921cc37c1461019f57806396bef46b146101b2578063c96b9c5a146101c657600080fd5b8063715018a6116100c8578063715018a6146101405780638c6f2c80146101485780638d5410f81461015b5780638da5cb5b1461018457600080fd5b806316ecdad1146100ef578063548d5958146101185780635b0ebb1c1461012d575b600080fd5b6101026100fd366004611121565b610230565b60405161010f9190611220565b60405180910390f35b61012b610126366004611316565b610576565b005b61012b61013b366004611396565b6106f3565b61012b61071f565b61012b610156366004611396565b610733565b60655461017190640100000000900461ffff1681565b60405161ffff909116815260200161010f565b6033546040516001600160a01b03909116815260200161010f565b61012b6101ad3660046113b8565b61075b565b6065546101719062010000900461ffff1681565b61012b6101d4366004611511565b61093a565b61012b6101e7366004611396565b610ab1565b61012b6101fa366004611568565b610ad1565b6065546101719061ffff1681565b61022061021b366004611121565b610b4a565b60405161010f9493929190611583565b610238610f0c565b60688260405161024891906115d6565b90815260200160405180910390206040518060a0016040529081600082018054610271906115f2565b80601f016020809104026020016040519081016040528092919081815260200182805461029d906115f2565b80156102ea5780601f106102bf576101008083540402835291602001916102ea565b820191906000526020600020905b8154815290600101906020018083116102cd57829003601f168201915b50505050508152602001600182018054610303906115f2565b80601f016020809104026020016040519081016040528092919081815260200182805461032f906115f2565b801561037c5780601f106103515761010080835404028352916020019161037c565b820191906000526020600020905b81548152906001019060200180831161035f57829003601f168201915b50505050508152602001600282018054806020026020016040519081016040528092919081815260200182805480156103de57602002820191906000526020600020905b81546001600160a01b031681526001909101906020018083116103c0575b5050505050815260200160038201604051806060016040529081600082018054610407906115f2565b80601f0160208091040260200160405190810160405280929190818152602001828054610433906115f2565b80156104805780601f1061045557610100808354040283529160200191610480565b820191906000526020600020905b81548152906001019060200180831161046357829003601f168201915b505050918352505060408051608081019091526020909101906001830160046000835b828210156105465783820180546104b9906115f2565b80601f01602080910402602001604051908101604052809291908181526020018280546104e5906115f2565b80156105325780601f1061050757610100808354040283529160200191610532565b820191906000526020600020905b81548152906001019060200180831161051557829003601f168201915b5050505050815260200190600101906104a3565b5050509082525060059190910154602091820152908252600992909201546001600160a01b031691015292915050565b600054610100900460ff16158080156105965750600054600160ff909116105b806105b05750303b1580156105b0575060005460ff166001145b6106185760405162461bcd60e51b815260206004820152602e60248201527f496e697469616c697a61626c653a20636f6e747261637420697320616c72656160448201526d191e481a5b9a5d1a585b1a5e995960921b60648201526084015b60405180910390fd5b6000805460ff19166001179055801561063b576000805461ff0019166101001790555b610643610e01565b6065805461ffff8681166401000000000265ffff0000000019898316620100000263ffffffff19909416928b1692909217929092171617905560666106888482611677565b50606780546001600160a01b0319166001600160a01b03841617905580156106eb576000805461ff0019169055604051600181527f7f26b83ff96e1f2b6a682f133852f6798a09c465da95921460cefb3847402498906020015b60405180910390a15b505050505050565b6106fb610e30565b6065805461ffff9092166401000000000265ffff0000000019909216919091179055565b610727610e30565b6107316000610e8a565b565b61073b610e30565b6065805461ffff909216620100000263ffff000019909216919091179055565b610763610e30565b60675460405163ee204abb60e01b81526001600160a01b038381166004830152600092169063ee204abb90602401602060405180830381865afa1580156107ae573d6000803e3d6000fd5b505050506040513d601f19601f820116820180604052508101906107d29190611737565b905060148111806107f057506033546001600160a01b038381169116145b61083c5760405162461bcd60e51b815260206004820152601f60248201527f4e6f7420656e6f75676820706f696e7420746f20637265617465205175697a00604482015260640161060f565b8360688760405161084d91906115d6565b908152604051908190036020019020906108679082611677565b508460688760405161087991906115d6565b9081526040519081900360200190208151600390910190819061089c9082611677565b5060208201516108b29060018301906004610f41565b5060408201518160050155905050826068876040516108d191906115d6565b908152602001604051809103902060010190816108ee9190611677565b508160688760405161090091906115d6565b90815260405190819003602001902060090180546001600160a01b03929092166001600160a01b0319909216919091179055505050505050565b610942610e30565b600061094d83610230565b6060810151604081015191925090838103610a805760675460655460405163507cd30f60e01b81526001600160a01b03898116600483015264010000000090920461ffff16602482015291169063507cd30f90604401600060405180830381600087803b1580156109bd57600080fd5b505af11580156109d1573d6000803e3d6000fd5b5050606754608086015160655460405163507cd30f60e01b81526001600160a01b03928316600482015261ffff90911660248201529116925063507cd30f9150604401600060405180830381600087803b158015610a2e57600080fd5b505af1158015610a42573d6000803e3d6000fd5b5050604051600181527f1a8e889f14c3a3f7839e0905c7773af1a03ac2eaf0cd24fa2627fa164487d2559250602001905060405180910390a16106eb565b604051600081527f1a8e889f14c3a3f7839e0905c7773af1a03ac2eaf0cd24fa2627fa164487d255906020016106e2565b610ab9610e30565b6065805461ffff191661ffff92909216919091179055565b610ad9610e30565b6001600160a01b038116610b3e5760405162461bcd60e51b815260206004820152602660248201527f4f776e61626c653a206e6577206f776e657220697320746865207a65726f206160448201526564647265737360d01b606482015260840161060f565b610b4781610e8a565b50565b8051602081830181018051606882529282019190930120915280548190610b70906115f2565b80601f0160208091040260200160405190810160405280929190818152602001828054610b9c906115f2565b8015610be95780601f10610bbe57610100808354040283529160200191610be9565b820191906000526020600020905b815481529060010190602001808311610bcc57829003601f168201915b505050505090806001018054610bfe906115f2565b80601f0160208091040260200160405190810160405280929190818152602001828054610c2a906115f2565b8015610c775780601f10610c4c57610100808354040283529160200191610c77565b820191906000526020600020905b815481529060010190602001808311610c5a57829003601f168201915b50505050509080600301604051806060016040529081600082018054610c9c906115f2565b80601f0160208091040260200160405190810160405280929190818152602001828054610cc8906115f2565b8015610d155780601f10610cea57610100808354040283529160200191610d15565b820191906000526020600020905b815481529060010190602001808311610cf857829003601f168201915b505050918352505060408051608081019091526020909101906001830160046000835b82821015610ddb578382018054610d4e906115f2565b80601f0160208091040260200160405190810160405280929190818152602001828054610d7a906115f2565b8015610dc75780601f10610d9c57610100808354040283529160200191610dc7565b820191906000526020600020905b815481529060010190602001808311610daa57829003601f168201915b505050505081526020019060010190610d38565b50505090825250600591909101546020909101526009909101546001600160a01b031684565b600054610100900460ff16610e285760405162461bcd60e51b815260040161060f90611750565b610731610edc565b6033546001600160a01b031633146107315760405162461bcd60e51b815260206004820181905260248201527f4f776e61626c653a2063616c6c6572206973206e6f7420746865206f776e6572604482015260640161060f565b603380546001600160a01b038381166001600160a01b0319831681179093556040519116919082907f8be0079c531659141344cd1fd0a4f28419497f9722a3daafe3b4186f6b6457e090600090a35050565b600054610100900460ff16610f035760405162461bcd60e51b815260040161060f90611750565b61073133610e8a565b6040518060a00160405280606081526020016060815260200160608152602001610f34610f8a565b8152600060209091015290565b8260048101928215610f7a579160200282015b82811115610f7a5782518290610f6a9082611677565b5091602001919060010190610f54565b50610f86929150610fa4565b5090565b604051806060016040528060608152602001610f34610fc1565b80821115610f86576000610fb88282610fe8565b50600101610fa4565b60405180608001604052806004905b6060815260200190600190039081610fd05790505090565b508054610ff4906115f2565b6000825580601f10611004575050565b601f016020900490600052602060002090810190610b4791905b80821115610f86576000815560010161101e565b634e487b7160e01b600052604160045260246000fd5b6040516060810167ffffffffffffffff8111828210171561106b5761106b611032565b60405290565b6040516080810167ffffffffffffffff8111828210171561106b5761106b611032565b600082601f8301126110a557600080fd5b813567ffffffffffffffff808211156110c0576110c0611032565b604051601f8301601f19908116603f011681019082821181831017156110e8576110e8611032565b8160405283815286602085880101111561110157600080fd5b836020870160208301376000602085830101528094505050505092915050565b60006020828403121561113357600080fd5b813567ffffffffffffffff81111561114a57600080fd5b61115684828501611094565b949350505050565b60005b83811015611179578181015183820152602001611161565b50506000910152565b6000815180845261119a81602086016020860161115e565b601f01601f19169290920160200192915050565b60008151606084526111c36060850182611182565b6020848101518683038783015291925090826080810160005b60048110156112075785820383526111f5828551611182565b938501939285019291506001016111dc565b5060408701516040890152809550505050505092915050565b60006020808352835160a08285015261123c60c0850182611182565b905081850151601f19808684030160408701526112598383611182565b6040880151878203830160608901528051808352908601945060009350908501905b808410156112a45784516001600160a01b0316825293850193600193909301929085019061127b565b5060608801519450818782030160808801526112c081866111ae565b94505050505060808401516112e060a08501826001600160a01b03169052565b509392505050565b803561ffff811681146112fa57600080fd5b919050565b80356001600160a01b03811681146112fa57600080fd5b600080600080600060a0868803121561132e57600080fd5b611337866112e8565b9450611345602087016112e8565b9350611353604087016112e8565b9250606086013567ffffffffffffffff81111561136f57600080fd5b61137b88828901611094565b92505061138a608087016112ff565b90509295509295909350565b6000602082840312156113a857600080fd5b6113b1826112e8565b9392505050565b600080600080600060a086880312156113d057600080fd5b67ffffffffffffffff80873511156113e757600080fd5b6113f48888358901611094565b955060208701358181111561140857600080fd5b87016060818a03121561141a57600080fd5b611422611048565b828235111561143057600080fd5b61143d8a83358401611094565b815260208201358381111561145157600080fd5b8201601f81018b1361146257600080fd5b61146a611071565b80608083018d81111561147c57600080fd5b835b818110156114af57878135111561149457600080fd5b6114a18f82358701611094565b84526020938401930161147e565b505060208401525050604091820135828201529550870135818111156114d457600080fd5b6114e089828a01611094565b9450506060870135818111156114f557600080fd5b61150189828a01611094565b9350505061138a608087016112ff565b60008060006060848603121561152657600080fd5b61152f846112ff565b9250602084013567ffffffffffffffff81111561154b57600080fd5b61155786828701611094565b925050604084013590509250925092565b60006020828403121561157a57600080fd5b6113b1826112ff565b6080815260006115966080830187611182565b82810360208401526115a88187611182565b905082810360408401526115bc81866111ae565b91505060018060a01b038316606083015295945050505050565b600082516115e881846020870161115e565b9190910192915050565b600181811c9082168061160657607f821691505b60208210810361162657634e487b7160e01b600052602260045260246000fd5b50919050565b601f82111561167257600081815260208120601f850160051c810160208610156116535750805b601f850160051c820191505b818110156106eb5782815560010161165f565b505050565b815167ffffffffffffffff81111561169157611691611032565b6116a58161169f84546115f2565b8461162c565b602080601f8311600181146116da57600084156116c25750858301515b600019600386901b1c1916600185901b1785556106eb565b600085815260208120601f198616915b82811015611709578886015182559484019460019091019084016116ea565b50858210156117275787850151600019600388901b60f8161c191681555b5050505050600190811b01905550565b60006020828403121561174957600080fd5b5051919050565b6020808252602b908201527f496e697469616c697a61626c653a20636f6e7472616374206973206e6f74206960408201526a6e697469616c697a696e6760a81b60608201526080019056fea2646970667358221220a2f244117c712649c0231fe829f96c6a91e6e7204f2845d1916c09203f29ce2364736f6c63430008110033",
  "linkReferences": {},
  "deployedLinkReferences": {}
}