{
  "_format": "hh-sol-artifact-1",
  "contractName": "WowTReferral",
  "sourceName": "contracts/wowTReferral.sol",
  "abi": [
    {
      "anonymous": false,
      "inputs": [
        {
          "indexed": false,
          "internalType": "uint8",
          "name": "version",
          "type": "uint8"
        }
      ],
      "name": "Initialized",
      "type": "event"
    },
    {
      "anonymous": false,
      "inputs": [
        {
          "indexed": true,
          "internalType": "address",
          "name": "previousOwner",
          "type": "address"
        },
        {
          "indexed": true,
          "internalType": "address",
          "name": "newOwner",
          "type": "address"
        }
      ],
      "name": "OwnershipTransferred",
      "type": "event"
    },
    {
      "inputs": [
        {
          "internalType": "address",
          "name": "_installAddress",
          "type": "address"
        },
        {
          "internalType": "address",
          "name": "_referralAddress",
          "type": "address"
        }
      ],
      "name": "addReferralPoints",
      "outputs": [],
      "stateMutability": "nonpayable",
      "type": "function"
    },
    {
      "inputs": [
        {
          "internalType": "address",
          "name": "_user",
          "type": "address"
        }
      ],
      "name": "getReferrals",
      "outputs": [
        {
          "components": [
            {
              "internalType": "address",
              "name": "referralAddress",
              "type": "address"
            },
            {
              "internalType": "bool",
              "name": "referralExists",
              "type": "bool"
            }
          ],
          "internalType": "struct WowTReferral.ReferralUser",
          "name": "",
          "type": "tuple"
        }
      ],
      "stateMutability": "view",
      "type": "function"
    },
    {
      "inputs": [
        {
          "internalType": "address",
          "name": "_pointsContract",
          "type": "address"
        }
      ],
      "name": "initialize",
      "outputs": [],
      "stateMutability": "nonpayable",
      "type": "function"
    },
    {
      "inputs": [],
      "name": "owner",
      "outputs": [
        {
          "internalType": "address",
          "name": "",
          "type": "address"
        }
      ],
      "stateMutability": "view",
      "type": "function"
    },
    {
      "inputs": [],
      "name": "renounceOwnership",
      "outputs": [],
      "stateMutability": "nonpayable",
      "type": "function"
    },
    {
      "inputs": [
        {
          "internalType": "address",
          "name": "newOwner",
          "type": "address"
        }
      ],
      "name": "transferOwnership",
      "outputs": [],
      "stateMutability": "nonpayable",
      "type": "function"
    }
  ],
  "bytecode": "0x608060405234801561001057600080fd5b5061073f806100206000396000f3fe608060405234801561001057600080fd5b50600436106100625760003560e01c80630af698801461006757806341a0894d1461007c578063715018a6146101045780638da5cb5b1461010c578063c4d66de814610127578063f2fde38b1461013a575b600080fd5b61007a610075366004610645565b61014d565b005b6100d961008a366004610678565b604080518082018252600080825260209182018190526001600160a01b039384168152606682528290208251808401909352549283168252600160a01b90920460ff1615159181019190915290565b6040805182516001600160a01b03168152602092830151151592810192909252015b60405180910390f35b61007a610365565b6033546040516001600160a01b0390911681526020016100fb565b61007a610135366004610678565b610379565b61007a610148366004610678565b6104aa565b610155610523565b6065546040805163ce681ac360e01b815290516001600160a01b039092169163507cd30f918491849163ce681ac39160048083019260209291908290030181865afa1580156101a8573d6000803e3d6000fd5b505050506040513d601f19601f820116820180604052508101906101cc919061069a565b6040516001600160e01b031960e085901b1681526001600160a01b03909216600483015261ffff166024820152604401600060405180830381600087803b15801561021657600080fd5b505af115801561022a573d6000803e3d6000fd5b5050506001600160a01b0380841660009081526066602052604080822080546001600160a81b031916938616938417600160a01b9081179091559282529020540460ff16159050610361576065546001600160a01b038281166000908152606660209081526040918290205482516372a2db8760e11b815292519484169463507cd30f949190911692859263e545b70e926004808401938290030181865afa1580156102da573d6000803e3d6000fd5b505050506040513d601f19601f820116820180604052508101906102fe919061069a565b6040516001600160e01b031960e085901b1681526001600160a01b03909216600483015261ffff166024820152604401600060405180830381600087803b15801561034857600080fd5b505af115801561035c573d6000803e3d6000fd5b505050505b5050565b61036d610523565b610377600061057d565b565b600054610100900460ff16158080156103995750600054600160ff909116105b806103b35750303b1580156103b3575060005460ff166001145b61041b5760405162461bcd60e51b815260206004820152602e60248201527f496e697469616c697a61626c653a20636f6e747261637420697320616c72656160448201526d191e481a5b9a5d1a585b1a5e995960921b60648201526084015b60405180910390fd5b6000805460ff19166001179055801561043e576000805461ff0019166101001790555b6104466105cf565b606580546001600160a01b0319166001600160a01b0384161790558015610361576000805461ff0019169055604051600181527f7f26b83ff96e1f2b6a682f133852f6798a09c465da95921460cefb38474024989060200160405180910390a15050565b6104b2610523565b6001600160a01b0381166105175760405162461bcd60e51b815260206004820152602660248201527f4f776e61626c653a206e6577206f776e657220697320746865207a65726f206160448201526564647265737360d01b6064820152608401610412565b6105208161057d565b50565b6033546001600160a01b031633146103775760405162461bcd60e51b815260206004820181905260248201527f4f776e61626c653a2063616c6c6572206973206e6f7420746865206f776e65726044820152606401610412565b603380546001600160a01b038381166001600160a01b0319831681179093556040519116919082907f8be0079c531659141344cd1fd0a4f28419497f9722a3daafe3b4186f6b6457e090600090a35050565b600054610100900460ff166105f65760405162461bcd60e51b8152600401610412906106be565b610377600054610100900460ff166106205760405162461bcd60e51b8152600401610412906106be565b6103773361057d565b80356001600160a01b038116811461064057600080fd5b919050565b6000806040838503121561065857600080fd5b61066183610629565b915061066f60208401610629565b90509250929050565b60006020828403121561068a57600080fd5b61069382610629565b9392505050565b6000602082840312156106ac57600080fd5b815161ffff8116811461069357600080fd5b6020808252602b908201527f496e697469616c697a61626c653a20636f6e7472616374206973206e6f74206960408201526a6e697469616c697a696e6760a81b60608201526080019056fea26469706673582212208965fc595b95426730f15c1346b67247f6bf637d42db6d63b5fd7e80f0c4c3e364736f6c63430008110033",
  "linkReferences": {},
  "deployedLinkReferences": {}
}